{"contracts/MinimalFactory.sol":{"CollectionFactory":{"abi":[{"inputs":[{"internalType":"address","name":"_collectionImplementation","type":"address"},{"internalType":"address","name":"_profileRegistry","type":"address"}],"stateMutability":"nonpayable","type":"constructor"},{"inputs":[],"name":"ERC1167FailedCreateClone","type":"error"},{"inputs":[{"internalType":"address","name":"owner","type":"address"}],"name":"OwnableInvalidOwner","type":"error"},{"inputs":[{"internalType":"address","name":"account","type":"address"}],"name":"OwnableUnauthorizedAccount","type":"error"},{"anonymous":false,"inputs":[{"indexed":true,"internalType":"address","name":"owner","type":"address"},{"indexed":false,"internalType":"address","name":"collection","type":"address"}],"name":"CollectionCreated","type":"event"},{"anonymous":false,"inputs":[{"indexed":true,"internalType":"address","name":"owner","type":"address"},{"indexed":false,"internalType":"address","name":"collection","type":"address"},{"indexed":false,"internalType":"uint256","name":"postId","type":"uint256"}],"name":"CollectionCreatedWithPost","type":"event"},{"anonymous":false,"inputs":[{"indexed":true,"internalType":"address","name":"previousOwner","type":"address"},{"indexed":true,"internalType":"address","name":"newOwner","type":"address"}],"name":"OwnershipTransferred","type":"event"},{"anonymous":false,"inputs":[{"indexed":true,"internalType":"address","name":"owner","type":"address"},{"indexed":false,"internalType":"address","name":"collection","type":"address"},{"indexed":false,"internalType":"uint256","name":"postId","type":"uint256"}],"name":"ProfileAndCollectionCreated","type":"event"},{"inputs":[],"name":"collectionImplementation","outputs":[{"internalType":"address","name":"","type":"address"}],"stateMutability":"view","type":"function"},{"inputs":[{"internalType":"string","name":"_name","type":"string"},{"internalType":"string","name":"_contractURI","type":"string"}],"name":"createCollection","outputs":[{"internalType":"address","name":"","type":"address"}],"stateMutability":"nonpayable","type":"function"},{"inputs":[{"internalType":"string","name":"_name","type":"string"},{"internalType":"string","name":"_contractURI","type":"string"},{"internalType":"string","name":"_title","type":"string"},{"internalType":"string","name":"_content","type":"string"},{"internalType":"bool","name":"_isGated","type":"bool"}],"name":"createCollectionAndPost","outputs":[{"internalType":"address","name":"","type":"address"}],"stateMutability":"nonpayable","type":"function"},{"inputs":[{"internalType":"string","name":"_handle","type":"string"},{"internalType":"string","name":"_description","type":"string"},{"internalType":"string","name":"_profileMetadataURI","type":"string"},{"internalType":"string","name":"_collectionName","type":"string"},{"internalType":"string","name":"_collectionURI","type":"string"},{"internalType":"string","name":"_postTitle","type":"string"},{"internalType":"string","name":"_postContent","type":"string"},{"internalType":"bool","name":"_isGated","type":"bool"}],"name":"createProfileCollectionAndPost","outputs":[{"internalType":"address","name":"","type":"address"}],"stateMutability":"nonpayable","type":"function"},{"inputs":[],"name":"owner","outputs":[{"internalType":"address","name":"","type":"address"}],"stateMutability":"view","type":"function"},{"inputs":[],"name":"profileRegistry","outputs":[{"internalType":"address","name":"","type":"address"}],"stateMutability":"view","type":"function"},{"inputs":[],"name":"renounceOwnership","outputs":[],"stateMutability":"nonpayable","type":"function"},{"inputs":[{"internalType":"address","name":"newOwner","type":"address"}],"name":"transferOwnership","outputs":[],"stateMutability":"nonpayable","type":"function"}],"evm":{"bytecode":{"linkReferences":{},"object":"60c060405234801561001057600080fd5b50604051610c65380380610c6583398101604081905261002f916100e2565b338061005557604051631e4fbdf760e01b81526000600482015260240160405180910390fd5b61005e81610076565b506001600160a01b039182166080521660a052610115565b600080546001600160a01b038381166001600160a01b0319831681178455604051919092169283917f8be0079c531659141344cd1fd0a4f28419497f9722a3daafe3b4186f6b6457e09190a35050565b80516001600160a01b03811681146100dd57600080fd5b919050565b600080604083850312156100f557600080fd5b6100fe836100c6565b915061010c602084016100c6565b90509250929050565b60805160a051610b106101556000396000818161011601526103a50152600081816092015281816101660152818161025001526104190152610b106000f3fe608060405234801561001057600080fd5b50600436106100885760003560e01c8063929134641161005b57806392913464146100fe578063c9bb1a4814610111578063dbf436d914610138578063f2fde38b1461014b57600080fd5b80630f3b901f1461008d578063176b9b75146100d0578063715018a6146100e35780638da5cb5b146100ed575b600080fd5b6100b47f000000000000000000000000000000000000000000000000000000000000000081565b6040516001600160a01b03909116815260200160405180910390f35b6100b46100de36600461072c565b61015e565b6100eb610234565b005b6000546001600160a01b03166100b4565b6100b461010c3660046107a0565b610248565b6100b47f000000000000000000000000000000000000000000000000000000000000000081565b6100b461014636600461085e565b61038b565b6100eb61015936600461098a565b610557565b60008061018a7f000000000000000000000000000000000000000000000000000000000000000061059a565b6040516303bf912560e11b81529091506001600160a01b0382169063077f224a906101bd90879087903390600401610a00565b600060405180830381600087803b1580156101d757600080fd5b505af11580156101eb573d6000803e3d6000fd5b50506040516001600160a01b03841681523392507f5d0de243db1669e3a7056744cd715c625f0c1c348736c2c2d53d0ddebff1a6c7915060200160405180910390a29392505050565b61023c61060c565b6102466000610639565b565b6000806102747f000000000000000000000000000000000000000000000000000000000000000061059a565b6040516303bf912560e11b81529091506001600160a01b0382169063077f224a906102a7908a908a903390600401610a00565b600060405180830381600087803b1580156102c157600080fd5b505af11580156102d5573d6000803e3d6000fd5b505060405163da2277c360e01b81526001600160a01b038416925063da2277c3915061030b908890889033908990600401610a3e565b600060405180830381600087803b15801561032557600080fd5b505af1158015610339573d6000803e3d6000fd5b5050604080516001600160a01b0385168152600160208201523393507f8ea4b388f0090cb7e057deabfbad764fb3aaf24513a5a881d5fa9adae5fd0c5892500160405180910390a29695505050505050565b604051633463531b60e21b81526000906001600160a01b037f0000000000000000000000000000000000000000000000000000000000000000169063d18d4c6c906103e09033908d908d908d90600401610a85565b600060405180830381600087803b1580156103fa57600080fd5b505af115801561040e573d6000803e3d6000fd5b50505050600061043d7f000000000000000000000000000000000000000000000000000000000000000061059a565b6040516303bf912560e11b81529091506001600160a01b0382169063077f224a90610470908a908a903390600401610a00565b600060405180830381600087803b15801561048a57600080fd5b505af115801561049e573d6000803e3d6000fd5b505060405163da2277c360e01b81526001600160a01b038416925063da2277c391506104d4908890889033908990600401610a3e565b600060405180830381600087803b1580156104ee57600080fd5b505af1158015610502573d6000803e3d6000fd5b5050604080516001600160a01b0385168152600160208201523393507fa0bcc4f0d1b3f9f4d60d81587f30f7c26af0198e8f492361accd30c9091aa27f92500160405180910390a29998505050505050505050565b61055f61060c565b6001600160a01b03811661058e57604051631e4fbdf760e01b8152600060048201526024015b60405180910390fd5b61059781610639565b50565b6000763d602d80600a3d3981f3363d3d373d3d3d363d730000008260601b60e81c176000526e5af43d82803e903d91602b57fd5bf38260781b17602052603760096000f090506001600160a01b038116610607576040516330be1a3d60e21b815260040160405180910390fd5b919050565b6000546001600160a01b031633146102465760405163118cdaa760e01b8152336004820152602401610585565b600080546001600160a01b038381166001600160a01b0319831681178455604051919092169283917f8be0079c531659141344cd1fd0a4f28419497f9722a3daafe3b4186f6b6457e09190a35050565b634e487b7160e01b600052604160045260246000fd5b600082601f8301126106b057600080fd5b813567ffffffffffffffff808211156106cb576106cb610689565b604051601f8301601f19908116603f011681019082821181831017156106f3576106f3610689565b8160405283815286602085880101111561070c57600080fd5b836020870160208301376000602085830101528094505050505092915050565b6000806040838503121561073f57600080fd5b823567ffffffffffffffff8082111561075757600080fd5b6107638683870161069f565b9350602085013591508082111561077957600080fd5b506107868582860161069f565b9150509250929050565b8035801515811461060757600080fd5b600080600080600060a086880312156107b857600080fd5b853567ffffffffffffffff808211156107d057600080fd5b6107dc89838a0161069f565b965060208801359150808211156107f257600080fd5b6107fe89838a0161069f565b9550604088013591508082111561081457600080fd5b61082089838a0161069f565b9450606088013591508082111561083657600080fd5b506108438882890161069f565b92505061085260808701610790565b90509295509295909350565b600080600080600080600080610100898b03121561087b57600080fd5b883567ffffffffffffffff8082111561089357600080fd5b61089f8c838d0161069f565b995060208b01359150808211156108b557600080fd5b6108c18c838d0161069f565b985060408b01359150808211156108d757600080fd5b6108e38c838d0161069f565b975060608b01359150808211156108f957600080fd5b6109058c838d0161069f565b965060808b013591508082111561091b57600080fd5b6109278c838d0161069f565b955060a08b013591508082111561093d57600080fd5b6109498c838d0161069f565b945060c08b013591508082111561095f57600080fd5b5061096c8b828c0161069f565b92505061097b60e08a01610790565b90509295985092959890939650565b60006020828403121561099c57600080fd5b81356001600160a01b03811681146109b357600080fd5b9392505050565b6000815180845260005b818110156109e0576020818501810151868301820152016109c4565b506000602082860101526020601f19601f83011685010191505092915050565b606081526000610a1360608301866109ba565b8281036020840152610a2581866109ba565b91505060018060a01b0383166040830152949350505050565b608081526000610a5160808301876109ba565b8281036020840152610a6381876109ba565b6001600160a01b03959095166040840152505090151560609091015292915050565b6001600160a01b0385168152608060208201819052600090610aa9908301866109ba565b8281036040840152610abb81866109ba565b90508281036060840152610acf81856109ba565b97965050505050505056fea264697066735822122073347f99cce1a59c8a1c0abd1b269d1dd3075e02029f1049b72af59c37c273ba64736f6c63430008140033","opcodes":"PUSH1 0xC0 PUSH1 0x40 MSTORE CALLVALUE DUP1 ISZERO PUSH2 0x10 JUMPI PUSH1 0x0 DUP1 REVERT JUMPDEST POP PUSH1 0x40 MLOAD PUSH2 0xC65 CODESIZE SUB DUP1 PUSH2 0xC65 DUP4 CODECOPY DUP2 ADD PUSH1 0x40 DUP2 SWAP1 MSTORE PUSH2 0x2F SWAP2 PUSH2 0xE2 JUMP JUMPDEST CALLER DUP1 PUSH2 0x55 JUMPI PUSH1 0x40 MLOAD PUSH4 0x1E4FBDF7 PUSH1 0xE0 SHL DUP2 MSTORE PUSH1 0x0 PUSH1 0x4 DUP3 ADD MSTORE PUSH1 0x24 ADD PUSH1 0x40 MLOAD DUP1 SWAP2 SUB SWAP1 REVERT JUMPDEST PUSH2 0x5E DUP2 PUSH2 0x76 JUMP JUMPDEST POP PUSH1 0x1 PUSH1 0x1 PUSH1 0xA0 SHL SUB SWAP2 DUP3 AND PUSH1 0x80 MSTORE AND PUSH1 0xA0 MSTORE PUSH2 0x115 JUMP JUMPDEST PUSH1 0x0 DUP1 SLOAD PUSH1 0x1 PUSH1 0x1 PUSH1 0xA0 SHL SUB DUP4 DUP2 AND PUSH1 0x1 PUSH1 0x1 PUSH1 0xA0 SHL SUB NOT DUP4 AND DUP2 OR DUP5 SSTORE PUSH1 0x40 MLOAD SWAP2 SWAP1 SWAP3 AND SWAP3 DUP4 SWAP2 PUSH32 0x8BE0079C531659141344CD1FD0A4F28419497F9722A3DAAFE3B4186F6B6457E0 SWAP2 SWAP1 LOG3 POP POP JUMP JUMPDEST DUP1 MLOAD PUSH1 0x1 PUSH1 0x1 PUSH1 0xA0 SHL SUB DUP2 AND DUP2 EQ PUSH2 0xDD JUMPI PUSH1 0x0 DUP1 REVERT JUMPDEST SWAP2 SWAP1 POP JUMP JUMPDEST PUSH1 0x0 DUP1 PUSH1 0x40 DUP4 DUP6 SUB SLT ISZERO PUSH2 0xF5 JUMPI PUSH1 0x0 DUP1 REVERT JUMPDEST PUSH2 0xFE DUP4 PUSH2 0xC6 JUMP JUMPDEST SWAP2 POP PUSH2 0x10C PUSH1 0x20 DUP5 ADD PUSH2 0xC6 JUMP JUMPDEST SWAP1 POP SWAP3 POP SWAP3 SWAP1 POP JUMP JUMPDEST PUSH1 0x80 MLOAD PUSH1 0xA0 MLOAD PUSH2 0xB10 PUSH2 0x155 PUSH1 0x0 CODECOPY PUSH1 0x0 DUP2 DUP2 PUSH2 0x116 ADD MSTORE PUSH2 0x3A5 ADD MSTORE PUSH1 0x0 DUP2 DUP2 PUSH1 0x92 ADD MSTORE DUP2 DUP2 PUSH2 0x166 ADD MSTORE DUP2 DUP2 PUSH2 0x250 ADD MSTORE PUSH2 0x419 ADD MSTORE PUSH2 0xB10 PUSH1 0x0 RETURN INVALID PUSH1 0x80 PUSH1 0x40 MSTORE CALLVALUE DUP1 ISZERO PUSH2 0x10 JUMPI PUSH1 0x0 DUP1 REVERT JUMPDEST POP PUSH1 0x4 CALLDATASIZE LT PUSH2 0x88 JUMPI PUSH1 0x0 CALLDATALOAD PUSH1 0xE0 SHR DUP1 PUSH4 0x92913464 GT PUSH2 0x5B JUMPI DUP1 PUSH4 0x92913464 EQ PUSH2 0xFE JUMPI DUP1 PUSH4 0xC9BB1A48 EQ PUSH2 0x111 JUMPI DUP1 PUSH4 0xDBF436D9 EQ PUSH2 0x138 JUMPI DUP1 PUSH4 0xF2FDE38B EQ PUSH2 0x14B JUMPI PUSH1 0x0 DUP1 REVERT JUMPDEST DUP1 PUSH4 0xF3B901F EQ PUSH2 0x8D JUMPI DUP1 PUSH4 0x176B9B75 EQ PUSH2 0xD0 JUMPI DUP1 PUSH4 0x715018A6 EQ PUSH2 0xE3 JUMPI DUP1 PUSH4 0x8DA5CB5B EQ PUSH2 0xED JUMPI JUMPDEST PUSH1 0x0 DUP1 REVERT JUMPDEST PUSH2 0xB4 PUSH32 0x0 DUP2 JUMP JUMPDEST PUSH1 0x40 MLOAD PUSH1 0x1 PUSH1 0x1 PUSH1 0xA0 SHL SUB SWAP1 SWAP2 AND DUP2 MSTORE PUSH1 0x20 ADD PUSH1 0x40 MLOAD DUP1 SWAP2 SUB SWAP1 RETURN JUMPDEST PUSH2 0xB4 PUSH2 0xDE CALLDATASIZE PUSH1 0x4 PUSH2 0x72C JUMP JUMPDEST PUSH2 0x15E JUMP JUMPDEST PUSH2 0xEB PUSH2 0x234 JUMP JUMPDEST STOP JUMPDEST PUSH1 0x0 SLOAD PUSH1 0x1 PUSH1 0x1 PUSH1 0xA0 SHL SUB AND PUSH2 0xB4 JUMP JUMPDEST PUSH2 0xB4 PUSH2 0x10C CALLDATASIZE PUSH1 0x4 PUSH2 0x7A0 JUMP JUMPDEST PUSH2 0x248 JUMP JUMPDEST PUSH2 0xB4 PUSH32 0x0 DUP2 JUMP JUMPDEST PUSH2 0xB4 PUSH2 0x146 CALLDATASIZE PUSH1 0x4 PUSH2 0x85E JUMP JUMPDEST PUSH2 0x38B JUMP JUMPDEST PUSH2 0xEB PUSH2 0x159 CALLDATASIZE PUSH1 0x4 PUSH2 0x98A JUMP JUMPDEST PUSH2 0x557 JUMP JUMPDEST PUSH1 0x0 DUP1 PUSH2 0x18A PUSH32 0x0 PUSH2 0x59A JUMP JUMPDEST PUSH1 0x40 MLOAD PUSH4 0x3BF9125 PUSH1 0xE1 SHL DUP2 MSTORE SWAP1 SWAP2 POP PUSH1 0x1 PUSH1 0x1 PUSH1 0xA0 SHL SUB DUP3 AND SWAP1 PUSH4 0x77F224A SWAP1 PUSH2 0x1BD SWAP1 DUP8 SWAP1 DUP8 SWAP1 CALLER SWAP1 PUSH1 0x4 ADD PUSH2 0xA00 JUMP JUMPDEST PUSH1 0x0 PUSH1 0x40 MLOAD DUP1 DUP4 SUB DUP2 PUSH1 0x0 DUP8 DUP1 EXTCODESIZE ISZERO DUP1 ISZERO PUSH2 0x1D7 JUMPI PUSH1 0x0 DUP1 REVERT JUMPDEST POP GAS CALL ISZERO DUP1 ISZERO PUSH2 0x1EB JUMPI RETURNDATASIZE PUSH1 0x0 DUP1 RETURNDATACOPY RETURNDATASIZE PUSH1 0x0 REVERT JUMPDEST POP POP PUSH1 0x40 MLOAD PUSH1 0x1 PUSH1 0x1 PUSH1 0xA0 SHL SUB DUP5 AND DUP2 MSTORE CALLER SWAP3 POP PUSH32 0x5D0DE243DB1669E3A7056744CD715C625F0C1C348736C2C2D53D0DDEBFF1A6C7 SWAP2 POP PUSH1 0x20 ADD PUSH1 0x40 MLOAD DUP1 SWAP2 SUB SWAP1 LOG2 SWAP4 SWAP3 POP POP POP JUMP JUMPDEST PUSH2 0x23C PUSH2 0x60C JUMP JUMPDEST PUSH2 0x246 PUSH1 0x0 PUSH2 0x639 JUMP JUMPDEST JUMP JUMPDEST PUSH1 0x0 DUP1 PUSH2 0x274 PUSH32 0x0 PUSH2 0x59A JUMP JUMPDEST PUSH1 0x40 MLOAD PUSH4 0x3BF9125 PUSH1 0xE1 SHL DUP2 MSTORE SWAP1 SWAP2 POP PUSH1 0x1 PUSH1 0x1 PUSH1 0xA0 SHL SUB DUP3 AND SWAP1 PUSH4 0x77F224A SWAP1 PUSH2 0x2A7 SWAP1 DUP11 SWAP1 DUP11 SWAP1 CALLER SWAP1 PUSH1 0x4 ADD PUSH2 0xA00 JUMP JUMPDEST PUSH1 0x0 PUSH1 0x40 MLOAD DUP1 DUP4 SUB DUP2 PUSH1 0x0 DUP8 DUP1 EXTCODESIZE ISZERO DUP1 ISZERO PUSH2 0x2C1 JUMPI PUSH1 0x0 DUP1 REVERT JUMPDEST POP GAS CALL ISZERO DUP1 ISZERO PUSH2 0x2D5 JUMPI RETURNDATASIZE PUSH1 0x0 DUP1 RETURNDATACOPY RETURNDATASIZE PUSH1 0x0 REVERT JUMPDEST POP POP PUSH1 0x40 MLOAD PUSH4 0xDA2277C3 PUSH1 0xE0 SHL DUP2 MSTORE PUSH1 0x1 PUSH1 0x1 PUSH1 0xA0 SHL SUB DUP5 AND SWAP3 POP PUSH4 0xDA2277C3 SWAP2 POP PUSH2 0x30B SWAP1 DUP9 SWAP1 DUP9 SWAP1 CALLER SWAP1 DUP10 SWAP1 PUSH1 0x4 ADD PUSH2 0xA3E JUMP JUMPDEST PUSH1 0x0 PUSH1 0x40 MLOAD DUP1 DUP4 SUB DUP2 PUSH1 0x0 DUP8 DUP1 EXTCODESIZE ISZERO DUP1 ISZERO PUSH2 0x325 JUMPI PUSH1 0x0 DUP1 REVERT JUMPDEST POP GAS CALL ISZERO DUP1 ISZERO PUSH2 0x339 JUMPI RETURNDATASIZE PUSH1 0x0 DUP1 RETURNDATACOPY RETURNDATASIZE PUSH1 0x0 REVERT JUMPDEST POP POP PUSH1 0x40 DUP1 MLOAD PUSH1 0x1 PUSH1 0x1 PUSH1 0xA0 SHL SUB DUP6 AND DUP2 MSTORE PUSH1 0x1 PUSH1 0x20 DUP3 ADD MSTORE CALLER SWAP4 POP PUSH32 0x8EA4B388F0090CB7E057DEABFBAD764FB3AAF24513A5A881D5FA9ADAE5FD0C58 SWAP3 POP ADD PUSH1 0x40 MLOAD DUP1 SWAP2 SUB SWAP1 LOG2 SWAP7 SWAP6 POP POP POP POP POP POP JUMP JUMPDEST PUSH1 0x40 MLOAD PUSH4 0x3463531B PUSH1 0xE2 SHL DUP2 MSTORE PUSH1 0x0 SWAP1 PUSH1 0x1 PUSH1 0x1 PUSH1 0xA0 SHL SUB PUSH32 0x0 AND SWAP1 PUSH4 0xD18D4C6C SWAP1 PUSH2 0x3E0 SWAP1 CALLER SWAP1 DUP14 SWAP1 DUP14 SWAP1 DUP14 SWAP1 PUSH1 0x4 ADD PUSH2 0xA85 JUMP JUMPDEST PUSH1 0x0 PUSH1 0x40 MLOAD DUP1 DUP4 SUB DUP2 PUSH1 0x0 DUP8 DUP1 EXTCODESIZE ISZERO DUP1 ISZERO PUSH2 0x3FA JUMPI PUSH1 0x0 DUP1 REVERT JUMPDEST POP GAS CALL ISZERO DUP1 ISZERO PUSH2 0x40E JUMPI RETURNDATASIZE PUSH1 0x0 DUP1 RETURNDATACOPY RETURNDATASIZE PUSH1 0x0 REVERT JUMPDEST POP POP POP POP PUSH1 0x0 PUSH2 0x43D PUSH32 0x0 PUSH2 0x59A JUMP JUMPDEST PUSH1 0x40 MLOAD PUSH4 0x3BF9125 PUSH1 0xE1 SHL DUP2 MSTORE SWAP1 SWAP2 POP PUSH1 0x1 PUSH1 0x1 PUSH1 0xA0 SHL SUB DUP3 AND SWAP1 PUSH4 0x77F224A SWAP1 PUSH2 0x470 SWAP1 DUP11 SWAP1 DUP11 SWAP1 CALLER SWAP1 PUSH1 0x4 ADD PUSH2 0xA00 JUMP JUMPDEST PUSH1 0x0 PUSH1 0x40 MLOAD DUP1 DUP4 SUB DUP2 PUSH1 0x0 DUP8 DUP1 EXTCODESIZE ISZERO DUP1 ISZERO PUSH2 0x48A JUMPI PUSH1 0x0 DUP1 REVERT JUMPDEST POP GAS CALL ISZERO DUP1 ISZERO PUSH2 0x49E JUMPI RETURNDATASIZE PUSH1 0x0 DUP1 RETURNDATACOPY RETURNDATASIZE PUSH1 0x0 REVERT JUMPDEST POP POP PUSH1 0x40 MLOAD PUSH4 0xDA2277C3 PUSH1 0xE0 SHL DUP2 MSTORE PUSH1 0x1 PUSH1 0x1 PUSH1 0xA0 SHL SUB DUP5 AND SWAP3 POP PUSH4 0xDA2277C3 SWAP2 POP PUSH2 0x4D4 SWAP1 DUP9 SWAP1 DUP9 SWAP1 CALLER SWAP1 DUP10 SWAP1 PUSH1 0x4 ADD PUSH2 0xA3E JUMP JUMPDEST PUSH1 0x0 PUSH1 0x40 MLOAD DUP1 DUP4 SUB DUP2 PUSH1 0x0 DUP8 DUP1 EXTCODESIZE ISZERO DUP1 ISZERO PUSH2 0x4EE JUMPI PUSH1 0x0 DUP1 REVERT JUMPDEST POP GAS CALL ISZERO DUP1 ISZERO PUSH2 0x502 JUMPI RETURNDATASIZE PUSH1 0x0 DUP1 RETURNDATACOPY RETURNDATASIZE PUSH1 0x0 REVERT JUMPDEST POP POP PUSH1 0x40 DUP1 MLOAD PUSH1 0x1 PUSH1 0x1 PUSH1 0xA0 SHL SUB DUP6 AND DUP2 MSTORE PUSH1 0x1 PUSH1 0x20 DUP3 ADD MSTORE CALLER SWAP4 POP PUSH32 0xA0BCC4F0D1B3F9F4D60D81587F30F7C26AF0198E8F492361ACCD30C9091AA27F SWAP3 POP ADD PUSH1 0x40 MLOAD DUP1 SWAP2 SUB SWAP1 LOG2 SWAP10 SWAP9 POP POP POP POP POP POP POP POP POP JUMP JUMPDEST PUSH2 0x55F PUSH2 0x60C JUMP JUMPDEST PUSH1 0x1 PUSH1 0x1 PUSH1 0xA0 SHL SUB DUP2 AND PUSH2 0x58E JUMPI PUSH1 0x40 MLOAD PUSH4 0x1E4FBDF7 PUSH1 0xE0 SHL DUP2 MSTORE PUSH1 0x0 PUSH1 0x4 DUP3 ADD MSTORE PUSH1 0x24 ADD JUMPDEST PUSH1 0x40 MLOAD DUP1 SWAP2 SUB SWAP1 REVERT JUMPDEST PUSH2 0x597 DUP2 PUSH2 0x639 JUMP JUMPDEST POP JUMP JUMPDEST PUSH1 0x0 PUSH23 0x3D602D80600A3D3981F3363D3D373D3D3D363D73000000 DUP3 PUSH1 0x60 SHL PUSH1 0xE8 SHR OR PUSH1 0x0 MSTORE PUSH15 0x5AF43D82803E903D91602B57FD5BF3 DUP3 PUSH1 0x78 SHL OR PUSH1 0x20 MSTORE PUSH1 0x37 PUSH1 0x9 PUSH1 0x0 CREATE SWAP1 POP PUSH1 0x1 PUSH1 0x1 PUSH1 0xA0 SHL SUB DUP2 AND PUSH2 0x607 JUMPI PUSH1 0x40 MLOAD PUSH4 0x30BE1A3D PUSH1 0xE2 SHL DUP2 MSTORE PUSH1 0x4 ADD PUSH1 0x40 MLOAD DUP1 SWAP2 SUB SWAP1 REVERT JUMPDEST SWAP2 SWAP1 POP JUMP JUMPDEST PUSH1 0x0 SLOAD PUSH1 0x1 PUSH1 0x1 PUSH1 0xA0 SHL SUB AND CALLER EQ PUSH2 0x246 JUMPI PUSH1 0x40 MLOAD PUSH4 0x118CDAA7 PUSH1 0xE0 SHL DUP2 MSTORE CALLER PUSH1 0x4 DUP3 ADD MSTORE PUSH1 0x24 ADD PUSH2 0x585 JUMP JUMPDEST PUSH1 0x0 DUP1 SLOAD PUSH1 0x1 PUSH1 0x1 PUSH1 0xA0 SHL SUB DUP4 DUP2 AND PUSH1 0x1 PUSH1 0x1 PUSH1 0xA0 SHL SUB NOT DUP4 AND DUP2 OR DUP5 SSTORE PUSH1 0x40 MLOAD SWAP2 SWAP1 SWAP3 AND SWAP3 DUP4 SWAP2 PUSH32 0x8BE0079C531659141344CD1FD0A4F28419497F9722A3DAAFE3B4186F6B6457E0 SWAP2 SWAP1 LOG3 POP POP JUMP JUMPDEST PUSH4 0x4E487B71 PUSH1 0xE0 SHL PUSH1 0x0 MSTORE PUSH1 0x41 PUSH1 0x4 MSTORE PUSH1 0x24 PUSH1 0x0 REVERT JUMPDEST PUSH1 0x0 DUP3 PUSH1 0x1F DUP4 ADD SLT PUSH2 0x6B0 JUMPI PUSH1 0x0 DUP1 REVERT JUMPDEST DUP2 CALLDATALOAD PUSH8 0xFFFFFFFFFFFFFFFF DUP1 DUP3 GT ISZERO PUSH2 0x6CB JUMPI PUSH2 0x6CB PUSH2 0x689 JUMP JUMPDEST PUSH1 0x40 MLOAD PUSH1 0x1F DUP4 ADD PUSH1 0x1F NOT SWAP1 DUP2 AND PUSH1 0x3F ADD AND DUP2 ADD SWAP1 DUP3 DUP3 GT DUP2 DUP4 LT OR ISZERO PUSH2 0x6F3 JUMPI PUSH2 0x6F3 PUSH2 0x689 JUMP JUMPDEST DUP2 PUSH1 0x40 MSTORE DUP4 DUP2 MSTORE DUP7 PUSH1 0x20 DUP6 DUP9 ADD ADD GT ISZERO PUSH2 0x70C JUMPI PUSH1 0x0 DUP1 REVERT JUMPDEST DUP4 PUSH1 0x20 DUP8 ADD PUSH1 0x20 DUP4 ADD CALLDATACOPY PUSH1 0x0 PUSH1 0x20 DUP6 DUP4 ADD ADD MSTORE DUP1 SWAP5 POP POP POP POP POP SWAP3 SWAP2 POP POP JUMP JUMPDEST PUSH1 0x0 DUP1 PUSH1 0x40 DUP4 DUP6 SUB SLT ISZERO PUSH2 0x73F JUMPI PUSH1 0x0 DUP1 REVERT JUMPDEST DUP3 CALLDATALOAD PUSH8 0xFFFFFFFFFFFFFFFF DUP1 DUP3 GT ISZERO PUSH2 0x757 JUMPI PUSH1 0x0 DUP1 REVERT JUMPDEST PUSH2 0x763 DUP7 DUP4 DUP8 ADD PUSH2 0x69F JUMP JUMPDEST SWAP4 POP PUSH1 0x20 DUP6 ADD CALLDATALOAD SWAP2 POP DUP1 DUP3 GT ISZERO PUSH2 0x779 JUMPI PUSH1 0x0 DUP1 REVERT JUMPDEST POP PUSH2 0x786 DUP6 DUP3 DUP7 ADD PUSH2 0x69F JUMP JUMPDEST SWAP2 POP POP SWAP3 POP SWAP3 SWAP1 POP JUMP JUMPDEST DUP1 CALLDATALOAD DUP1 ISZERO ISZERO DUP2 EQ PUSH2 0x607 JUMPI PUSH1 0x0 DUP1 REVERT JUMPDEST PUSH1 0x0 DUP1 PUSH1 0x0 DUP1 PUSH1 0x0 PUSH1 0xA0 DUP7 DUP9 SUB SLT ISZERO PUSH2 0x7B8 JUMPI PUSH1 0x0 DUP1 REVERT JUMPDEST DUP6 CALLDATALOAD PUSH8 0xFFFFFFFFFFFFFFFF DUP1 DUP3 GT ISZERO PUSH2 0x7D0 JUMPI PUSH1 0x0 DUP1 REVERT JUMPDEST PUSH2 0x7DC DUP10 DUP4 DUP11 ADD PUSH2 0x69F JUMP JUMPDEST SWAP7 POP PUSH1 0x20 DUP9 ADD CALLDATALOAD SWAP2 POP DUP1 DUP3 GT ISZERO PUSH2 0x7F2 JUMPI PUSH1 0x0 DUP1 REVERT JUMPDEST PUSH2 0x7FE DUP10 DUP4 DUP11 ADD PUSH2 0x69F JUMP JUMPDEST SWAP6 POP PUSH1 0x40 DUP9 ADD CALLDATALOAD SWAP2 POP DUP1 DUP3 GT ISZERO PUSH2 0x814 JUMPI PUSH1 0x0 DUP1 REVERT JUMPDEST PUSH2 0x820 DUP10 DUP4 DUP11 ADD PUSH2 0x69F JUMP JUMPDEST SWAP5 POP PUSH1 0x60 DUP9 ADD CALLDATALOAD SWAP2 POP DUP1 DUP3 GT ISZERO PUSH2 0x836 JUMPI PUSH1 0x0 DUP1 REVERT JUMPDEST POP PUSH2 0x843 DUP9 DUP3 DUP10 ADD PUSH2 0x69F JUMP JUMPDEST SWAP3 POP POP PUSH2 0x852 PUSH1 0x80 DUP8 ADD PUSH2 0x790 JUMP JUMPDEST SWAP1 POP SWAP3 SWAP6 POP SWAP3 SWAP6 SWAP1 SWAP4 POP JUMP JUMPDEST PUSH1 0x0 DUP1 PUSH1 0x0 DUP1 PUSH1 0x0 DUP1 PUSH1 0x0 DUP1 PUSH2 0x100 DUP10 DUP12 SUB SLT ISZERO PUSH2 0x87B JUMPI PUSH1 0x0 DUP1 REVERT JUMPDEST DUP9 CALLDATALOAD PUSH8 0xFFFFFFFFFFFFFFFF DUP1 DUP3 GT ISZERO PUSH2 0x893 JUMPI PUSH1 0x0 DUP1 REVERT JUMPDEST PUSH2 0x89F DUP13 DUP4 DUP14 ADD PUSH2 0x69F JUMP JUMPDEST SWAP10 POP PUSH1 0x20 DUP12 ADD CALLDATALOAD SWAP2 POP DUP1 DUP3 GT ISZERO PUSH2 0x8B5 JUMPI PUSH1 0x0 DUP1 REVERT JUMPDEST PUSH2 0x8C1 DUP13 DUP4 DUP14 ADD PUSH2 0x69F JUMP JUMPDEST SWAP9 POP PUSH1 0x40 DUP12 ADD CALLDATALOAD SWAP2 POP DUP1 DUP3 GT ISZERO PUSH2 0x8D7 JUMPI PUSH1 0x0 DUP1 REVERT JUMPDEST PUSH2 0x8E3 DUP13 DUP4 DUP14 ADD PUSH2 0x69F JUMP JUMPDEST SWAP8 POP PUSH1 0x60 DUP12 ADD CALLDATALOAD SWAP2 POP DUP1 DUP3 GT ISZERO PUSH2 0x8F9 JUMPI PUSH1 0x0 DUP1 REVERT JUMPDEST PUSH2 0x905 DUP13 DUP4 DUP14 ADD PUSH2 0x69F JUMP JUMPDEST SWAP7 POP PUSH1 0x80 DUP12 ADD CALLDATALOAD SWAP2 POP DUP1 DUP3 GT ISZERO PUSH2 0x91B JUMPI PUSH1 0x0 DUP1 REVERT JUMPDEST PUSH2 0x927 DUP13 DUP4 DUP14 ADD PUSH2 0x69F JUMP JUMPDEST SWAP6 POP PUSH1 0xA0 DUP12 ADD CALLDATALOAD SWAP2 POP DUP1 DUP3 GT ISZERO PUSH2 0x93D JUMPI PUSH1 0x0 DUP1 REVERT JUMPDEST PUSH2 0x949 DUP13 DUP4 DUP14 ADD PUSH2 0x69F JUMP JUMPDEST SWAP5 POP PUSH1 0xC0 DUP12 ADD CALLDATALOAD SWAP2 POP DUP1 DUP3 GT ISZERO PUSH2 0x95F JUMPI PUSH1 0x0 DUP1 REVERT JUMPDEST POP PUSH2 0x96C DUP12 DUP3 DUP13 ADD PUSH2 0x69F JUMP JUMPDEST SWAP3 POP POP PUSH2 0x97B PUSH1 0xE0 DUP11 ADD PUSH2 0x790 JUMP JUMPDEST SWAP1 POP SWAP3 SWAP6 SWAP9 POP SWAP3 SWAP6 SWAP9 SWAP1 SWAP4 SWAP7 POP JUMP JUMPDEST PUSH1 0x0 PUSH1 0x20 DUP3 DUP5 SUB SLT ISZERO PUSH2 0x99C JUMPI PUSH1 0x0 DUP1 REVERT JUMPDEST DUP2 CALLDATALOAD PUSH1 0x1 PUSH1 0x1 PUSH1 0xA0 SHL SUB DUP2 AND DUP2 EQ PUSH2 0x9B3 JUMPI PUSH1 0x0 DUP1 REVERT JUMPDEST SWAP4 SWAP3 POP POP POP JUMP JUMPDEST PUSH1 0x0 DUP2 MLOAD DUP1 DUP5 MSTORE PUSH1 0x0 JUMPDEST DUP2 DUP2 LT ISZERO PUSH2 0x9E0 JUMPI PUSH1 0x20 DUP2 DUP6 ADD DUP2 ADD MLOAD DUP7 DUP4 ADD DUP3 ADD MSTORE ADD PUSH2 0x9C4 JUMP JUMPDEST POP PUSH1 0x0 PUSH1 0x20 DUP3 DUP7 ADD ADD MSTORE PUSH1 0x20 PUSH1 0x1F NOT PUSH1 0x1F DUP4 ADD AND DUP6 ADD ADD SWAP2 POP POP SWAP3 SWAP2 POP POP JUMP JUMPDEST PUSH1 0x60 DUP2 MSTORE PUSH1 0x0 PUSH2 0xA13 PUSH1 0x60 DUP4 ADD DUP7 PUSH2 0x9BA JUMP JUMPDEST DUP3 DUP2 SUB PUSH1 0x20 DUP5 ADD MSTORE PUSH2 0xA25 DUP2 DUP7 PUSH2 0x9BA JUMP JUMPDEST SWAP2 POP POP PUSH1 0x1 DUP1 PUSH1 0xA0 SHL SUB DUP4 AND PUSH1 0x40 DUP4 ADD MSTORE SWAP5 SWAP4 POP POP POP POP JUMP JUMPDEST PUSH1 0x80 DUP2 MSTORE PUSH1 0x0 PUSH2 0xA51 PUSH1 0x80 DUP4 ADD DUP8 PUSH2 0x9BA JUMP JUMPDEST DUP3 DUP2 SUB PUSH1 0x20 DUP5 ADD MSTORE PUSH2 0xA63 DUP2 DUP8 PUSH2 0x9BA JUMP JUMPDEST PUSH1 0x1 PUSH1 0x1 PUSH1 0xA0 SHL SUB SWAP6 SWAP1 SWAP6 AND PUSH1 0x40 DUP5 ADD MSTORE POP POP SWAP1 ISZERO ISZERO PUSH1 0x60 SWAP1 SWAP2 ADD MSTORE SWAP3 SWAP2 POP POP JUMP JUMPDEST PUSH1 0x1 PUSH1 0x1 PUSH1 0xA0 SHL SUB DUP6 AND DUP2 MSTORE PUSH1 0x80 PUSH1 0x20 DUP3 ADD DUP2 SWAP1 MSTORE PUSH1 0x0 SWAP1 PUSH2 0xAA9 SWAP1 DUP4 ADD DUP7 PUSH2 0x9BA JUMP JUMPDEST DUP3 DUP2 SUB PUSH1 0x40 DUP5 ADD MSTORE PUSH2 0xABB DUP2 DUP7 PUSH2 0x9BA JUMP JUMPDEST SWAP1 POP DUP3 DUP2 SUB PUSH1 0x60 DUP5 ADD MSTORE PUSH2 0xACF DUP2 DUP6 PUSH2 0x9BA JUMP JUMPDEST SWAP8 SWAP7 POP POP POP POP POP POP POP JUMP INVALID LOG2 PUSH5 0x6970667358 0x22 SLT KECCAK256 PUSH20 0x347F99CCE1A59C8A1C0ABD1B269D1DD3075E0202 SWAP16 LT 0x49 0xB7 0x2A CREATE2 SWAP13 CALLDATACOPY 0xC2 PUSH20 0xBA64736F6C634300081400330000000000000000 "},"methodIdentifiers":{"collectionImplementation()":"0f3b901f","createCollection(string,string)":"176b9b75","createCollectionAndPost(string,string,string,string,bool)":"92913464","createProfileCollectionAndPost(string,string,string,string,string,string,string,bool)":"dbf436d9","owner()":"8da5cb5b","profileRegistry()":"c9bb1a48","renounceOwnership()":"715018a6","transferOwnership(address)":"f2fde38b"}},"storageLayout":{"storage":[{"astId":3739,"contract":"contracts/MinimalFactory.sol:CollectionFactory","label":"_owner","offset":0,"slot":"0","type":"t_address"}],"types":{"t_address":{"encoding":"inplace","label":"address","numberOfBytes":"20"}}}}}}