{"contracts/libraries/URIEncoding.sol":{"URIEncoding":{"abi":[{"inputs":[{"internalType":"uint256","name":"value","type":"uint256"},{"internalType":"uint256","name":"length","type":"uint256"}],"name":"StringsInsufficientHexLength","type":"error"},{"inputs":[{"internalType":"string","name":"title","type":"string"},{"internalType":"string","name":"content","type":"string"},{"internalType":"address","name":"creator","type":"address"},{"internalType":"address","name":"collection","type":"address"},{"internalType":"uint256","name":"tokenId","type":"uint256"}],"name":"generateURI","outputs":[{"internalType":"string","name":"","type":"string"}],"stateMutability":"pure","type":"function"}],"evm":{"bytecode":{"linkReferences":{},"object":"61172361003a600b82828239805160001a60731461002d57634e487b7160e01b600052600060045260246000fd5b30600052607381538281f3fe73000000000000000000000000000000000000000030146080604052600436106100355760003560e01c80636f4f3bae1461003a575b600080fd5b61004d610048366004610f3d565b610063565b60405161005a9190610fee565b60405180910390f35b606060006100708761010f565b90506000610088856001600160a01b03166014610349565b610091856104cf565b6040516020016100a292919061103d565b60405160208183030381529060405290506100e3888288858b6040516020016100cf959493929190611093565b604051602081830303815290604052610562565b6040516020016100f391906111d7565b6040516020818303038152906040529250505095945050505050565b6060610190806018601e6028600c600061012a836002611232565b6101349088611249565b905060006101568a61014760028961125c565b610151908561125c565b6106c2565b905060008582516101679190611232565b9050600061017660028661125c565b610180878b611249565b61018a9190611249565b905060008783600261019c828e611249565b6101a6919061125c565b6101b0919061127e565b6101ba919061127e565b9050808210156101dc576101cf60028761125c565b6101d9908261127e565b91505b60006101e78c6104cf565b6101f08c6104cf565b6101f98e6104cf565b6102028e6104cf565b61020b8e6104cf565b6102148c6104cf565b60405160200161022996959493929190611291565b60408051601f19818403018152919052905060008a600261024a878f611249565b610254919061125c565b61025e919061127e565b905060005b86518110156102e45782610276836104cf565b61029889848151811061028b5761028b6114bb565b60200260200101516108e6565b6102a1886104cf565b6040516020016102b494939291906114d1565b60408051601f1981840301815291905292506102d08b8361127e565b9150806102dc8161160e565b915050610263565b50816040516020016102f69190611627565b6040516020818303038152906040529150600061031283610562565b9050806040516020016103259190611651565b6040516020818303038152906040529e505050505050505050505050505050919050565b6060826000610359846002611232565b61036490600261127e565b67ffffffffffffffff81111561037c5761037c610e7e565b6040519080825280601f01601f1916602001820160405280156103a6576020820181803683370190505b509050600360fc1b816000815181106103c1576103c16114bb565b60200101906001600160f81b031916908160001a905350600f60fb1b816001815181106103f0576103f06114bb565b60200101906001600160f81b031916908160001a9053506000610414856002611232565b61041f90600161127e565b90505b6001811115610497576f181899199a1a9b1b9c1cb0b131b232b360811b83600f1660108110610453576104536114bb565b1a60f81b828281518110610469576104696114bb565b60200101906001600160f81b031916908160001a90535060049290921c9161049081611696565b9050610422565b5081156104c55760405163e22e27eb60e01b8152600481018690526024810185905260440160405180910390fd5b9150505b92915050565b606060006104dc83610da6565b600101905060008167ffffffffffffffff8111156104fc576104fc610e7e565b6040519080825280601f01601f191660200182016040528015610526576020820181803683370190505b5090508181016020015b600019016f181899199a1a9b1b9c1cb0b131b232b360811b600a86061a8153600a850494508461053057509392505050565b6060815160000361058157505060408051602081019091526000815290565b60006040518060600160405280604081526020016116ae60409139905060006003845160026105b0919061127e565b6105ba919061125c565b6105c5906004611232565b67ffffffffffffffff8111156105dd576105dd610e7e565b6040519080825280601f01601f191660200182016040528015610607576020820181803683370190505b50905060018201602082018586518701602081018051600082525b8284101561067d576003840193508351603f8160121c168701518653600186019550603f81600c1c168701518653600186019550603f8160061c168701518653600186019550603f8116870151865350600185019450610622565b905250508551600390066001811461069c57600281146106af576106b7565b603d6001830353603d60028303536106b7565b603d60018303535b509195945050505050565b6060600083905060008360018584516106db919061127e565b6106e59190611249565b6106ef919061125c565b905060008167ffffffffffffffff81111561070c5761070c610e7e565b60405190808252806020026020018201604052801561073f57816020015b606081526020019060019003908161072a5790505b5090506000805b838110156108da57600061075a888461127e565b9050855181111561076d575084516107d6565b82811180156107ab575085610783600183611249565b81518110610793576107936114bb565b6020910101516001600160f81b031916600160fd1b14155b156107c257806107ba81611696565b91505061076d565b8281036107d6576107d3888461127e565b90505b60006107e28483611249565b67ffffffffffffffff8111156107fa576107fa610e7e565b6040519080825280601f01601f191660200182016040528015610824576020820181803683370190505b50905060005b8151811015610894578761083e828761127e565b8151811061084e5761084e6114bb565b602001015160f81c60f81b82828151811061086b5761086b6114bb565b60200101906001600160f81b031916908160001a9053508061088c8161160e565b91505061082a565b50808584815181106108a8576108a86114bb565b6020026020010181905250819350865184106108c55750506108da565b505080806108d29061160e565b915050610746565b50909695505050505050565b805160609082906000906108fb906006611232565b67ffffffffffffffff81111561091357610913610e7e565b6040519080825280601f01601f19166020018201604052801561093d576020820181803683370190505b5090506000805b8351811015610cf0576000848281518110610961576109616114bb565b01602001516001600160f81b0319169050601360f91b819003610a145760005b6005811015610a0e576040518060400160405280600581526020016426616d703b60d81b81525081815181106109b9576109b96114bb565b01602001516001600160f81b03191685856109d38161160e565b9650815181106109e5576109e56114bb565b60200101906001600160f81b031916908160001a90535080610a068161160e565b915050610981565b50610cdd565b6001600160f81b03198116600f60fa1b03610ab85760005b6004811015610a0e5760405180604001604052806004815260200163266c743b60e01b8152508181518110610a6357610a636114bb565b01602001516001600160f81b0319168585610a7d8161160e565b965081518110610a8f57610a8f6114bb565b60200101906001600160f81b031916908160001a90535080610ab08161160e565b915050610a2c565b6001600160f81b03198116601f60f91b03610b5c5760005b6004811015610a0e57604051806040016040528060048152602001632667743b60e01b8152508181518110610b0757610b076114bb565b01602001516001600160f81b0319168585610b218161160e565b965081518110610b3357610b336114bb565b60200101906001600160f81b031916908160001a90535080610b548161160e565b915050610ad0565b6001600160f81b03198116601160f91b03610c025760005b6006811015610a0e57604051806040016040528060068152602001652671756f743b60d01b8152508181518110610bad57610bad6114bb565b01602001516001600160f81b0319168585610bc78161160e565b965081518110610bd957610bd96114bb565b60200101906001600160f81b031916908160001a90535080610bfa8161160e565b915050610b74565b6001600160f81b03198116602760f81b03610ca75760005b6006811015610a0e5760405180604001604052806005815260200164262333393b60d81b8152508181518110610c5257610c526114bb565b01602001516001600160f81b0319168585610c6c8161160e565b965081518110610c7e57610c7e6114bb565b60200101906001600160f81b031916908160001a90535080610c9f8161160e565b915050610c1a565b808484610cb38161160e565b955081518110610cc557610cc56114bb565b60200101906001600160f81b031916908160001a9053505b5080610ce88161160e565b915050610944565b5060008167ffffffffffffffff811115610d0c57610d0c610e7e565b6040519080825280601f01601f191660200182016040528015610d36576020820181803683370190505b50905060005b82811015610d9c57838181518110610d5657610d566114bb565b602001015160f81c60f81b828281518110610d7357610d736114bb565b60200101906001600160f81b031916908160001a90535080610d948161160e565b915050610d3c565b5095945050505050565b60008072184f03e93ff9f4daa797ed6e38ed64bf6a1f0160401b8310610de55772184f03e93ff9f4daa797ed6e38ed64bf6a1f0160401b830492506040015b6d04ee2d6d415b85acef81000000008310610e11576d04ee2d6d415b85acef8100000000830492506020015b662386f26fc100008310610e2f57662386f26fc10000830492506010015b6305f5e1008310610e47576305f5e100830492506008015b6127108310610e5b57612710830492506004015b60648310610e6d576064830492506002015b600a83106104c95760010192915050565b634e487b7160e01b600052604160045260246000fd5b600082601f830112610ea557600080fd5b813567ffffffffffffffff80821115610ec057610ec0610e7e565b604051601f8301601f19908116603f01168101908282118183101715610ee857610ee8610e7e565b81604052838152866020858801011115610f0157600080fd5b836020870160208301376000602085830101528094505050505092915050565b80356001600160a01b0381168114610f3857600080fd5b919050565b600080600080600060a08688031215610f5557600080fd5b853567ffffffffffffffff80821115610f6d57600080fd5b610f7989838a01610e94565b96506020880135915080821115610f8f57600080fd5b50610f9c88828901610e94565b945050610fab60408701610f21565b9250610fb960608701610f21565b949793965091946080013592915050565b60005b83811015610fe5578181015183820152602001610fcd565b50506000910152565b602081526000825180602084015261100d816040850160208701610fca565b601f01601f19169190910160400192915050565b60008151611033818560208601610fca565b9290920192915050565b6d7777772e73756761722e78797a2f60901b81526000835161106681600e850160208801610fca565b602f60f81b600e91840191820152835161108781600f840160208801610fca565b01600f01949350505050565b683d913730b6b2911d1160b91b815285516000906110b8816009850160208b01610fca565b7f222c226465736372697074696f6e223a22412066756c6c79206f6e636861696e600991840191820152750103837b9ba103cb7ba9031b0b7103932b0b21037b7160551b6029820152865161111481603f840160208b01610fca565b61088b60f21b603f9290910191820152691130baba3437b9111d1160b11b6041820152606086901b6bffffffffffffffffffffffff1916604b8201526111cb6111bd6111b76111a061119261118c611177605f880161088b60f21b815260020190565b681134b6b0b3b2911d1160b91b815260090190565b8a611021565b61088b60f21b815260020190565b6a1131b7b73a32b73a111d1160a91b8152600b0190565b86611021565b61227d60f01b815260020190565b98975050505050505050565b7f646174613a6170706c69636174696f6e2f6a736f6e3b6261736536342c00000081526000825161120f81601d850160208701610fca565b91909101601d0192915050565b634e487b7160e01b600052601160045260246000fd5b80820281158282048414176104c9576104c961121c565b818103818111156104c9576104c961121c565b60008261127957634e487b7160e01b600052601260045260246000fd5b500490565b808201808211156104c9576104c961121c565b7f3c73766720786d6c6e733d22687474703a2f2f7777772e77332e6f72672f323081526e181817b9bb3391103bb4b23a341e9160891b6020820152600087516112e181602f850160208c01610fca565b6911103432b4b3b43a1e9160b11b602f91840191820152875161130b816039840160208c01610fca565b6e011103b34b2bba137bc1e911810181608d1b60399290910191820152865161133b816048840160208b01610fca565b602f81830101915050600160fd1b60198201526114ae6114966111b761143861142761118c6113c4611381611373601a8a018f611021565b61111f60f11b815260020190565b7f3c726563742077696474683d223130302522206865696768743d223130302522815270103334b6361e9111b330b330b31c91179f60791b602082015260310190565b7f3c7374796c653e2e74657874207b2066696c6c3a20233030303b20666f6e742d81527f66616d696c793a20436f7572696572204e65772c206d6f6e6f73706163653b2060208201526a03337b73a16b9b4bd329d160ad1b6040820152604b0190565b6470783b207d60d81b815260050190565b7f2e666f6f746572207b2066696c6c3a20233030303b20666f6e742d66616d696c81527f793a20436f7572696572204e65772c206d6f6e6f73706163653b20666f6e742d602082015265039b4bd329d160d51b604082015260460190565b6b383c1dbe9e17b9ba3cb6329f60a11b8152600c0190565b9998505050505050505050565b634e487b7160e01b600052603260045260246000fd5b600085516114e3818460208a01610fca565b701e3a32bc3a103c1e911a981291103c9e9160791b9083019081528551611511816011840160208a01610fca565b7f2220636c6173733d22746578742220746578742d616e63686f723d226d69646460119290910191820152633632911f60e11b6031820152845161155c816035840160208901610fca565b7f3c2f746578743e3c7465787420783d223530252220793d22000000000000000060359290910191820152835161159a81604d840160208801610fca565b7f2220636c6173733d22666f6f7465722220746578742d616e63686f723d226d699101604d8101919091526532323632911f60d11b606d820152732932b0b21034ba1037b71039bab3b0b9173c3cbd60611b6073820152661e17ba32bc3a1f60c91b6087820152608e019695505050505050565b6000600182016116205761162061121c565b5060010190565b60008251611639818460208701610fca565b651e17b9bb339f60d11b920191825250600601919050565b7f646174613a696d6167652f7376672b786d6c3b6261736536342c00000000000081526000825161168981601a850160208701610fca565b91909101601a0192915050565b6000816116a5576116a561121c565b50600019019056fe4142434445464748494a4b4c4d4e4f505152535455565758595a6162636465666768696a6b6c6d6e6f707172737475767778797a303132333435363738392b2fa2646970667358221220d8185ca587053f9615609c0f4ae83dc4a759ef7e0ad2cba5df0d4f0b4a864dca64736f6c63430008140033","opcodes":"PUSH2 0x1723 PUSH2 0x3A PUSH1 0xB DUP3 DUP3 DUP3 CODECOPY DUP1 MLOAD PUSH1 0x0 BYTE PUSH1 0x73 EQ PUSH2 0x2D JUMPI PUSH4 0x4E487B71 PUSH1 0xE0 SHL PUSH1 0x0 MSTORE PUSH1 0x0 PUSH1 0x4 MSTORE PUSH1 0x24 PUSH1 0x0 REVERT JUMPDEST ADDRESS PUSH1 0x0 MSTORE PUSH1 0x73 DUP2 MSTORE8 DUP3 DUP2 RETURN INVALID PUSH20 0x0 ADDRESS EQ PUSH1 0x80 PUSH1 0x40 MSTORE PUSH1 0x4 CALLDATASIZE LT PUSH2 0x35 JUMPI PUSH1 0x0 CALLDATALOAD PUSH1 0xE0 SHR DUP1 PUSH4 0x6F4F3BAE EQ PUSH2 0x3A JUMPI JUMPDEST PUSH1 0x0 DUP1 REVERT JUMPDEST PUSH2 0x4D PUSH2 0x48 CALLDATASIZE PUSH1 0x4 PUSH2 0xF3D JUMP JUMPDEST PUSH2 0x63 JUMP JUMPDEST PUSH1 0x40 MLOAD PUSH2 0x5A SWAP2 SWAP1 PUSH2 0xFEE JUMP JUMPDEST PUSH1 0x40 MLOAD DUP1 SWAP2 SUB SWAP1 RETURN JUMPDEST PUSH1 0x60 PUSH1 0x0 PUSH2 0x70 DUP8 PUSH2 0x10F JUMP JUMPDEST SWAP1 POP PUSH1 0x0 PUSH2 0x88 DUP6 PUSH1 0x1 PUSH1 0x1 PUSH1 0xA0 SHL SUB AND PUSH1 0x14 PUSH2 0x349 JUMP JUMPDEST PUSH2 0x91 DUP6 PUSH2 0x4CF JUMP JUMPDEST PUSH1 0x40 MLOAD PUSH1 0x20 ADD PUSH2 0xA2 SWAP3 SWAP2 SWAP1 PUSH2 0x103D JUMP JUMPDEST PUSH1 0x40 MLOAD PUSH1 0x20 DUP2 DUP4 SUB SUB DUP2 MSTORE SWAP1 PUSH1 0x40 MSTORE SWAP1 POP PUSH2 0xE3 DUP9 DUP3 DUP9 DUP6 DUP12 PUSH1 0x40 MLOAD PUSH1 0x20 ADD PUSH2 0xCF SWAP6 SWAP5 SWAP4 SWAP3 SWAP2 SWAP1 PUSH2 0x1093 JUMP JUMPDEST PUSH1 0x40 MLOAD PUSH1 0x20 DUP2 DUP4 SUB SUB DUP2 MSTORE SWAP1 PUSH1 0x40 MSTORE PUSH2 0x562 JUMP JUMPDEST PUSH1 0x40 MLOAD PUSH1 0x20 ADD PUSH2 0xF3 SWAP2 SWAP1 PUSH2 0x11D7 JUMP JUMPDEST PUSH1 0x40 MLOAD PUSH1 0x20 DUP2 DUP4 SUB SUB DUP2 MSTORE SWAP1 PUSH1 0x40 MSTORE SWAP3 POP POP POP SWAP6 SWAP5 POP POP POP POP POP JUMP JUMPDEST PUSH1 0x60 PUSH2 0x190 DUP1 PUSH1 0x18 PUSH1 0x1E PUSH1 0x28 PUSH1 0xC PUSH1 0x0 PUSH2 0x12A DUP4 PUSH1 0x2 PUSH2 0x1232 JUMP JUMPDEST PUSH2 0x134 SWAP1 DUP9 PUSH2 0x1249 JUMP JUMPDEST SWAP1 POP PUSH1 0x0 PUSH2 0x156 DUP11 PUSH2 0x147 PUSH1 0x2 DUP10 PUSH2 0x125C JUMP JUMPDEST PUSH2 0x151 SWAP1 DUP6 PUSH2 0x125C JUMP JUMPDEST PUSH2 0x6C2 JUMP JUMPDEST SWAP1 POP PUSH1 0x0 DUP6 DUP3 MLOAD PUSH2 0x167 SWAP2 SWAP1 PUSH2 0x1232 JUMP JUMPDEST SWAP1 POP PUSH1 0x0 PUSH2 0x176 PUSH1 0x2 DUP7 PUSH2 0x125C JUMP JUMPDEST PUSH2 0x180 DUP8 DUP12 PUSH2 0x1249 JUMP JUMPDEST PUSH2 0x18A SWAP2 SWAP1 PUSH2 0x1249 JUMP JUMPDEST SWAP1 POP PUSH1 0x0 DUP8 DUP4 PUSH1 0x2 PUSH2 0x19C DUP3 DUP15 PUSH2 0x1249 JUMP JUMPDEST PUSH2 0x1A6 SWAP2 SWAP1 PUSH2 0x125C JUMP JUMPDEST PUSH2 0x1B0 SWAP2 SWAP1 PUSH2 0x127E JUMP JUMPDEST PUSH2 0x1BA SWAP2 SWAP1 PUSH2 0x127E JUMP JUMPDEST SWAP1 POP DUP1 DUP3 LT ISZERO PUSH2 0x1DC JUMPI PUSH2 0x1CF PUSH1 0x2 DUP8 PUSH2 0x125C JUMP JUMPDEST PUSH2 0x1D9 SWAP1 DUP3 PUSH2 0x127E JUMP JUMPDEST SWAP2 POP JUMPDEST PUSH1 0x0 PUSH2 0x1E7 DUP13 PUSH2 0x4CF JUMP JUMPDEST PUSH2 0x1F0 DUP13 PUSH2 0x4CF JUMP JUMPDEST PUSH2 0x1F9 DUP15 PUSH2 0x4CF JUMP JUMPDEST PUSH2 0x202 DUP15 PUSH2 0x4CF JUMP JUMPDEST PUSH2 0x20B DUP15 PUSH2 0x4CF JUMP JUMPDEST PUSH2 0x214 DUP13 PUSH2 0x4CF JUMP JUMPDEST PUSH1 0x40 MLOAD PUSH1 0x20 ADD PUSH2 0x229 SWAP7 SWAP6 SWAP5 SWAP4 SWAP3 SWAP2 SWAP1 PUSH2 0x1291 JUMP JUMPDEST PUSH1 0x40 DUP1 MLOAD PUSH1 0x1F NOT DUP2 DUP5 SUB ADD DUP2 MSTORE SWAP2 SWAP1 MSTORE SWAP1 POP PUSH1 0x0 DUP11 PUSH1 0x2 PUSH2 0x24A DUP8 DUP16 PUSH2 0x1249 JUMP JUMPDEST PUSH2 0x254 SWAP2 SWAP1 PUSH2 0x125C JUMP JUMPDEST PUSH2 0x25E SWAP2 SWAP1 PUSH2 0x127E JUMP JUMPDEST SWAP1 POP PUSH1 0x0 JUMPDEST DUP7 MLOAD DUP2 LT ISZERO PUSH2 0x2E4 JUMPI DUP3 PUSH2 0x276 DUP4 PUSH2 0x4CF JUMP JUMPDEST PUSH2 0x298 DUP10 DUP5 DUP2 MLOAD DUP2 LT PUSH2 0x28B JUMPI PUSH2 0x28B PUSH2 0x14BB JUMP JUMPDEST PUSH1 0x20 MUL PUSH1 0x20 ADD ADD MLOAD PUSH2 0x8E6 JUMP JUMPDEST PUSH2 0x2A1 DUP9 PUSH2 0x4CF JUMP JUMPDEST PUSH1 0x40 MLOAD PUSH1 0x20 ADD PUSH2 0x2B4 SWAP5 SWAP4 SWAP3 SWAP2 SWAP1 PUSH2 0x14D1 JUMP JUMPDEST PUSH1 0x40 DUP1 MLOAD PUSH1 0x1F NOT DUP2 DUP5 SUB ADD DUP2 MSTORE SWAP2 SWAP1 MSTORE SWAP3 POP PUSH2 0x2D0 DUP12 DUP4 PUSH2 0x127E JUMP JUMPDEST SWAP2 POP DUP1 PUSH2 0x2DC DUP2 PUSH2 0x160E JUMP JUMPDEST SWAP2 POP POP PUSH2 0x263 JUMP JUMPDEST POP DUP2 PUSH1 0x40 MLOAD PUSH1 0x20 ADD PUSH2 0x2F6 SWAP2 SWAP1 PUSH2 0x1627 JUMP JUMPDEST PUSH1 0x40 MLOAD PUSH1 0x20 DUP2 DUP4 SUB SUB DUP2 MSTORE SWAP1 PUSH1 0x40 MSTORE SWAP2 POP PUSH1 0x0 PUSH2 0x312 DUP4 PUSH2 0x562 JUMP JUMPDEST SWAP1 POP DUP1 PUSH1 0x40 MLOAD PUSH1 0x20 ADD PUSH2 0x325 SWAP2 SWAP1 PUSH2 0x1651 JUMP JUMPDEST PUSH1 0x40 MLOAD PUSH1 0x20 DUP2 DUP4 SUB SUB DUP2 MSTORE SWAP1 PUSH1 0x40 MSTORE SWAP15 POP POP POP POP POP POP POP POP POP POP POP POP POP POP POP SWAP2 SWAP1 POP JUMP JUMPDEST PUSH1 0x60 DUP3 PUSH1 0x0 PUSH2 0x359 DUP5 PUSH1 0x2 PUSH2 0x1232 JUMP JUMPDEST PUSH2 0x364 SWAP1 PUSH1 0x2 PUSH2 0x127E JUMP JUMPDEST PUSH8 0xFFFFFFFFFFFFFFFF DUP2 GT ISZERO PUSH2 0x37C JUMPI PUSH2 0x37C PUSH2 0xE7E JUMP JUMPDEST PUSH1 0x40 MLOAD SWAP1 DUP1 DUP3 MSTORE DUP1 PUSH1 0x1F ADD PUSH1 0x1F NOT AND PUSH1 0x20 ADD DUP3 ADD PUSH1 0x40 MSTORE DUP1 ISZERO PUSH2 0x3A6 JUMPI PUSH1 0x20 DUP3 ADD DUP2 DUP1 CALLDATASIZE DUP4 CALLDATACOPY ADD SWAP1 POP JUMPDEST POP SWAP1 POP PUSH1 0x3 PUSH1 0xFC SHL DUP2 PUSH1 0x0 DUP2 MLOAD DUP2 LT PUSH2 0x3C1 JUMPI PUSH2 0x3C1 PUSH2 0x14BB JUMP JUMPDEST PUSH1 0x20 ADD ADD SWAP1 PUSH1 0x1 PUSH1 0x1 PUSH1 0xF8 SHL SUB NOT AND SWAP1 DUP2 PUSH1 0x0 BYTE SWAP1 MSTORE8 POP PUSH1 0xF PUSH1 0xFB SHL DUP2 PUSH1 0x1 DUP2 MLOAD DUP2 LT PUSH2 0x3F0 JUMPI PUSH2 0x3F0 PUSH2 0x14BB JUMP JUMPDEST PUSH1 0x20 ADD ADD SWAP1 PUSH1 0x1 PUSH1 0x1 PUSH1 0xF8 SHL SUB NOT AND SWAP1 DUP2 PUSH1 0x0 BYTE SWAP1 MSTORE8 POP PUSH1 0x0 PUSH2 0x414 DUP6 PUSH1 0x2 PUSH2 0x1232 JUMP JUMPDEST PUSH2 0x41F SWAP1 PUSH1 0x1 PUSH2 0x127E JUMP JUMPDEST SWAP1 POP JUMPDEST PUSH1 0x1 DUP2 GT ISZERO PUSH2 0x497 JUMPI PUSH16 0x181899199A1A9B1B9C1CB0B131B232B3 PUSH1 0x81 SHL DUP4 PUSH1 0xF AND PUSH1 0x10 DUP2 LT PUSH2 0x453 JUMPI PUSH2 0x453 PUSH2 0x14BB JUMP JUMPDEST BYTE PUSH1 0xF8 SHL DUP3 DUP3 DUP2 MLOAD DUP2 LT PUSH2 0x469 JUMPI PUSH2 0x469 PUSH2 0x14BB JUMP JUMPDEST PUSH1 0x20 ADD ADD SWAP1 PUSH1 0x1 PUSH1 0x1 PUSH1 0xF8 SHL SUB NOT AND SWAP1 DUP2 PUSH1 0x0 BYTE SWAP1 MSTORE8 POP PUSH1 0x4 SWAP3 SWAP1 SWAP3 SHR SWAP2 PUSH2 0x490 DUP2 PUSH2 0x1696 JUMP JUMPDEST SWAP1 POP PUSH2 0x422 JUMP JUMPDEST POP DUP2 ISZERO PUSH2 0x4C5 JUMPI PUSH1 0x40 MLOAD PUSH4 0xE22E27EB PUSH1 0xE0 SHL DUP2 MSTORE PUSH1 0x4 DUP2 ADD DUP7 SWAP1 MSTORE PUSH1 0x24 DUP2 ADD DUP6 SWAP1 MSTORE PUSH1 0x44 ADD PUSH1 0x40 MLOAD DUP1 SWAP2 SUB SWAP1 REVERT JUMPDEST SWAP2 POP POP JUMPDEST SWAP3 SWAP2 POP POP JUMP JUMPDEST PUSH1 0x60 PUSH1 0x0 PUSH2 0x4DC DUP4 PUSH2 0xDA6 JUMP JUMPDEST PUSH1 0x1 ADD SWAP1 POP PUSH1 0x0 DUP2 PUSH8 0xFFFFFFFFFFFFFFFF DUP2 GT ISZERO PUSH2 0x4FC JUMPI PUSH2 0x4FC PUSH2 0xE7E JUMP JUMPDEST PUSH1 0x40 MLOAD SWAP1 DUP1 DUP3 MSTORE DUP1 PUSH1 0x1F ADD PUSH1 0x1F NOT AND PUSH1 0x20 ADD DUP3 ADD PUSH1 0x40 MSTORE DUP1 ISZERO PUSH2 0x526 JUMPI PUSH1 0x20 DUP3 ADD DUP2 DUP1 CALLDATASIZE DUP4 CALLDATACOPY ADD SWAP1 POP JUMPDEST POP SWAP1 POP DUP2 DUP2 ADD PUSH1 0x20 ADD JUMPDEST PUSH1 0x0 NOT ADD PUSH16 0x181899199A1A9B1B9C1CB0B131B232B3 PUSH1 0x81 SHL PUSH1 0xA DUP7 MOD BYTE DUP2 MSTORE8 PUSH1 0xA DUP6 DIV SWAP5 POP DUP5 PUSH2 0x530 JUMPI POP SWAP4 SWAP3 POP POP POP JUMP JUMPDEST PUSH1 0x60 DUP2 MLOAD PUSH1 0x0 SUB PUSH2 0x581 JUMPI POP POP PUSH1 0x40 DUP1 MLOAD PUSH1 0x20 DUP2 ADD SWAP1 SWAP2 MSTORE PUSH1 0x0 DUP2 MSTORE SWAP1 JUMP JUMPDEST PUSH1 0x0 PUSH1 0x40 MLOAD DUP1 PUSH1 0x60 ADD PUSH1 0x40 MSTORE DUP1 PUSH1 0x40 DUP2 MSTORE PUSH1 0x20 ADD PUSH2 0x16AE PUSH1 0x40 SWAP2 CODECOPY SWAP1 POP PUSH1 0x0 PUSH1 0x3 DUP5 MLOAD PUSH1 0x2 PUSH2 0x5B0 SWAP2 SWAP1 PUSH2 0x127E JUMP JUMPDEST PUSH2 0x5BA SWAP2 SWAP1 PUSH2 0x125C JUMP JUMPDEST PUSH2 0x5C5 SWAP1 PUSH1 0x4 PUSH2 0x1232 JUMP JUMPDEST PUSH8 0xFFFFFFFFFFFFFFFF DUP2 GT ISZERO PUSH2 0x5DD JUMPI PUSH2 0x5DD PUSH2 0xE7E JUMP JUMPDEST PUSH1 0x40 MLOAD SWAP1 DUP1 DUP3 MSTORE DUP1 PUSH1 0x1F ADD PUSH1 0x1F NOT AND PUSH1 0x20 ADD DUP3 ADD PUSH1 0x40 MSTORE DUP1 ISZERO PUSH2 0x607 JUMPI PUSH1 0x20 DUP3 ADD DUP2 DUP1 CALLDATASIZE DUP4 CALLDATACOPY ADD SWAP1 POP JUMPDEST POP SWAP1 POP PUSH1 0x1 DUP3 ADD PUSH1 0x20 DUP3 ADD DUP6 DUP7 MLOAD DUP8 ADD PUSH1 0x20 DUP2 ADD DUP1 MLOAD PUSH1 0x0 DUP3 MSTORE JUMPDEST DUP3 DUP5 LT ISZERO PUSH2 0x67D JUMPI PUSH1 0x3 DUP5 ADD SWAP4 POP DUP4 MLOAD PUSH1 0x3F DUP2 PUSH1 0x12 SHR AND DUP8 ADD MLOAD DUP7 MSTORE8 PUSH1 0x1 DUP7 ADD SWAP6 POP PUSH1 0x3F DUP2 PUSH1 0xC SHR AND DUP8 ADD MLOAD DUP7 MSTORE8 PUSH1 0x1 DUP7 ADD SWAP6 POP PUSH1 0x3F DUP2 PUSH1 0x6 SHR AND DUP8 ADD MLOAD DUP7 MSTORE8 PUSH1 0x1 DUP7 ADD SWAP6 POP PUSH1 0x3F DUP2 AND DUP8 ADD MLOAD DUP7 MSTORE8 POP PUSH1 0x1 DUP6 ADD SWAP5 POP PUSH2 0x622 JUMP JUMPDEST SWAP1 MSTORE POP POP DUP6 MLOAD PUSH1 0x3 SWAP1 MOD PUSH1 0x1 DUP2 EQ PUSH2 0x69C JUMPI PUSH1 0x2 DUP2 EQ PUSH2 0x6AF JUMPI PUSH2 0x6B7 JUMP JUMPDEST PUSH1 0x3D PUSH1 0x1 DUP4 SUB MSTORE8 PUSH1 0x3D PUSH1 0x2 DUP4 SUB MSTORE8 PUSH2 0x6B7 JUMP JUMPDEST PUSH1 0x3D PUSH1 0x1 DUP4 SUB MSTORE8 JUMPDEST POP SWAP2 SWAP6 SWAP5 POP POP POP POP POP JUMP JUMPDEST PUSH1 0x60 PUSH1 0x0 DUP4 SWAP1 POP PUSH1 0x0 DUP4 PUSH1 0x1 DUP6 DUP5 MLOAD PUSH2 0x6DB SWAP2 SWAP1 PUSH2 0x127E JUMP JUMPDEST PUSH2 0x6E5 SWAP2 SWAP1 PUSH2 0x1249 JUMP JUMPDEST PUSH2 0x6EF SWAP2 SWAP1 PUSH2 0x125C JUMP JUMPDEST SWAP1 POP PUSH1 0x0 DUP2 PUSH8 0xFFFFFFFFFFFFFFFF DUP2 GT ISZERO PUSH2 0x70C JUMPI PUSH2 0x70C PUSH2 0xE7E JUMP JUMPDEST PUSH1 0x40 MLOAD SWAP1 DUP1 DUP3 MSTORE DUP1 PUSH1 0x20 MUL PUSH1 0x20 ADD DUP3 ADD PUSH1 0x40 MSTORE DUP1 ISZERO PUSH2 0x73F JUMPI DUP2 PUSH1 0x20 ADD JUMPDEST PUSH1 0x60 DUP2 MSTORE PUSH1 0x20 ADD SWAP1 PUSH1 0x1 SWAP1 SUB SWAP1 DUP2 PUSH2 0x72A JUMPI SWAP1 POP JUMPDEST POP SWAP1 POP PUSH1 0x0 DUP1 JUMPDEST DUP4 DUP2 LT ISZERO PUSH2 0x8DA JUMPI PUSH1 0x0 PUSH2 0x75A DUP9 DUP5 PUSH2 0x127E JUMP JUMPDEST SWAP1 POP DUP6 MLOAD DUP2 GT ISZERO PUSH2 0x76D JUMPI POP DUP5 MLOAD PUSH2 0x7D6 JUMP JUMPDEST DUP3 DUP2 GT DUP1 ISZERO PUSH2 0x7AB JUMPI POP DUP6 PUSH2 0x783 PUSH1 0x1 DUP4 PUSH2 0x1249 JUMP JUMPDEST DUP2 MLOAD DUP2 LT PUSH2 0x793 JUMPI PUSH2 0x793 PUSH2 0x14BB JUMP JUMPDEST PUSH1 0x20 SWAP2 ADD ADD MLOAD PUSH1 0x1 PUSH1 0x1 PUSH1 0xF8 SHL SUB NOT AND PUSH1 0x1 PUSH1 0xFD SHL EQ ISZERO JUMPDEST ISZERO PUSH2 0x7C2 JUMPI DUP1 PUSH2 0x7BA DUP2 PUSH2 0x1696 JUMP JUMPDEST SWAP2 POP POP PUSH2 0x76D JUMP JUMPDEST DUP3 DUP2 SUB PUSH2 0x7D6 JUMPI PUSH2 0x7D3 DUP9 DUP5 PUSH2 0x127E JUMP JUMPDEST SWAP1 POP JUMPDEST PUSH1 0x0 PUSH2 0x7E2 DUP5 DUP4 PUSH2 0x1249 JUMP JUMPDEST PUSH8 0xFFFFFFFFFFFFFFFF DUP2 GT ISZERO PUSH2 0x7FA JUMPI PUSH2 0x7FA PUSH2 0xE7E JUMP JUMPDEST PUSH1 0x40 MLOAD SWAP1 DUP1 DUP3 MSTORE DUP1 PUSH1 0x1F ADD PUSH1 0x1F NOT AND PUSH1 0x20 ADD DUP3 ADD PUSH1 0x40 MSTORE DUP1 ISZERO PUSH2 0x824 JUMPI PUSH1 0x20 DUP3 ADD DUP2 DUP1 CALLDATASIZE DUP4 CALLDATACOPY ADD SWAP1 POP JUMPDEST POP SWAP1 POP PUSH1 0x0 JUMPDEST DUP2 MLOAD DUP2 LT ISZERO PUSH2 0x894 JUMPI DUP8 PUSH2 0x83E DUP3 DUP8 PUSH2 0x127E JUMP JUMPDEST DUP2 MLOAD DUP2 LT PUSH2 0x84E JUMPI PUSH2 0x84E PUSH2 0x14BB JUMP JUMPDEST PUSH1 0x20 ADD ADD MLOAD PUSH1 0xF8 SHR PUSH1 0xF8 SHL DUP3 DUP3 DUP2 MLOAD DUP2 LT PUSH2 0x86B JUMPI PUSH2 0x86B PUSH2 0x14BB JUMP JUMPDEST PUSH1 0x20 ADD ADD SWAP1 PUSH1 0x1 PUSH1 0x1 PUSH1 0xF8 SHL SUB NOT AND SWAP1 DUP2 PUSH1 0x0 BYTE SWAP1 MSTORE8 POP DUP1 PUSH2 0x88C DUP2 PUSH2 0x160E JUMP JUMPDEST SWAP2 POP POP PUSH2 0x82A JUMP JUMPDEST POP DUP1 DUP6 DUP5 DUP2 MLOAD DUP2 LT PUSH2 0x8A8 JUMPI PUSH2 0x8A8 PUSH2 0x14BB JUMP JUMPDEST PUSH1 0x20 MUL PUSH1 0x20 ADD ADD DUP2 SWAP1 MSTORE POP DUP2 SWAP4 POP DUP7 MLOAD DUP5 LT PUSH2 0x8C5 JUMPI POP POP PUSH2 0x8DA JUMP JUMPDEST POP POP DUP1 DUP1 PUSH2 0x8D2 SWAP1 PUSH2 0x160E JUMP JUMPDEST SWAP2 POP POP PUSH2 0x746 JUMP JUMPDEST POP SWAP1 SWAP7 SWAP6 POP POP POP POP POP POP JUMP JUMPDEST DUP1 MLOAD PUSH1 0x60 SWAP1 DUP3 SWAP1 PUSH1 0x0 SWAP1 PUSH2 0x8FB SWAP1 PUSH1 0x6 PUSH2 0x1232 JUMP JUMPDEST PUSH8 0xFFFFFFFFFFFFFFFF DUP2 GT ISZERO PUSH2 0x913 JUMPI PUSH2 0x913 PUSH2 0xE7E JUMP JUMPDEST PUSH1 0x40 MLOAD SWAP1 DUP1 DUP3 MSTORE DUP1 PUSH1 0x1F ADD PUSH1 0x1F NOT AND PUSH1 0x20 ADD DUP3 ADD PUSH1 0x40 MSTORE DUP1 ISZERO PUSH2 0x93D JUMPI PUSH1 0x20 DUP3 ADD DUP2 DUP1 CALLDATASIZE DUP4 CALLDATACOPY ADD SWAP1 POP JUMPDEST POP SWAP1 POP PUSH1 0x0 DUP1 JUMPDEST DUP4 MLOAD DUP2 LT ISZERO PUSH2 0xCF0 JUMPI PUSH1 0x0 DUP5 DUP3 DUP2 MLOAD DUP2 LT PUSH2 0x961 JUMPI PUSH2 0x961 PUSH2 0x14BB JUMP JUMPDEST ADD PUSH1 0x20 ADD MLOAD PUSH1 0x1 PUSH1 0x1 PUSH1 0xF8 SHL SUB NOT AND SWAP1 POP PUSH1 0x13 PUSH1 0xF9 SHL DUP2 SWAP1 SUB PUSH2 0xA14 JUMPI PUSH1 0x0 JUMPDEST PUSH1 0x5 DUP2 LT ISZERO PUSH2 0xA0E JUMPI PUSH1 0x40 MLOAD DUP1 PUSH1 0x40 ADD PUSH1 0x40 MSTORE DUP1 PUSH1 0x5 DUP2 MSTORE PUSH1 0x20 ADD PUSH5 0x26616D703B PUSH1 0xD8 SHL DUP2 MSTORE POP DUP2 DUP2 MLOAD DUP2 LT PUSH2 0x9B9 JUMPI PUSH2 0x9B9 PUSH2 0x14BB JUMP JUMPDEST ADD PUSH1 0x20 ADD MLOAD PUSH1 0x1 PUSH1 0x1 PUSH1 0xF8 SHL SUB NOT AND DUP6 DUP6 PUSH2 0x9D3 DUP2 PUSH2 0x160E JUMP JUMPDEST SWAP7 POP DUP2 MLOAD DUP2 LT PUSH2 0x9E5 JUMPI PUSH2 0x9E5 PUSH2 0x14BB JUMP JUMPDEST PUSH1 0x20 ADD ADD SWAP1 PUSH1 0x1 PUSH1 0x1 PUSH1 0xF8 SHL SUB NOT AND SWAP1 DUP2 PUSH1 0x0 BYTE SWAP1 MSTORE8 POP DUP1 PUSH2 0xA06 DUP2 PUSH2 0x160E JUMP JUMPDEST SWAP2 POP POP PUSH2 0x981 JUMP JUMPDEST POP PUSH2 0xCDD JUMP JUMPDEST PUSH1 0x1 PUSH1 0x1 PUSH1 0xF8 SHL SUB NOT DUP2 AND PUSH1 0xF PUSH1 0xFA SHL SUB PUSH2 0xAB8 JUMPI PUSH1 0x0 JUMPDEST PUSH1 0x4 DUP2 LT ISZERO PUSH2 0xA0E JUMPI PUSH1 0x40 MLOAD DUP1 PUSH1 0x40 ADD PUSH1 0x40 MSTORE DUP1 PUSH1 0x4 DUP2 MSTORE PUSH1 0x20 ADD PUSH4 0x266C743B PUSH1 0xE0 SHL DUP2 MSTORE POP DUP2 DUP2 MLOAD DUP2 LT PUSH2 0xA63 JUMPI PUSH2 0xA63 PUSH2 0x14BB JUMP JUMPDEST ADD PUSH1 0x20 ADD MLOAD PUSH1 0x1 PUSH1 0x1 PUSH1 0xF8 SHL SUB NOT AND DUP6 DUP6 PUSH2 0xA7D DUP2 PUSH2 0x160E JUMP JUMPDEST SWAP7 POP DUP2 MLOAD DUP2 LT PUSH2 0xA8F JUMPI PUSH2 0xA8F PUSH2 0x14BB JUMP JUMPDEST PUSH1 0x20 ADD ADD SWAP1 PUSH1 0x1 PUSH1 0x1 PUSH1 0xF8 SHL SUB NOT AND SWAP1 DUP2 PUSH1 0x0 BYTE SWAP1 MSTORE8 POP DUP1 PUSH2 0xAB0 DUP2 PUSH2 0x160E JUMP JUMPDEST SWAP2 POP POP PUSH2 0xA2C JUMP JUMPDEST PUSH1 0x1 PUSH1 0x1 PUSH1 0xF8 SHL SUB NOT DUP2 AND PUSH1 0x1F PUSH1 0xF9 SHL SUB PUSH2 0xB5C JUMPI PUSH1 0x0 JUMPDEST PUSH1 0x4 DUP2 LT ISZERO PUSH2 0xA0E JUMPI PUSH1 0x40 MLOAD DUP1 PUSH1 0x40 ADD PUSH1 0x40 MSTORE DUP1 PUSH1 0x4 DUP2 MSTORE PUSH1 0x20 ADD PUSH4 0x2667743B PUSH1 0xE0 SHL DUP2 MSTORE POP DUP2 DUP2 MLOAD DUP2 LT PUSH2 0xB07 JUMPI PUSH2 0xB07 PUSH2 0x14BB JUMP JUMPDEST ADD PUSH1 0x20 ADD MLOAD PUSH1 0x1 PUSH1 0x1 PUSH1 0xF8 SHL SUB NOT AND DUP6 DUP6 PUSH2 0xB21 DUP2 PUSH2 0x160E JUMP JUMPDEST SWAP7 POP DUP2 MLOAD DUP2 LT PUSH2 0xB33 JUMPI PUSH2 0xB33 PUSH2 0x14BB JUMP JUMPDEST PUSH1 0x20 ADD ADD SWAP1 PUSH1 0x1 PUSH1 0x1 PUSH1 0xF8 SHL SUB NOT AND SWAP1 DUP2 PUSH1 0x0 BYTE SWAP1 MSTORE8 POP DUP1 PUSH2 0xB54 DUP2 PUSH2 0x160E JUMP JUMPDEST SWAP2 POP POP PUSH2 0xAD0 JUMP JUMPDEST PUSH1 0x1 PUSH1 0x1 PUSH1 0xF8 SHL SUB NOT DUP2 AND PUSH1 0x11 PUSH1 0xF9 SHL SUB PUSH2 0xC02 JUMPI PUSH1 0x0 JUMPDEST PUSH1 0x6 DUP2 LT ISZERO PUSH2 0xA0E JUMPI PUSH1 0x40 MLOAD DUP1 PUSH1 0x40 ADD PUSH1 0x40 MSTORE DUP1 PUSH1 0x6 DUP2 MSTORE PUSH1 0x20 ADD PUSH6 0x2671756F743B PUSH1 0xD0 SHL DUP2 MSTORE POP DUP2 DUP2 MLOAD DUP2 LT PUSH2 0xBAD JUMPI PUSH2 0xBAD PUSH2 0x14BB JUMP JUMPDEST ADD PUSH1 0x20 ADD MLOAD PUSH1 0x1 PUSH1 0x1 PUSH1 0xF8 SHL SUB NOT AND DUP6 DUP6 PUSH2 0xBC7 DUP2 PUSH2 0x160E JUMP JUMPDEST SWAP7 POP DUP2 MLOAD DUP2 LT PUSH2 0xBD9 JUMPI PUSH2 0xBD9 PUSH2 0x14BB JUMP JUMPDEST PUSH1 0x20 ADD ADD SWAP1 PUSH1 0x1 PUSH1 0x1 PUSH1 0xF8 SHL SUB NOT AND SWAP1 DUP2 PUSH1 0x0 BYTE SWAP1 MSTORE8 POP DUP1 PUSH2 0xBFA DUP2 PUSH2 0x160E JUMP JUMPDEST SWAP2 POP POP PUSH2 0xB74 JUMP JUMPDEST PUSH1 0x1 PUSH1 0x1 PUSH1 0xF8 SHL SUB NOT DUP2 AND PUSH1 0x27 PUSH1 0xF8 SHL SUB PUSH2 0xCA7 JUMPI PUSH1 0x0 JUMPDEST PUSH1 0x6 DUP2 LT ISZERO PUSH2 0xA0E JUMPI PUSH1 0x40 MLOAD DUP1 PUSH1 0x40 ADD PUSH1 0x40 MSTORE DUP1 PUSH1 0x5 DUP2 MSTORE PUSH1 0x20 ADD PUSH5 0x262333393B PUSH1 0xD8 SHL DUP2 MSTORE POP DUP2 DUP2 MLOAD DUP2 LT PUSH2 0xC52 JUMPI PUSH2 0xC52 PUSH2 0x14BB JUMP JUMPDEST ADD PUSH1 0x20 ADD MLOAD PUSH1 0x1 PUSH1 0x1 PUSH1 0xF8 SHL SUB NOT AND DUP6 DUP6 PUSH2 0xC6C DUP2 PUSH2 0x160E JUMP JUMPDEST SWAP7 POP DUP2 MLOAD DUP2 LT PUSH2 0xC7E JUMPI PUSH2 0xC7E PUSH2 0x14BB JUMP JUMPDEST PUSH1 0x20 ADD ADD SWAP1 PUSH1 0x1 PUSH1 0x1 PUSH1 0xF8 SHL SUB NOT AND SWAP1 DUP2 PUSH1 0x0 BYTE SWAP1 MSTORE8 POP DUP1 PUSH2 0xC9F DUP2 PUSH2 0x160E JUMP JUMPDEST SWAP2 POP POP PUSH2 0xC1A JUMP JUMPDEST DUP1 DUP5 DUP5 PUSH2 0xCB3 DUP2 PUSH2 0x160E JUMP JUMPDEST SWAP6 POP DUP2 MLOAD DUP2 LT PUSH2 0xCC5 JUMPI PUSH2 0xCC5 PUSH2 0x14BB JUMP JUMPDEST PUSH1 0x20 ADD ADD SWAP1 PUSH1 0x1 PUSH1 0x1 PUSH1 0xF8 SHL SUB NOT AND SWAP1 DUP2 PUSH1 0x0 BYTE SWAP1 MSTORE8 POP JUMPDEST POP DUP1 PUSH2 0xCE8 DUP2 PUSH2 0x160E JUMP JUMPDEST SWAP2 POP POP PUSH2 0x944 JUMP JUMPDEST POP PUSH1 0x0 DUP2 PUSH8 0xFFFFFFFFFFFFFFFF DUP2 GT ISZERO PUSH2 0xD0C JUMPI PUSH2 0xD0C PUSH2 0xE7E JUMP JUMPDEST PUSH1 0x40 MLOAD SWAP1 DUP1 DUP3 MSTORE DUP1 PUSH1 0x1F ADD PUSH1 0x1F NOT AND PUSH1 0x20 ADD DUP3 ADD PUSH1 0x40 MSTORE DUP1 ISZERO PUSH2 0xD36 JUMPI PUSH1 0x20 DUP3 ADD DUP2 DUP1 CALLDATASIZE DUP4 CALLDATACOPY ADD SWAP1 POP JUMPDEST POP SWAP1 POP PUSH1 0x0 JUMPDEST DUP3 DUP2 LT ISZERO PUSH2 0xD9C JUMPI DUP4 DUP2 DUP2 MLOAD DUP2 LT PUSH2 0xD56 JUMPI PUSH2 0xD56 PUSH2 0x14BB JUMP JUMPDEST PUSH1 0x20 ADD ADD MLOAD PUSH1 0xF8 SHR PUSH1 0xF8 SHL DUP3 DUP3 DUP2 MLOAD DUP2 LT PUSH2 0xD73 JUMPI PUSH2 0xD73 PUSH2 0x14BB JUMP JUMPDEST PUSH1 0x20 ADD ADD SWAP1 PUSH1 0x1 PUSH1 0x1 PUSH1 0xF8 SHL SUB NOT AND SWAP1 DUP2 PUSH1 0x0 BYTE SWAP1 MSTORE8 POP DUP1 PUSH2 0xD94 DUP2 PUSH2 0x160E JUMP JUMPDEST SWAP2 POP POP PUSH2 0xD3C JUMP JUMPDEST POP SWAP6 SWAP5 POP POP POP POP POP JUMP JUMPDEST PUSH1 0x0 DUP1 PUSH19 0x184F03E93FF9F4DAA797ED6E38ED64BF6A1F01 PUSH1 0x40 SHL DUP4 LT PUSH2 0xDE5 JUMPI PUSH19 0x184F03E93FF9F4DAA797ED6E38ED64BF6A1F01 PUSH1 0x40 SHL DUP4 DIV SWAP3 POP PUSH1 0x40 ADD JUMPDEST PUSH14 0x4EE2D6D415B85ACEF8100000000 DUP4 LT PUSH2 0xE11 JUMPI PUSH14 0x4EE2D6D415B85ACEF8100000000 DUP4 DIV SWAP3 POP PUSH1 0x20 ADD JUMPDEST PUSH7 0x2386F26FC10000 DUP4 LT PUSH2 0xE2F JUMPI PUSH7 0x2386F26FC10000 DUP4 DIV SWAP3 POP PUSH1 0x10 ADD JUMPDEST PUSH4 0x5F5E100 DUP4 LT PUSH2 0xE47 JUMPI PUSH4 0x5F5E100 DUP4 DIV SWAP3 POP PUSH1 0x8 ADD JUMPDEST PUSH2 0x2710 DUP4 LT PUSH2 0xE5B JUMPI PUSH2 0x2710 DUP4 DIV SWAP3 POP PUSH1 0x4 ADD JUMPDEST PUSH1 0x64 DUP4 LT PUSH2 0xE6D JUMPI PUSH1 0x64 DUP4 DIV SWAP3 POP PUSH1 0x2 ADD JUMPDEST PUSH1 0xA DUP4 LT PUSH2 0x4C9 JUMPI PUSH1 0x1 ADD SWAP3 SWAP2 POP POP JUMP JUMPDEST PUSH4 0x4E487B71 PUSH1 0xE0 SHL PUSH1 0x0 MSTORE PUSH1 0x41 PUSH1 0x4 MSTORE PUSH1 0x24 PUSH1 0x0 REVERT JUMPDEST PUSH1 0x0 DUP3 PUSH1 0x1F DUP4 ADD SLT PUSH2 0xEA5 JUMPI PUSH1 0x0 DUP1 REVERT JUMPDEST DUP2 CALLDATALOAD PUSH8 0xFFFFFFFFFFFFFFFF DUP1 DUP3 GT ISZERO PUSH2 0xEC0 JUMPI PUSH2 0xEC0 PUSH2 0xE7E JUMP JUMPDEST PUSH1 0x40 MLOAD PUSH1 0x1F DUP4 ADD PUSH1 0x1F NOT SWAP1 DUP2 AND PUSH1 0x3F ADD AND DUP2 ADD SWAP1 DUP3 DUP3 GT DUP2 DUP4 LT OR ISZERO PUSH2 0xEE8 JUMPI PUSH2 0xEE8 PUSH2 0xE7E JUMP JUMPDEST DUP2 PUSH1 0x40 MSTORE DUP4 DUP2 MSTORE DUP7 PUSH1 0x20 DUP6 DUP9 ADD ADD GT ISZERO PUSH2 0xF01 JUMPI PUSH1 0x0 DUP1 REVERT JUMPDEST DUP4 PUSH1 0x20 DUP8 ADD PUSH1 0x20 DUP4 ADD CALLDATACOPY PUSH1 0x0 PUSH1 0x20 DUP6 DUP4 ADD ADD MSTORE DUP1 SWAP5 POP POP POP POP POP SWAP3 SWAP2 POP POP JUMP JUMPDEST DUP1 CALLDATALOAD PUSH1 0x1 PUSH1 0x1 PUSH1 0xA0 SHL SUB DUP2 AND DUP2 EQ PUSH2 0xF38 JUMPI PUSH1 0x0 DUP1 REVERT JUMPDEST SWAP2 SWAP1 POP JUMP JUMPDEST PUSH1 0x0 DUP1 PUSH1 0x0 DUP1 PUSH1 0x0 PUSH1 0xA0 DUP7 DUP9 SUB SLT ISZERO PUSH2 0xF55 JUMPI PUSH1 0x0 DUP1 REVERT JUMPDEST DUP6 CALLDATALOAD PUSH8 0xFFFFFFFFFFFFFFFF DUP1 DUP3 GT ISZERO PUSH2 0xF6D JUMPI PUSH1 0x0 DUP1 REVERT JUMPDEST PUSH2 0xF79 DUP10 DUP4 DUP11 ADD PUSH2 0xE94 JUMP JUMPDEST SWAP7 POP PUSH1 0x20 DUP9 ADD CALLDATALOAD SWAP2 POP DUP1 DUP3 GT ISZERO PUSH2 0xF8F JUMPI PUSH1 0x0 DUP1 REVERT JUMPDEST POP PUSH2 0xF9C DUP9 DUP3 DUP10 ADD PUSH2 0xE94 JUMP JUMPDEST SWAP5 POP POP PUSH2 0xFAB PUSH1 0x40 DUP8 ADD PUSH2 0xF21 JUMP JUMPDEST SWAP3 POP PUSH2 0xFB9 PUSH1 0x60 DUP8 ADD PUSH2 0xF21 JUMP JUMPDEST SWAP5 SWAP8 SWAP4 SWAP7 POP SWAP2 SWAP5 PUSH1 0x80 ADD CALLDATALOAD SWAP3 SWAP2 POP POP JUMP JUMPDEST PUSH1 0x0 JUMPDEST DUP4 DUP2 LT ISZERO PUSH2 0xFE5 JUMPI DUP2 DUP2 ADD MLOAD DUP4 DUP3 ADD MSTORE PUSH1 0x20 ADD PUSH2 0xFCD JUMP JUMPDEST POP POP PUSH1 0x0 SWAP2 ADD MSTORE JUMP JUMPDEST PUSH1 0x20 DUP2 MSTORE PUSH1 0x0 DUP3 MLOAD DUP1 PUSH1 0x20 DUP5 ADD MSTORE PUSH2 0x100D DUP2 PUSH1 0x40 DUP6 ADD PUSH1 0x20 DUP8 ADD PUSH2 0xFCA JUMP JUMPDEST PUSH1 0x1F ADD PUSH1 0x1F NOT AND SWAP2 SWAP1 SWAP2 ADD PUSH1 0x40 ADD SWAP3 SWAP2 POP POP JUMP JUMPDEST PUSH1 0x0 DUP2 MLOAD PUSH2 0x1033 DUP2 DUP6 PUSH1 0x20 DUP7 ADD PUSH2 0xFCA JUMP JUMPDEST SWAP3 SWAP1 SWAP3 ADD SWAP3 SWAP2 POP POP JUMP JUMPDEST PUSH14 0x7777772E73756761722E78797A2F PUSH1 0x90 SHL DUP2 MSTORE PUSH1 0x0 DUP4 MLOAD PUSH2 0x1066 DUP2 PUSH1 0xE DUP6 ADD PUSH1 0x20 DUP9 ADD PUSH2 0xFCA JUMP JUMPDEST PUSH1 0x2F PUSH1 0xF8 SHL PUSH1 0xE SWAP2 DUP5 ADD SWAP2 DUP3 ADD MSTORE DUP4 MLOAD PUSH2 0x1087 DUP2 PUSH1 0xF DUP5 ADD PUSH1 0x20 DUP9 ADD PUSH2 0xFCA JUMP JUMPDEST ADD PUSH1 0xF ADD SWAP5 SWAP4 POP POP POP POP JUMP JUMPDEST PUSH9 0x3D913730B6B2911D11 PUSH1 0xB9 SHL DUP2 MSTORE DUP6 MLOAD PUSH1 0x0 SWAP1 PUSH2 0x10B8 DUP2 PUSH1 0x9 DUP6 ADD PUSH1 0x20 DUP12 ADD PUSH2 0xFCA JUMP JUMPDEST PUSH32 0x222C226465736372697074696F6E223A22412066756C6C79206F6E636861696E PUSH1 0x9 SWAP2 DUP5 ADD SWAP2 DUP3 ADD MSTORE PUSH22 0x103837B9BA103CB7BA9031B0B7103932B0B21037B71 PUSH1 0x55 SHL PUSH1 0x29 DUP3 ADD MSTORE DUP7 MLOAD PUSH2 0x1114 DUP2 PUSH1 0x3F DUP5 ADD PUSH1 0x20 DUP12 ADD PUSH2 0xFCA JUMP JUMPDEST PUSH2 0x88B PUSH1 0xF2 SHL PUSH1 0x3F SWAP3 SWAP1 SWAP2 ADD SWAP2 DUP3 ADD MSTORE PUSH10 0x1130BABA3437B9111D11 PUSH1 0xB1 SHL PUSH1 0x41 DUP3 ADD MSTORE PUSH1 0x60 DUP7 SWAP1 SHL PUSH12 0xFFFFFFFFFFFFFFFFFFFFFFFF NOT AND PUSH1 0x4B DUP3 ADD MSTORE PUSH2 0x11CB PUSH2 0x11BD PUSH2 0x11B7 PUSH2 0x11A0 PUSH2 0x1192 PUSH2 0x118C PUSH2 0x1177 PUSH1 0x5F DUP9 ADD PUSH2 0x88B PUSH1 0xF2 SHL DUP2 MSTORE PUSH1 0x2 ADD SWAP1 JUMP JUMPDEST PUSH9 0x1134B6B0B3B2911D11 PUSH1 0xB9 SHL DUP2 MSTORE PUSH1 0x9 ADD SWAP1 JUMP JUMPDEST DUP11 PUSH2 0x1021 JUMP JUMPDEST PUSH2 0x88B PUSH1 0xF2 SHL DUP2 MSTORE PUSH1 0x2 ADD SWAP1 JUMP JUMPDEST PUSH11 0x1131B7B73A32B73A111D11 PUSH1 0xA9 SHL DUP2 MSTORE PUSH1 0xB ADD SWAP1 JUMP JUMPDEST DUP7 PUSH2 0x1021 JUMP JUMPDEST PUSH2 0x227D PUSH1 0xF0 SHL DUP2 MSTORE PUSH1 0x2 ADD SWAP1 JUMP JUMPDEST SWAP9 SWAP8 POP POP POP POP POP POP POP POP JUMP JUMPDEST PUSH32 0x646174613A6170706C69636174696F6E2F6A736F6E3B6261736536342C000000 DUP2 MSTORE PUSH1 0x0 DUP3 MLOAD PUSH2 0x120F DUP2 PUSH1 0x1D DUP6 ADD PUSH1 0x20 DUP8 ADD PUSH2 0xFCA JUMP JUMPDEST SWAP2 SWAP1 SWAP2 ADD PUSH1 0x1D ADD SWAP3 SWAP2 POP POP JUMP JUMPDEST PUSH4 0x4E487B71 PUSH1 0xE0 SHL PUSH1 0x0 MSTORE PUSH1 0x11 PUSH1 0x4 MSTORE PUSH1 0x24 PUSH1 0x0 REVERT JUMPDEST DUP1 DUP3 MUL DUP2 ISZERO DUP3 DUP3 DIV DUP5 EQ OR PUSH2 0x4C9 JUMPI PUSH2 0x4C9 PUSH2 0x121C JUMP JUMPDEST DUP2 DUP2 SUB DUP2 DUP2 GT ISZERO PUSH2 0x4C9 JUMPI PUSH2 0x4C9 PUSH2 0x121C JUMP JUMPDEST PUSH1 0x0 DUP3 PUSH2 0x1279 JUMPI PUSH4 0x4E487B71 PUSH1 0xE0 SHL PUSH1 0x0 MSTORE PUSH1 0x12 PUSH1 0x4 MSTORE PUSH1 0x24 PUSH1 0x0 REVERT JUMPDEST POP DIV SWAP1 JUMP JUMPDEST DUP1 DUP3 ADD DUP1 DUP3 GT ISZERO PUSH2 0x4C9 JUMPI PUSH2 0x4C9 PUSH2 0x121C JUMP JUMPDEST PUSH32 0x3C73766720786D6C6E733D22687474703A2F2F7777772E77332E6F72672F3230 DUP2 MSTORE PUSH15 0x181817B9BB3391103BB4B23A341E91 PUSH1 0x89 SHL PUSH1 0x20 DUP3 ADD MSTORE PUSH1 0x0 DUP8 MLOAD PUSH2 0x12E1 DUP2 PUSH1 0x2F DUP6 ADD PUSH1 0x20 DUP13 ADD PUSH2 0xFCA JUMP JUMPDEST PUSH10 0x11103432B4B3B43A1E91 PUSH1 0xB1 SHL PUSH1 0x2F SWAP2 DUP5 ADD SWAP2 DUP3 ADD MSTORE DUP8 MLOAD PUSH2 0x130B DUP2 PUSH1 0x39 DUP5 ADD PUSH1 0x20 DUP13 ADD PUSH2 0xFCA JUMP JUMPDEST PUSH15 0x11103B34B2BBA137BC1E911810181 PUSH1 0x8D SHL PUSH1 0x39 SWAP3 SWAP1 SWAP2 ADD SWAP2 DUP3 ADD MSTORE DUP7 MLOAD PUSH2 0x133B DUP2 PUSH1 0x48 DUP5 ADD PUSH1 0x20 DUP12 ADD PUSH2 0xFCA JUMP JUMPDEST PUSH1 0x2F DUP2 DUP4 ADD ADD SWAP2 POP POP PUSH1 0x1 PUSH1 0xFD SHL PUSH1 0x19 DUP3 ADD MSTORE PUSH2 0x14AE PUSH2 0x1496 PUSH2 0x11B7 PUSH2 0x1438 PUSH2 0x1427 PUSH2 0x118C PUSH2 0x13C4 PUSH2 0x1381 PUSH2 0x1373 PUSH1 0x1A DUP11 ADD DUP16 PUSH2 0x1021 JUMP JUMPDEST PUSH2 0x111F PUSH1 0xF1 SHL DUP2 MSTORE PUSH1 0x2 ADD SWAP1 JUMP JUMPDEST PUSH32 0x3C726563742077696474683D223130302522206865696768743D223130302522 DUP2 MSTORE PUSH17 0x103334B6361E9111B330B330B31C91179F PUSH1 0x79 SHL PUSH1 0x20 DUP3 ADD MSTORE PUSH1 0x31 ADD SWAP1 JUMP JUMPDEST PUSH32 0x3C7374796C653E2E74657874207B2066696C6C3A20233030303B20666F6E742D DUP2 MSTORE PUSH32 0x66616D696C793A20436F7572696572204E65772C206D6F6E6F73706163653B20 PUSH1 0x20 DUP3 ADD MSTORE PUSH11 0x3337B73A16B9B4BD329D1 PUSH1 0xAD SHL PUSH1 0x40 DUP3 ADD MSTORE PUSH1 0x4B ADD SWAP1 JUMP JUMPDEST PUSH5 0x70783B207D PUSH1 0xD8 SHL DUP2 MSTORE PUSH1 0x5 ADD SWAP1 JUMP JUMPDEST PUSH32 0x2E666F6F746572207B2066696C6C3A20233030303B20666F6E742D66616D696C DUP2 MSTORE PUSH32 0x793A20436F7572696572204E65772C206D6F6E6F73706163653B20666F6E742D PUSH1 0x20 DUP3 ADD MSTORE PUSH6 0x39B4BD329D1 PUSH1 0xD5 SHL PUSH1 0x40 DUP3 ADD MSTORE PUSH1 0x46 ADD SWAP1 JUMP JUMPDEST PUSH12 0x383C1DBE9E17B9BA3CB6329F PUSH1 0xA1 SHL DUP2 MSTORE PUSH1 0xC ADD SWAP1 JUMP JUMPDEST SWAP10 SWAP9 POP POP POP POP POP POP POP POP POP JUMP JUMPDEST PUSH4 0x4E487B71 PUSH1 0xE0 SHL PUSH1 0x0 MSTORE PUSH1 0x32 PUSH1 0x4 MSTORE PUSH1 0x24 PUSH1 0x0 REVERT JUMPDEST PUSH1 0x0 DUP6 MLOAD PUSH2 0x14E3 DUP2 DUP5 PUSH1 0x20 DUP11 ADD PUSH2 0xFCA JUMP JUMPDEST PUSH17 0x1E3A32BC3A103C1E911A981291103C9E91 PUSH1 0x79 SHL SWAP1 DUP4 ADD SWAP1 DUP2 MSTORE DUP6 MLOAD PUSH2 0x1511 DUP2 PUSH1 0x11 DUP5 ADD PUSH1 0x20 DUP11 ADD PUSH2 0xFCA JUMP JUMPDEST PUSH32 0x2220636C6173733D22746578742220746578742D616E63686F723D226D696464 PUSH1 0x11 SWAP3 SWAP1 SWAP2 ADD SWAP2 DUP3 ADD MSTORE PUSH4 0x3632911F PUSH1 0xE1 SHL PUSH1 0x31 DUP3 ADD MSTORE DUP5 MLOAD PUSH2 0x155C DUP2 PUSH1 0x35 DUP5 ADD PUSH1 0x20 DUP10 ADD PUSH2 0xFCA JUMP JUMPDEST PUSH32 0x3C2F746578743E3C7465787420783D223530252220793D220000000000000000 PUSH1 0x35 SWAP3 SWAP1 SWAP2 ADD SWAP2 DUP3 ADD MSTORE DUP4 MLOAD PUSH2 0x159A DUP2 PUSH1 0x4D DUP5 ADD PUSH1 0x20 DUP9 ADD PUSH2 0xFCA JUMP JUMPDEST PUSH32 0x2220636C6173733D22666F6F7465722220746578742D616E63686F723D226D69 SWAP2 ADD PUSH1 0x4D DUP2 ADD SWAP2 SWAP1 SWAP2 MSTORE PUSH6 0x32323632911F PUSH1 0xD1 SHL PUSH1 0x6D DUP3 ADD MSTORE PUSH20 0x2932B0B21034BA1037B71039BAB3B0B9173C3CBD PUSH1 0x61 SHL PUSH1 0x73 DUP3 ADD MSTORE PUSH7 0x1E17BA32BC3A1F PUSH1 0xC9 SHL PUSH1 0x87 DUP3 ADD MSTORE PUSH1 0x8E ADD SWAP7 SWAP6 POP POP POP POP POP POP JUMP JUMPDEST PUSH1 0x0 PUSH1 0x1 DUP3 ADD PUSH2 0x1620 JUMPI PUSH2 0x1620 PUSH2 0x121C JUMP JUMPDEST POP PUSH1 0x1 ADD SWAP1 JUMP JUMPDEST PUSH1 0x0 DUP3 MLOAD PUSH2 0x1639 DUP2 DUP5 PUSH1 0x20 DUP8 ADD PUSH2 0xFCA JUMP JUMPDEST PUSH6 0x1E17B9BB339F PUSH1 0xD1 SHL SWAP3 ADD SWAP2 DUP3 MSTORE POP PUSH1 0x6 ADD SWAP2 SWAP1 POP JUMP JUMPDEST PUSH32 0x646174613A696D6167652F7376672B786D6C3B6261736536342C000000000000 DUP2 MSTORE PUSH1 0x0 DUP3 MLOAD PUSH2 0x1689 DUP2 PUSH1 0x1A DUP6 ADD PUSH1 0x20 DUP8 ADD PUSH2 0xFCA JUMP JUMPDEST SWAP2 SWAP1 SWAP2 ADD PUSH1 0x1A ADD SWAP3 SWAP2 POP POP JUMP JUMPDEST PUSH1 0x0 DUP2 PUSH2 0x16A5 JUMPI PUSH2 0x16A5 PUSH2 0x121C JUMP JUMPDEST POP PUSH1 0x0 NOT ADD SWAP1 JUMP INVALID COINBASE TIMESTAMP NUMBER PREVRANDAO GASLIMIT CHAINID SELFBALANCE BASEFEE 0x49 0x4A 0x4B 0x4C 0x4D 0x4E 0x4F POP MLOAD MSTORE MSTORE8 SLOAD SSTORE JUMP JUMPI PC MSIZE GAS PUSH2 0x6263 PUSH5 0x6566676869 PUSH11 0x6B6C6D6E6F707172737475 PUSH23 0x7778797A303132333435363738392B2FA2646970667358 0x22 SLT KECCAK256 0xD8 XOR 0x5C 0xA5 DUP8 SDIV EXTCODEHASH SWAP7 ISZERO PUSH1 0x9C 0xF 0x4A 0xE8 RETURNDATASIZE 0xC4 0xA7 MSIZE 0xEF PUSH31 0xAD2CBA5DF0D4F0B4A864DCA64736F6C634300081400330000000000000000 "},"methodIdentifiers":{"generateURI(string,string,address,address,uint256)":"6f4f3bae"}},"storageLayout":{"storage":[],"types":null}}}}