{
  "_format": "hh-sol-artifact-1",
  "contractName": "MinimalCollection",
  "sourceName": "contracts/MinimalCollection.sol",
  "abi": [
    {
      "inputs": [],
      "name": "AccessControlBadConfirmation",
      "type": "error"
    },
    {
      "inputs": [
        {
          "internalType": "address",
          "name": "account",
          "type": "address"
        },
        {
          "internalType": "bytes32",
          "name": "neededRole",
          "type": "bytes32"
        }
      ],
      "name": "AccessControlUnauthorizedAccount",
      "type": "error"
    },
    {
      "inputs": [
        {
          "internalType": "address",
          "name": "sender",
          "type": "address"
        },
        {
          "internalType": "uint256",
          "name": "balance",
          "type": "uint256"
        },
        {
          "internalType": "uint256",
          "name": "needed",
          "type": "uint256"
        },
        {
          "internalType": "uint256",
          "name": "tokenId",
          "type": "uint256"
        }
      ],
      "name": "ERC1155InsufficientBalance",
      "type": "error"
    },
    {
      "inputs": [
        {
          "internalType": "address",
          "name": "approver",
          "type": "address"
        }
      ],
      "name": "ERC1155InvalidApprover",
      "type": "error"
    },
    {
      "inputs": [
        {
          "internalType": "uint256",
          "name": "idsLength",
          "type": "uint256"
        },
        {
          "internalType": "uint256",
          "name": "valuesLength",
          "type": "uint256"
        }
      ],
      "name": "ERC1155InvalidArrayLength",
      "type": "error"
    },
    {
      "inputs": [
        {
          "internalType": "address",
          "name": "operator",
          "type": "address"
        }
      ],
      "name": "ERC1155InvalidOperator",
      "type": "error"
    },
    {
      "inputs": [
        {
          "internalType": "address",
          "name": "receiver",
          "type": "address"
        }
      ],
      "name": "ERC1155InvalidReceiver",
      "type": "error"
    },
    {
      "inputs": [
        {
          "internalType": "address",
          "name": "sender",
          "type": "address"
        }
      ],
      "name": "ERC1155InvalidSender",
      "type": "error"
    },
    {
      "inputs": [
        {
          "internalType": "address",
          "name": "operator",
          "type": "address"
        },
        {
          "internalType": "address",
          "name": "owner",
          "type": "address"
        }
      ],
      "name": "ERC1155MissingApprovalForAll",
      "type": "error"
    },
    {
      "inputs": [],
      "name": "InsufficientBalance",
      "type": "error"
    },
    {
      "inputs": [],
      "name": "InvalidInitialization",
      "type": "error"
    },
    {
      "inputs": [],
      "name": "InvalidTokenId",
      "type": "error"
    },
    {
      "inputs": [],
      "name": "MaxSupplyReached",
      "type": "error"
    },
    {
      "inputs": [],
      "name": "NotInitializing",
      "type": "error"
    },
    {
      "inputs": [],
      "name": "ReentrancyGuardReentrantCall",
      "type": "error"
    },
    {
      "inputs": [],
      "name": "URIAlreadySet",
      "type": "error"
    },
    {
      "anonymous": false,
      "inputs": [
        {
          "indexed": true,
          "internalType": "address",
          "name": "account",
          "type": "address"
        },
        {
          "indexed": true,
          "internalType": "address",
          "name": "operator",
          "type": "address"
        },
        {
          "indexed": false,
          "internalType": "bool",
          "name": "approved",
          "type": "bool"
        }
      ],
      "name": "ApprovalForAll",
      "type": "event"
    },
    {
      "anonymous": false,
      "inputs": [
        {
          "indexed": false,
          "internalType": "string",
          "name": "newUri",
          "type": "string"
        }
      ],
      "name": "ContractURIUpdated",
      "type": "event"
    },
    {
      "anonymous": false,
      "inputs": [
        {
          "indexed": false,
          "internalType": "uint64",
          "name": "version",
          "type": "uint64"
        }
      ],
      "name": "Initialized",
      "type": "event"
    },
    {
      "anonymous": false,
      "inputs": [
        {
          "indexed": true,
          "internalType": "address",
          "name": "account",
          "type": "address"
        },
        {
          "indexed": true,
          "internalType": "uint256",
          "name": "id",
          "type": "uint256"
        },
        {
          "indexed": false,
          "internalType": "uint256",
          "name": "amount",
          "type": "uint256"
        }
      ],
      "name": "NewVersoCollected",
      "type": "event"
    },
    {
      "anonymous": false,
      "inputs": [
        {
          "indexed": true,
          "internalType": "address",
          "name": "account",
          "type": "address"
        },
        {
          "indexed": true,
          "internalType": "uint256",
          "name": "id",
          "type": "uint256"
        },
        {
          "indexed": false,
          "internalType": "string",
          "name": "metadataURI",
          "type": "string"
        }
      ],
      "name": "NewVersoCreated",
      "type": "event"
    },
    {
      "anonymous": false,
      "inputs": [
        {
          "indexed": true,
          "internalType": "bytes32",
          "name": "role",
          "type": "bytes32"
        },
        {
          "indexed": true,
          "internalType": "bytes32",
          "name": "previousAdminRole",
          "type": "bytes32"
        },
        {
          "indexed": true,
          "internalType": "bytes32",
          "name": "newAdminRole",
          "type": "bytes32"
        }
      ],
      "name": "RoleAdminChanged",
      "type": "event"
    },
    {
      "anonymous": false,
      "inputs": [
        {
          "indexed": true,
          "internalType": "bytes32",
          "name": "role",
          "type": "bytes32"
        },
        {
          "indexed": true,
          "internalType": "address",
          "name": "account",
          "type": "address"
        },
        {
          "indexed": true,
          "internalType": "address",
          "name": "sender",
          "type": "address"
        }
      ],
      "name": "RoleGranted",
      "type": "event"
    },
    {
      "anonymous": false,
      "inputs": [
        {
          "indexed": true,
          "internalType": "bytes32",
          "name": "role",
          "type": "bytes32"
        },
        {
          "indexed": true,
          "internalType": "address",
          "name": "account",
          "type": "address"
        },
        {
          "indexed": true,
          "internalType": "address",
          "name": "sender",
          "type": "address"
        }
      ],
      "name": "RoleRevoked",
      "type": "event"
    },
    {
      "anonymous": false,
      "inputs": [
        {
          "indexed": true,
          "internalType": "address",
          "name": "operator",
          "type": "address"
        },
        {
          "indexed": true,
          "internalType": "address",
          "name": "from",
          "type": "address"
        },
        {
          "indexed": true,
          "internalType": "address",
          "name": "to",
          "type": "address"
        },
        {
          "indexed": false,
          "internalType": "uint256[]",
          "name": "ids",
          "type": "uint256[]"
        },
        {
          "indexed": false,
          "internalType": "uint256[]",
          "name": "values",
          "type": "uint256[]"
        }
      ],
      "name": "TransferBatch",
      "type": "event"
    },
    {
      "anonymous": false,
      "inputs": [
        {
          "indexed": true,
          "internalType": "address",
          "name": "operator",
          "type": "address"
        },
        {
          "indexed": true,
          "internalType": "address",
          "name": "from",
          "type": "address"
        },
        {
          "indexed": true,
          "internalType": "address",
          "name": "to",
          "type": "address"
        },
        {
          "indexed": false,
          "internalType": "uint256",
          "name": "id",
          "type": "uint256"
        },
        {
          "indexed": false,
          "internalType": "uint256",
          "name": "value",
          "type": "uint256"
        }
      ],
      "name": "TransferSingle",
      "type": "event"
    },
    {
      "anonymous": false,
      "inputs": [
        {
          "indexed": false,
          "internalType": "string",
          "name": "value",
          "type": "string"
        },
        {
          "indexed": true,
          "internalType": "uint256",
          "name": "id",
          "type": "uint256"
        }
      ],
      "name": "URI",
      "type": "event"
    },
    {
      "anonymous": false,
      "inputs": [
        {
          "indexed": true,
          "internalType": "uint256",
          "name": "tokenId",
          "type": "uint256"
        },
        {
          "indexed": false,
          "internalType": "string",
          "name": "newUri",
          "type": "string"
        }
      ],
      "name": "URIUpdated",
      "type": "event"
    },
    {
      "anonymous": false,
      "inputs": [
        {
          "indexed": true,
          "internalType": "address",
          "name": "moderator",
          "type": "address"
        },
        {
          "indexed": true,
          "internalType": "uint256",
          "name": "tokenId",
          "type": "uint256"
        }
      ],
      "name": "VersoDeleted",
      "type": "event"
    },
    {
      "inputs": [],
      "name": "DEFAULT_ADMIN_ROLE",
      "outputs": [
        {
          "internalType": "bytes32",
          "name": "",
          "type": "bytes32"
        }
      ],
      "stateMutability": "view",
      "type": "function"
    },
    {
      "inputs": [],
      "name": "MAX_SUPPLY",
      "outputs": [
        {
          "internalType": "uint256",
          "name": "",
          "type": "uint256"
        }
      ],
      "stateMutability": "view",
      "type": "function"
    },
    {
      "inputs": [],
      "name": "MODERATOR_ROLE",
      "outputs": [
        {
          "internalType": "bytes32",
          "name": "",
          "type": "bytes32"
        }
      ],
      "stateMutability": "view",
      "type": "function"
    },
    {
      "inputs": [
        {
          "internalType": "address",
          "name": "account",
          "type": "address"
        },
        {
          "internalType": "uint256",
          "name": "id",
          "type": "uint256"
        }
      ],
      "name": "balanceOf",
      "outputs": [
        {
          "internalType": "uint256",
          "name": "",
          "type": "uint256"
        }
      ],
      "stateMutability": "view",
      "type": "function"
    },
    {
      "inputs": [
        {
          "internalType": "address[]",
          "name": "accounts",
          "type": "address[]"
        },
        {
          "internalType": "uint256[]",
          "name": "ids",
          "type": "uint256[]"
        }
      ],
      "name": "balanceOfBatch",
      "outputs": [
        {
          "internalType": "uint256[]",
          "name": "",
          "type": "uint256[]"
        }
      ],
      "stateMutability": "view",
      "type": "function"
    },
    {
      "inputs": [
        {
          "internalType": "uint256",
          "name": "tokenId",
          "type": "uint256"
        },
        {
          "internalType": "uint256",
          "name": "amount",
          "type": "uint256"
        }
      ],
      "name": "burn",
      "outputs": [],
      "stateMutability": "nonpayable",
      "type": "function"
    },
    {
      "inputs": [
        {
          "internalType": "uint256",
          "name": "id",
          "type": "uint256"
        },
        {
          "internalType": "uint256",
          "name": "amount",
          "type": "uint256"
        },
        {
          "internalType": "address",
          "name": "recipient",
          "type": "address"
        },
        {
          "internalType": "address",
          "name": "referer",
          "type": "address"
        },
        {
          "internalType": "address",
          "name": "markerAddress",
          "type": "address"
        }
      ],
      "name": "collect",
      "outputs": [],
      "stateMutability": "payable",
      "type": "function"
    },
    {
      "inputs": [
        {
          "internalType": "uint256",
          "name": "",
          "type": "uint256"
        }
      ],
      "name": "content",
      "outputs": [
        {
          "internalType": "string",
          "name": "",
          "type": "string"
        }
      ],
      "stateMutability": "view",
      "type": "function"
    },
    {
      "inputs": [],
      "name": "contractURI",
      "outputs": [
        {
          "internalType": "string",
          "name": "",
          "type": "string"
        }
      ],
      "stateMutability": "view",
      "type": "function"
    },
    {
      "inputs": [
        {
          "internalType": "string",
          "name": "_title",
          "type": "string"
        },
        {
          "internalType": "string",
          "name": "_content",
          "type": "string"
        },
        {
          "internalType": "address",
          "name": "_recipient",
          "type": "address"
        },
        {
          "internalType": "bool",
          "name": "_isGated",
          "type": "bool"
        }
      ],
      "name": "create",
      "outputs": [],
      "stateMutability": "nonpayable",
      "type": "function"
    },
    {
      "inputs": [
        {
          "internalType": "uint256",
          "name": "",
          "type": "uint256"
        }
      ],
      "name": "createdAt",
      "outputs": [
        {
          "internalType": "uint256",
          "name": "",
          "type": "uint256"
        }
      ],
      "stateMutability": "view",
      "type": "function"
    },
    {
      "inputs": [
        {
          "internalType": "uint256",
          "name": "",
          "type": "uint256"
        }
      ],
      "name": "creator",
      "outputs": [
        {
          "internalType": "address",
          "name": "",
          "type": "address"
        }
      ],
      "stateMutability": "view",
      "type": "function"
    },
    {
      "inputs": [],
      "name": "factory",
      "outputs": [
        {
          "internalType": "address",
          "name": "",
          "type": "address"
        }
      ],
      "stateMutability": "view",
      "type": "function"
    },
    {
      "inputs": [
        {
          "internalType": "bytes32",
          "name": "role",
          "type": "bytes32"
        }
      ],
      "name": "getRoleAdmin",
      "outputs": [
        {
          "internalType": "bytes32",
          "name": "",
          "type": "bytes32"
        }
      ],
      "stateMutability": "view",
      "type": "function"
    },
    {
      "inputs": [
        {
          "internalType": "bytes32",
          "name": "role",
          "type": "bytes32"
        },
        {
          "internalType": "address",
          "name": "account",
          "type": "address"
        }
      ],
      "name": "grantRole",
      "outputs": [],
      "stateMutability": "nonpayable",
      "type": "function"
    },
    {
      "inputs": [
        {
          "internalType": "bytes32",
          "name": "role",
          "type": "bytes32"
        },
        {
          "internalType": "address",
          "name": "account",
          "type": "address"
        }
      ],
      "name": "hasRole",
      "outputs": [
        {
          "internalType": "bool",
          "name": "",
          "type": "bool"
        }
      ],
      "stateMutability": "view",
      "type": "function"
    },
    {
      "inputs": [
        {
          "internalType": "string",
          "name": "_name",
          "type": "string"
        },
        {
          "internalType": "string",
          "name": "_contractURI",
          "type": "string"
        },
        {
          "internalType": "address",
          "name": "_owner",
          "type": "address"
        }
      ],
      "name": "initialize",
      "outputs": [],
      "stateMutability": "nonpayable",
      "type": "function"
    },
    {
      "inputs": [
        {
          "internalType": "address",
          "name": "account",
          "type": "address"
        },
        {
          "internalType": "address",
          "name": "operator",
          "type": "address"
        }
      ],
      "name": "isApprovedForAll",
      "outputs": [
        {
          "internalType": "bool",
          "name": "",
          "type": "bool"
        }
      ],
      "stateMutability": "view",
      "type": "function"
    },
    {
      "inputs": [
        {
          "internalType": "uint256",
          "name": "",
          "type": "uint256"
        }
      ],
      "name": "isGated",
      "outputs": [
        {
          "internalType": "bool",
          "name": "",
          "type": "bool"
        }
      ],
      "stateMutability": "view",
      "type": "function"
    },
    {
      "inputs": [],
      "name": "name",
      "outputs": [
        {
          "internalType": "string",
          "name": "",
          "type": "string"
        }
      ],
      "stateMutability": "view",
      "type": "function"
    },
    {
      "inputs": [
        {
          "internalType": "bytes32",
          "name": "role",
          "type": "bytes32"
        },
        {
          "internalType": "address",
          "name": "callerConfirmation",
          "type": "address"
        }
      ],
      "name": "renounceRole",
      "outputs": [],
      "stateMutability": "nonpayable",
      "type": "function"
    },
    {
      "inputs": [
        {
          "internalType": "bytes32",
          "name": "role",
          "type": "bytes32"
        },
        {
          "internalType": "address",
          "name": "account",
          "type": "address"
        }
      ],
      "name": "revokeRole",
      "outputs": [],
      "stateMutability": "nonpayable",
      "type": "function"
    },
    {
      "inputs": [
        {
          "internalType": "address",
          "name": "from",
          "type": "address"
        },
        {
          "internalType": "address",
          "name": "to",
          "type": "address"
        },
        {
          "internalType": "uint256[]",
          "name": "ids",
          "type": "uint256[]"
        },
        {
          "internalType": "uint256[]",
          "name": "values",
          "type": "uint256[]"
        },
        {
          "internalType": "bytes",
          "name": "data",
          "type": "bytes"
        }
      ],
      "name": "safeBatchTransferFrom",
      "outputs": [],
      "stateMutability": "nonpayable",
      "type": "function"
    },
    {
      "inputs": [
        {
          "internalType": "address",
          "name": "from",
          "type": "address"
        },
        {
          "internalType": "address",
          "name": "to",
          "type": "address"
        },
        {
          "internalType": "uint256",
          "name": "id",
          "type": "uint256"
        },
        {
          "internalType": "uint256",
          "name": "value",
          "type": "uint256"
        },
        {
          "internalType": "bytes",
          "name": "data",
          "type": "bytes"
        }
      ],
      "name": "safeTransferFrom",
      "outputs": [],
      "stateMutability": "nonpayable",
      "type": "function"
    },
    {
      "inputs": [
        {
          "internalType": "address",
          "name": "operator",
          "type": "address"
        },
        {
          "internalType": "bool",
          "name": "approved",
          "type": "bool"
        }
      ],
      "name": "setApprovalForAll",
      "outputs": [],
      "stateMutability": "nonpayable",
      "type": "function"
    },
    {
      "inputs": [
        {
          "internalType": "string",
          "name": "_contractURI",
          "type": "string"
        }
      ],
      "name": "setContractURI",
      "outputs": [],
      "stateMutability": "nonpayable",
      "type": "function"
    },
    {
      "inputs": [
        {
          "internalType": "bytes4",
          "name": "interfaceId",
          "type": "bytes4"
        }
      ],
      "name": "supportsInterface",
      "outputs": [
        {
          "internalType": "bool",
          "name": "",
          "type": "bool"
        }
      ],
      "stateMutability": "view",
      "type": "function"
    },
    {
      "inputs": [
        {
          "internalType": "uint256",
          "name": "",
          "type": "uint256"
        }
      ],
      "name": "titles",
      "outputs": [
        {
          "internalType": "string",
          "name": "",
          "type": "string"
        }
      ],
      "stateMutability": "view",
      "type": "function"
    },
    {
      "inputs": [
        {
          "internalType": "uint256",
          "name": "",
          "type": "uint256"
        }
      ],
      "name": "tokenSupply",
      "outputs": [
        {
          "internalType": "uint256",
          "name": "",
          "type": "uint256"
        }
      ],
      "stateMutability": "view",
      "type": "function"
    },
    {
      "inputs": [
        {
          "internalType": "uint256",
          "name": "tokenId",
          "type": "uint256"
        },
        {
          "internalType": "string",
          "name": "newContent",
          "type": "string"
        }
      ],
      "name": "updateContent",
      "outputs": [],
      "stateMutability": "nonpayable",
      "type": "function"
    },
    {
      "inputs": [
        {
          "internalType": "uint256",
          "name": "tokenId",
          "type": "uint256"
        }
      ],
      "name": "uri",
      "outputs": [
        {
          "internalType": "string",
          "name": "",
          "type": "string"
        }
      ],
      "stateMutability": "view",
      "type": "function"
    },
    {
      "inputs": [],
      "name": "version",
      "outputs": [
        {
          "internalType": "uint256",
          "name": "",
          "type": "uint256"
        }
      ],
      "stateMutability": "view",
      "type": "function"
    }
  ],
  "bytecode": "0x608060405234801561001057600080fd5b5061294e806100206000396000f3fe6080604052600436106101e25760003560e01c8063510b515811610102578063b390c0ab11610095578063da2277c311610064578063da2277c3146105c8578063e8a3d485146105e8578063e985e9c5146105fd578063f242432a1461061d57600080fd5b8063b390c0ab14610548578063baa0b80614610568578063c45a015514610588578063d547741f146105a857600080fd5b806391d14854116100d157806391d14854146104d3578063938e3d7b146104f3578063a217fddf14610513578063a22cb4651461052857600080fd5b8063510b51581461041e57806354fd4d501461046c5780637031227214610481578063797669c9146104b157600080fd5b80632693ebf21161017a57806332cb6b0c1161014957806332cb6b0c1461038e57806336568abe146103a45780634e1273f4146103c457806350a1676e146103f157600080fd5b80632693ebf2146103015780632cda1bf71461032e5780632eb2c2d61461034e5780632f2ff15d1461036e57600080fd5b80630e89341c116101b65780630e89341c1461028e5780631b0ff732146102ae578063248a9ca3146102c157806325612dc6146102e157600080fd5b8062fdd58e146101e757806301ffc9a71461021a57806306fdde031461024a578063077f224a1461026c575b600080fd5b3480156101f357600080fd5b50610207610202366004611c84565b61063d565b6040519081526020015b60405180910390f35b34801561022657600080fd5b5061023a610235366004611cc4565b610674565b6040519015158152602001610211565b34801561025657600080fd5b5061025f61067f565b6040516102119190611d38565b34801561027857600080fd5b5061028c610287366004611e0e565b61070d565b005b34801561029a57600080fd5b5061025f6102a9366004611e81565b610886565b61028c6102bc366004611e9a565b610958565b3480156102cd57600080fd5b506102076102dc366004611e81565b610af4565b3480156102ed57600080fd5b5061028c6102fc366004611ef1565b610b16565b34801561030d57600080fd5b5061020761031c366004611e81565b60056020526000908152604090205481565b34801561033a57600080fd5b5061025f610349366004611e81565b610c61565b34801561035a57600080fd5b5061028c610369366004611fc0565b610c7a565b34801561037a57600080fd5b5061028c610389366004612069565b610ce1565b34801561039a57600080fd5b5061020760001981565b3480156103b057600080fd5b5061028c6103bf366004612069565b610d03565b3480156103d057600080fd5b506103e46103df366004612095565b610d36565b6040516102119190612185565b3480156103fd57600080fd5b5061020761040c366004611e81565b60096020526000908152604090205481565b34801561042a57600080fd5b50610454610439366004611e81565b6006602052600090815260409020546001600160a01b031681565b6040516001600160a01b039091168152602001610211565b34801561047857600080fd5b50610207600181565b34801561048d57600080fd5b5061023a61049c366004611e81565b600a6020526000908152604090205460ff1681565b3480156104bd57600080fd5b506102076000805160206128b983398151915281565b3480156104df57600080fd5b5061023a6104ee366004612069565b610e0a565b3480156104ff57600080fd5b5061028c61050e3660046121e0565b610e42565b34801561051f57600080fd5b50610207600081565b34801561053457600080fd5b5061028c610543366004612231565b610e99565b34801561055457600080fd5b5061028c61056336600461225b565b610ea8565b34801561057457600080fd5b5061025f610583366004611e81565b610f30565b34801561059457600080fd5b50600254610454906001600160a01b031681565b3480156105b457600080fd5b5061028c6105c3366004612069565b610f49565b3480156105d457600080fd5b5061028c6105e336600461227d565b610f65565b3480156105f457600080fd5b5061025f611196565b34801561060957600080fd5b5061023a61061836600461230c565b6111a3565b34801561062957600080fd5b5061028c610638366004612336565b6111f0565b60008181526000805160206128d9833981519152602090815260408083206001600160a01b03861684529091529020545b92915050565b600061066e8261124f565b6000805461068c9061239a565b80601f01602080910402602001604051908101604052809291908181526020018280546106b89061239a565b80156107055780601f106106da57610100808354040283529160200191610705565b820191906000526020600020905b8154815290600101906020018083116106e857829003601f168201915b505050505081565b7ff0c57e16840df040f15088dc2f81fe391c3923bec73e23a9662efc9c229c6a008054600160401b810460ff1615906001600160401b03166000811580156107525750825b90506000826001600160401b0316600114801561076e5750303b155b90508115801561077c575080155b1561079a5760405163f92ee8a960e01b815260040160405180910390fd5b845467ffffffffffffffff1916600117855583156107c457845460ff60401b1916600160401b1785555b60006107d0898261241a565b5060016107dd888261241a565b50600280546001600160a01b031916331790556107fb600087611274565b506108146000805160206128b983398151915287611274565b5061082d6000805160206128b983398151915280611319565b6108368861137c565b831561087c57845460ff60401b19168555604051600181527fc7f505b2f371ae2175ee4913f4499e1f2633a7b5936321eed1cdaeb6115181d29060200160405180910390a15b5050505050505050565b60606003548210156108ab576040516307ed98ed60e31b815260040160405180910390fd5b6000828152600760209081526040808320600883528184206006909352928190205490516337a79dd760e11b815273__$f37c90629f783763d8e9829d71a66e1f07$__93636f4f3bae9361091393919290916001600160a01b03169030908990600401612556565b600060405180830381865af4158015610930573d6000803e3d6000fd5b505050506040513d6000823e601f3d908101601f1916820160405261066e91908101906125a0565b610960611390565b60035485118061096e575084155b1561098c576040516307ed98ed60e31b815260040160405180910390fd5b600085815260056020526040902054600019906109aa90869061262c565b11156109c95760405163d05cb60960e01b815260040160405180910390fd5b600085815260066020526040908190205490516303bb81cf60e41b8152600481018690526001600160a01b038481166024830152918216604482015290821690633bb81cf09034906064016000604051808303818588803b158015610a2d57600080fd5b505af1158015610a41573d6000803e3d6000fd5b5050505050610a61838686604051806020016040528060008152506113da565b60008581526005602052604081208054869290610a7f90849061262c565b909155505060405184815285906001600160a01b038516907fdf4f6e4a817a72fdfa4aabf019d010a526bf56f1e982ff04b04240b1b10412ba9060200160405180910390a3610aed60017f9b779b17422d0df92223018b32b4d1fa46e071723d6817e2486d003becc55f0055565b5050505050565b60009081526000805160206128f9833981519152602052604090206001015490565b6003548210610b635760405162461bcd60e51b8152602060048201526014602482015273151bdad95b88191bd95cc81b9bdd08195e1a5cdd60621b60448201526064015b60405180910390fd5b6000828152600660205260409020546001600160a01b03163314610bd95760405162461bcd60e51b815260206004820152602760248201527f4f6e6c79207468652063726561746f722063616e20757064617465207468652060448201526618dbdb9d195b9d60ca1b6064820152608401610b5a565b600082815260096020526040902054610bf5906202a30061262c565b421115610c445760405162461bcd60e51b815260206004820152601960248201527f5570646174652077696e646f77206861732065787069726564000000000000006044820152606401610b5a565b6000828152600860205260409020610c5c828261241a565b505050565b6007602052600090815260409020805461068c9061239a565b336001600160a01b0386168114801590610c9b5750610c9986826111a3565b155b15610ccc5760405163711bec9160e11b81526001600160a01b03808316600483015287166024820152604401610b5a565b610cd98686868686611437565b505050505050565b610cea82610af4565b610cf381611497565b610cfd8383611274565b50505050565b6001600160a01b0381163314610d2c5760405163334bd91960e11b815260040160405180910390fd5b610c5c82826114a1565b60608151835114610d675781518351604051635b05999160e01b815260048101929092526024820152604401610b5a565b600083516001600160401b03811115610d8257610d82611d4b565b604051908082528060200260200182016040528015610dab578160200160208202803683370190505b50905060005b8451811015610e0257602080820286010151610dd59060208084028701015161063d565b828281518110610de757610de761263f565b6020908102919091010152610dfb81612655565b9050610db1565b509392505050565b60009182526000805160206128f9833981519152602090815260408084206001600160a01b0393909316845291905290205460ff1690565b6000610e4d81611497565b6001610e5a83858361266e565b507f905d981207a7d0b6c62cc46ab0be2a076d0298e4a86d0ab79882dbd01ac373788383604051610e8c929190612756565b60405180910390a1505050565b610ea433838361151d565b5050565b610eb0611390565b80610ebb338461063d565b1015610eda57604051631e9acf1760e31b815260040160405180910390fd5b610ee53383836115c5565b60008281526005602052604081208054839290610f03908490612772565b909155505060017f9b779b17422d0df92223018b32b4d1fa46e071723d6817e2486d003becc55f00555050565b6008602052600090815260409020805461068c9061239a565b610f5282610af4565b610f5b81611497565b610cfd83836114a1565b610f7d6000805160206128b983398151915233610e0a565b80610f9257506002546001600160a01b031633145b610fde5760405162461bcd60e51b815260206004820152601760248201527f4f6e6c79206d6f64657261746f727320616c6c6f7765640000000000000000006044820152606401610b5a565b600019600354106110025760405163d05cb60960e01b815260040160405180910390fd5b6003805490600061101283612655565b90915550506003546000818152600560209081526040808320600190556006825280832080546001600160a01b0319166001600160a01b0388161790556007909152902061106187898361266e565b50600081815260086020526040902061107b85878361266e565b506000818152600960209081526040808320429055600a8252808320805460ff1916861515179055805191820190529081526110bd90849083906001906113da565b6040516337a79dd760e11b815260009073__$f37c90629f783763d8e9829d71a66e1f07$__90636f4f3bae90611103908b908b908b908b90339030908b90600401612785565b600060405180830381865af4158015611120573d6000803e3d6000fd5b505050506040513d6000823e601f3d908101601f1916820160405261114891908101906125a0565b905081846001600160a01b03167f11735e3d32cc7fd5948b57908c9899255e84fa5551a1dae523725d7717b82467836040516111849190611d38565b60405180910390a35050505050505050565b6001805461068c9061239a565b6001600160a01b0391821660009081527f88be536d5240c274a3b1d3a1be54482fd9caa294f08c62a7cde569f49a3c45016020908152604080832093909416825291909152205460ff1690565b336001600160a01b0386168114801590611211575061120f86826111a3565b155b156112425760405163711bec9160e11b81526001600160a01b03808316600483015287166024820152604401610b5a565b610cd9868686868661162d565b60006001600160e01b03198216637965db0b60e01b148061066e575061066e826116bb565b60006000805160206128f983398151915261128f8484610e0a565b61130f576000848152602082815260408083206001600160a01b03871684529091529020805460ff191660011790556112c53390565b6001600160a01b0316836001600160a01b0316857f2f8788117e7eff1d82e926ec794901d17c78024a50270940304540a733656f0d60405160405180910390a4600191505061066e565b600091505061066e565b6000805160206128f9833981519152600061133384610af4565b600085815260208490526040808220600101869055519192508491839187917fbd79b86ffe0ab8e8776151514217cd7cacd52c909f66475c3af44e129f0b00ff9190a450505050565b61138461170b565b61138d81611756565b50565b7f9b779b17422d0df92223018b32b4d1fa46e071723d6817e2486d003becc55f008054600119016113d457604051633ee5aeb560e01b815260040160405180910390fd5b60029055565b6001600160a01b03841661140457604051632bfa23e760e11b815260006004820152602401610b5a565b60408051600180825260208201869052818301908152606082018590526080820190925290610cd9600087848487611767565b6001600160a01b03841661146157604051632bfa23e760e11b815260006004820152602401610b5a565b6001600160a01b03851661148a57604051626a0d4560e21b815260006004820152602401610b5a565b610aed8585858585611767565b61138d81336117ba565b60006000805160206128f98339815191526114bc8484610e0a565b1561130f576000848152602082815260408083206001600160a01b0387168085529252808320805460ff1916905551339287917ff6391f5c32d9c69d2a47ea670b442974b53935d1edc7fd64eb21e047a839171b9190a4600191505061066e565b6000805160206128d98339815191526001600160a01b0383166115555760405162ced3e160e81b815260006004820152602401610b5a565b6001600160a01b038481166000818152600184016020908152604080832094881680845294825291829020805460ff191687151590811790915591519182527f17307eab39ab6107e8899845ad3d59bd9653f200f220920489ca2b5937696c31910160405180910390a350505050565b6001600160a01b0383166115ee57604051626a0d4560e21b815260006004820152602401610b5a565b604080516001808252602082018590528183019081526060820184905260a08201909252600060808201818152919291610aed91879185908590611767565b6001600160a01b03841661165757604051632bfa23e760e11b815260006004820152602401610b5a565b6001600160a01b03851661168057604051626a0d4560e21b815260006004820152602401610b5a565b604080516001808252602082018690528183019081526060820185905260808201909252906116b28787848487611767565b50505050505050565b60006001600160e01b03198216636cdb3d1360e11b14806116ec57506001600160e01b031982166303a24d0760e21b145b8061066e57506301ffc9a760e01b6001600160e01b031983161461066e565b7ff0c57e16840df040f15088dc2f81fe391c3923bec73e23a9662efc9c229c6a0054600160401b900460ff1661175457604051631afcd79f60e31b815260040160405180910390fd5b565b61175e61170b565b61138d816117f3565b6117738585858561182d565b6001600160a01b03841615610aed57825133906001036117ac57602084810151908401516117a5838989858589611a5b565b5050610cd9565b610cd9818787878787611b7f565b6117c48282610e0a565b610ea45760405163e2517d3f60e01b81526001600160a01b038216600482015260248101839052604401610b5a565b6000805160206128d98339815191527f88be536d5240c274a3b1d3a1be54482fd9caa294f08c62a7cde569f49a3c4502610c5c838261241a565b805182516000805160206128d9833981519152911461186c5782518251604051635b05999160e01b815260048101929092526024820152604401610b5a565b3360005b845181101561197b576020818102868101820151908601909101516001600160a01b03891615611923576000828152602086815260408083206001600160a01b038d168452909152902054818110156118fc576040516303dee4c560e01b81526001600160a01b038b166004820152602481018290526044810183905260648101849052608401610b5a565b6000838152602087815260408083206001600160a01b038e16845290915290209082900390555b6001600160a01b03881615611968576000828152602086815260408083206001600160a01b038c1684529091528120805483929061196290849061262c565b90915550505b50508061197490612655565b9050611870565b5083516001036119fc5760208401516000906020850151909150866001600160a01b0316886001600160a01b0316846001600160a01b03167fc3d58168c5ae7397731d063d5bbf3d657854427343f4c083240f7aacaa2d0f6285856040516119ed929190918252602082015260400190565b60405180910390a45050610cd9565b846001600160a01b0316866001600160a01b0316826001600160a01b03167f4a39dc06d4c0dbc64b70af90fd698a233a518aa5d07e595d983b8c0526c8f7fb8787604051611a4b9291906127d3565b60405180910390a4505050505050565b6001600160a01b0384163b15610cd95760405163f23a6e6160e01b81526001600160a01b0385169063f23a6e6190611a9f90899089908890889088906004016127f8565b6020604051808303816000875af1925050508015611ada575060408051601f3d908101601f19168201909252611ad79181019061283d565b60015b611b43573d808015611b08576040519150601f19603f3d011682016040523d82523d6000602084013e611b0d565b606091505b508051600003611b3b57604051632bfa23e760e11b81526001600160a01b0386166004820152602401610b5a565b805181602001fd5b6001600160e01b0319811663f23a6e6160e01b146116b257604051632bfa23e760e11b81526001600160a01b0386166004820152602401610b5a565b6001600160a01b0384163b15610cd95760405163bc197c8160e01b81526001600160a01b0385169063bc197c8190611bc3908990899088908890889060040161285a565b6020604051808303816000875af1925050508015611bfe575060408051601f3d908101601f19168201909252611bfb9181019061283d565b60015b611c2c573d808015611b08576040519150601f19603f3d011682016040523d82523d6000602084013e611b0d565b6001600160e01b0319811663bc197c8160e01b146116b257604051632bfa23e760e11b81526001600160a01b0386166004820152602401610b5a565b80356001600160a01b0381168114611c7f57600080fd5b919050565b60008060408385031215611c9757600080fd5b611ca083611c68565b946020939093013593505050565b6001600160e01b03198116811461138d57600080fd5b600060208284031215611cd657600080fd5b8135611ce181611cae565b9392505050565b60005b83811015611d03578181015183820152602001611ceb565b50506000910152565b60008151808452611d24816020860160208601611ce8565b601f01601f19169290920160200192915050565b602081526000611ce16020830184611d0c565b634e487b7160e01b600052604160045260246000fd5b604051601f8201601f191681016001600160401b0381118282101715611d8957611d89611d4b565b604052919050565b60006001600160401b03821115611daa57611daa611d4b565b50601f01601f191660200190565b600082601f830112611dc957600080fd5b8135611ddc611dd782611d91565b611d61565b818152846020838601011115611df157600080fd5b816020850160208301376000918101602001919091529392505050565b600080600060608486031215611e2357600080fd5b83356001600160401b0380821115611e3a57600080fd5b611e4687838801611db8565b94506020860135915080821115611e5c57600080fd5b50611e6986828701611db8565b925050611e7860408501611c68565b90509250925092565b600060208284031215611e9357600080fd5b5035919050565b600080600080600060a08688031215611eb257600080fd5b8535945060208601359350611ec960408701611c68565b9250611ed760608701611c68565b9150611ee560808701611c68565b90509295509295909350565b60008060408385031215611f0457600080fd5b8235915060208301356001600160401b03811115611f2157600080fd5b611f2d85828601611db8565b9150509250929050565b60006001600160401b03821115611f5057611f50611d4b565b5060051b60200190565b600082601f830112611f6b57600080fd5b81356020611f7b611dd783611f37565b82815260059290921b84018101918181019086841115611f9a57600080fd5b8286015b84811015611fb55780358352918301918301611f9e565b509695505050505050565b600080600080600060a08688031215611fd857600080fd5b611fe186611c68565b9450611fef60208701611c68565b935060408601356001600160401b038082111561200b57600080fd5b61201789838a01611f5a565b9450606088013591508082111561202d57600080fd5b61203989838a01611f5a565b9350608088013591508082111561204f57600080fd5b5061205c88828901611db8565b9150509295509295909350565b6000806040838503121561207c57600080fd5b8235915061208c60208401611c68565b90509250929050565b600080604083850312156120a857600080fd5b82356001600160401b03808211156120bf57600080fd5b818501915085601f8301126120d357600080fd5b813560206120e3611dd783611f37565b82815260059290921b8401810191818101908984111561210257600080fd5b948201945b838610156121275761211886611c68565b82529482019490820190612107565b9650508601359250508082111561213d57600080fd5b50611f2d85828601611f5a565b600081518084526020808501945080840160005b8381101561217a5781518752958201959082019060010161215e565b509495945050505050565b602081526000611ce1602083018461214a565b60008083601f8401126121aa57600080fd5b5081356001600160401b038111156121c157600080fd5b6020830191508360208285010111156121d957600080fd5b9250929050565b600080602083850312156121f357600080fd5b82356001600160401b0381111561220957600080fd5b61221585828601612198565b90969095509350505050565b80358015158114611c7f57600080fd5b6000806040838503121561224457600080fd5b61224d83611c68565b915061208c60208401612221565b6000806040838503121561226e57600080fd5b50508035926020909101359150565b6000806000806000806080878903121561229657600080fd5b86356001600160401b03808211156122ad57600080fd5b6122b98a838b01612198565b909850965060208901359150808211156122d257600080fd5b506122df89828a01612198565b90955093506122f2905060408801611c68565b915061230060608801612221565b90509295509295509295565b6000806040838503121561231f57600080fd5b61232883611c68565b915061208c60208401611c68565b600080600080600060a0868803121561234e57600080fd5b61235786611c68565b945061236560208701611c68565b9350604086013592506060860135915060808601356001600160401b0381111561238e57600080fd5b61205c88828901611db8565b600181811c908216806123ae57607f821691505b6020821081036123ce57634e487b7160e01b600052602260045260246000fd5b50919050565b601f821115610c5c57600081815260208120601f850160051c810160208610156123fb5750805b601f850160051c820191505b81811015610cd957828155600101612407565b81516001600160401b0381111561243357612433611d4b565b61244781612441845461239a565b846123d4565b602080601f83116001811461247c57600084156124645750858301515b600019600386901b1c1916600185901b178555610cd9565b600085815260208120601f198616915b828110156124ab5788860151825594840194600190910190840161248c565b50858210156124c95787850151600019600388901b60f8161c191681555b5050505050600190811b01905550565b600081546124e68161239a565b808552602060018381168015612503576001811461251d5761254b565b60ff1985168884015283151560051b88018301955061254b565b866000528260002060005b858110156125435781548a8201860152908301908401612528565b890184019650505b505050505092915050565b60a08152600061256960a08301886124d9565b828103602084015261257b81886124d9565b6001600160a01b03968716604085015294909516606083015250608001529392505050565b6000602082840312156125b257600080fd5b81516001600160401b038111156125c857600080fd5b8201601f810184136125d957600080fd5b80516125e7611dd782611d91565b8181528560208385010111156125fc57600080fd5b61260d826020830160208601611ce8565b95945050505050565b634e487b7160e01b600052601160045260246000fd5b8082018082111561066e5761066e612616565b634e487b7160e01b600052603260045260246000fd5b60006001820161266757612667612616565b5060010190565b6001600160401b0383111561268557612685611d4b565b61269983612693835461239a565b836123d4565b6000601f8411600181146126cd57600085156126b55750838201355b600019600387901b1c1916600186901b178355610aed565b600083815260209020601f19861690835b828110156126fe57868501358255602094850194600190920191016126de565b508682101561271b5760001960f88860031b161c19848701351681555b505060018560011b0183555050505050565b81835281816020850137506000828201602090810191909152601f909101601f19169091010190565b60208152600061276a60208301848661272d565b949350505050565b8181038181111561066e5761066e612616565b60a08152600061279960a08301898b61272d565b82810360208401526127ac81888a61272d565b6001600160a01b039687166040850152949095166060830152506080015295945050505050565b6040815260006127e6604083018561214a565b828103602084015261260d818561214a565b6001600160a01b03868116825285166020820152604081018490526060810183905260a06080820181905260009061283290830184611d0c565b979650505050505050565b60006020828403121561284f57600080fd5b8151611ce181611cae565b6001600160a01b0386811682528516602082015260a0604082018190526000906128869083018661214a565b8281036060840152612898818661214a565b905082810360808401526128ac8185611d0c565b9897505050505050505056fe71f3d55856e4058ed06ee057d79ada615f65cdf5f9ee88181b914225088f834f88be536d5240c274a3b1d3a1be54482fd9caa294f08c62a7cde569f49a3c450002dd7bc7dec4dceedda775e58dd541e08a116c6c53815c0bd028192f7b626800a264697066735822122089b0659c2949c213caa6ce1c129e7b5f44fe51bde2649ae016fcb5629daf7d1364736f6c63430008140033",
  "linkReferences": {
    "contracts/libraries/URIEncoding.sol": {
      "URIEncoding": [
        {
          "length": 20,
          "start": 2299
        },
        {
          "length": 20,
          "start": 4335
        }
      ]
    }
  },
  "deployedLinkReferences": {
    "contracts/libraries/URIEncoding.sol": {
      "URIEncoding": [
        {
          "length": 20,
          "start": 2267
        },
        {
          "length": 20,
          "start": 4303
        }
      ]
    }
  }
}