{
  "_format": "hh-sol-artifact-1",
  "contractName": "URIEncoding",
  "sourceName": "contracts/libraries/URIEncoding.sol",
  "abi": [
    {
      "inputs": [
        {
          "internalType": "uint256",
          "name": "value",
          "type": "uint256"
        },
        {
          "internalType": "uint256",
          "name": "length",
          "type": "uint256"
        }
      ],
      "name": "StringsInsufficientHexLength",
      "type": "error"
    },
    {
      "inputs": [
        {
          "internalType": "string",
          "name": "title",
          "type": "string"
        },
        {
          "internalType": "string",
          "name": "content",
          "type": "string"
        },
        {
          "internalType": "address",
          "name": "creator",
          "type": "address"
        },
        {
          "internalType": "address",
          "name": "collection",
          "type": "address"
        },
        {
          "internalType": "uint256",
          "name": "tokenId",
          "type": "uint256"
        }
      ],
      "name": "generateURI",
      "outputs": [
        {
          "internalType": "string",
          "name": "",
          "type": "string"
        }
      ],
      "stateMutability": "pure",
      "type": "function"
    }
  ],
  "bytecode": "0x61172361003a600b82828239805160001a60731461002d57634e487b7160e01b600052600060045260246000fd5b30600052607381538281f3fe73000000000000000000000000000000000000000030146080604052600436106100355760003560e01c80636f4f3bae1461003a575b600080fd5b61004d610048366004610f3d565b610063565b60405161005a9190610fee565b60405180910390f35b606060006100708761010f565b90506000610088856001600160a01b03166014610349565b610091856104cf565b6040516020016100a292919061103d565b60405160208183030381529060405290506100e3888288858b6040516020016100cf959493929190611093565b604051602081830303815290604052610562565b6040516020016100f391906111d7565b6040516020818303038152906040529250505095945050505050565b6060610190806018601e6028600c600061012a836002611232565b6101349088611249565b905060006101568a61014760028961125c565b610151908561125c565b6106c2565b905060008582516101679190611232565b9050600061017660028661125c565b610180878b611249565b61018a9190611249565b905060008783600261019c828e611249565b6101a6919061125c565b6101b0919061127e565b6101ba919061127e565b9050808210156101dc576101cf60028761125c565b6101d9908261127e565b91505b60006101e78c6104cf565b6101f08c6104cf565b6101f98e6104cf565b6102028e6104cf565b61020b8e6104cf565b6102148c6104cf565b60405160200161022996959493929190611291565b60408051601f19818403018152919052905060008a600261024a878f611249565b610254919061125c565b61025e919061127e565b905060005b86518110156102e45782610276836104cf565b61029889848151811061028b5761028b6114bb565b60200260200101516108e6565b6102a1886104cf565b6040516020016102b494939291906114d1565b60408051601f1981840301815291905292506102d08b8361127e565b9150806102dc8161160e565b915050610263565b50816040516020016102f69190611627565b6040516020818303038152906040529150600061031283610562565b9050806040516020016103259190611651565b6040516020818303038152906040529e505050505050505050505050505050919050565b6060826000610359846002611232565b61036490600261127e565b67ffffffffffffffff81111561037c5761037c610e7e565b6040519080825280601f01601f1916602001820160405280156103a6576020820181803683370190505b509050600360fc1b816000815181106103c1576103c16114bb565b60200101906001600160f81b031916908160001a905350600f60fb1b816001815181106103f0576103f06114bb565b60200101906001600160f81b031916908160001a9053506000610414856002611232565b61041f90600161127e565b90505b6001811115610497576f181899199a1a9b1b9c1cb0b131b232b360811b83600f1660108110610453576104536114bb565b1a60f81b828281518110610469576104696114bb565b60200101906001600160f81b031916908160001a90535060049290921c9161049081611696565b9050610422565b5081156104c55760405163e22e27eb60e01b8152600481018690526024810185905260440160405180910390fd5b9150505b92915050565b606060006104dc83610da6565b600101905060008167ffffffffffffffff8111156104fc576104fc610e7e565b6040519080825280601f01601f191660200182016040528015610526576020820181803683370190505b5090508181016020015b600019016f181899199a1a9b1b9c1cb0b131b232b360811b600a86061a8153600a850494508461053057509392505050565b6060815160000361058157505060408051602081019091526000815290565b60006040518060600160405280604081526020016116ae60409139905060006003845160026105b0919061127e565b6105ba919061125c565b6105c5906004611232565b67ffffffffffffffff8111156105dd576105dd610e7e565b6040519080825280601f01601f191660200182016040528015610607576020820181803683370190505b50905060018201602082018586518701602081018051600082525b8284101561067d576003840193508351603f8160121c168701518653600186019550603f81600c1c168701518653600186019550603f8160061c168701518653600186019550603f8116870151865350600185019450610622565b905250508551600390066001811461069c57600281146106af576106b7565b603d6001830353603d60028303536106b7565b603d60018303535b509195945050505050565b6060600083905060008360018584516106db919061127e565b6106e59190611249565b6106ef919061125c565b905060008167ffffffffffffffff81111561070c5761070c610e7e565b60405190808252806020026020018201604052801561073f57816020015b606081526020019060019003908161072a5790505b5090506000805b838110156108da57600061075a888461127e565b9050855181111561076d575084516107d6565b82811180156107ab575085610783600183611249565b81518110610793576107936114bb565b6020910101516001600160f81b031916600160fd1b14155b156107c257806107ba81611696565b91505061076d565b8281036107d6576107d3888461127e565b90505b60006107e28483611249565b67ffffffffffffffff8111156107fa576107fa610e7e565b6040519080825280601f01601f191660200182016040528015610824576020820181803683370190505b50905060005b8151811015610894578761083e828761127e565b8151811061084e5761084e6114bb565b602001015160f81c60f81b82828151811061086b5761086b6114bb565b60200101906001600160f81b031916908160001a9053508061088c8161160e565b91505061082a565b50808584815181106108a8576108a86114bb565b6020026020010181905250819350865184106108c55750506108da565b505080806108d29061160e565b915050610746565b50909695505050505050565b805160609082906000906108fb906006611232565b67ffffffffffffffff81111561091357610913610e7e565b6040519080825280601f01601f19166020018201604052801561093d576020820181803683370190505b5090506000805b8351811015610cf0576000848281518110610961576109616114bb565b01602001516001600160f81b0319169050601360f91b819003610a145760005b6005811015610a0e576040518060400160405280600581526020016426616d703b60d81b81525081815181106109b9576109b96114bb565b01602001516001600160f81b03191685856109d38161160e565b9650815181106109e5576109e56114bb565b60200101906001600160f81b031916908160001a90535080610a068161160e565b915050610981565b50610cdd565b6001600160f81b03198116600f60fa1b03610ab85760005b6004811015610a0e5760405180604001604052806004815260200163266c743b60e01b8152508181518110610a6357610a636114bb565b01602001516001600160f81b0319168585610a7d8161160e565b965081518110610a8f57610a8f6114bb565b60200101906001600160f81b031916908160001a90535080610ab08161160e565b915050610a2c565b6001600160f81b03198116601f60f91b03610b5c5760005b6004811015610a0e57604051806040016040528060048152602001632667743b60e01b8152508181518110610b0757610b076114bb565b01602001516001600160f81b0319168585610b218161160e565b965081518110610b3357610b336114bb565b60200101906001600160f81b031916908160001a90535080610b548161160e565b915050610ad0565b6001600160f81b03198116601160f91b03610c025760005b6006811015610a0e57604051806040016040528060068152602001652671756f743b60d01b8152508181518110610bad57610bad6114bb565b01602001516001600160f81b0319168585610bc78161160e565b965081518110610bd957610bd96114bb565b60200101906001600160f81b031916908160001a90535080610bfa8161160e565b915050610b74565b6001600160f81b03198116602760f81b03610ca75760005b6006811015610a0e5760405180604001604052806005815260200164262333393b60d81b8152508181518110610c5257610c526114bb565b01602001516001600160f81b0319168585610c6c8161160e565b965081518110610c7e57610c7e6114bb565b60200101906001600160f81b031916908160001a90535080610c9f8161160e565b915050610c1a565b808484610cb38161160e565b955081518110610cc557610cc56114bb565b60200101906001600160f81b031916908160001a9053505b5080610ce88161160e565b915050610944565b5060008167ffffffffffffffff811115610d0c57610d0c610e7e565b6040519080825280601f01601f191660200182016040528015610d36576020820181803683370190505b50905060005b82811015610d9c57838181518110610d5657610d566114bb565b602001015160f81c60f81b828281518110610d7357610d736114bb565b60200101906001600160f81b031916908160001a90535080610d948161160e565b915050610d3c565b5095945050505050565b60008072184f03e93ff9f4daa797ed6e38ed64bf6a1f0160401b8310610de55772184f03e93ff9f4daa797ed6e38ed64bf6a1f0160401b830492506040015b6d04ee2d6d415b85acef81000000008310610e11576d04ee2d6d415b85acef8100000000830492506020015b662386f26fc100008310610e2f57662386f26fc10000830492506010015b6305f5e1008310610e47576305f5e100830492506008015b6127108310610e5b57612710830492506004015b60648310610e6d576064830492506002015b600a83106104c95760010192915050565b634e487b7160e01b600052604160045260246000fd5b600082601f830112610ea557600080fd5b813567ffffffffffffffff80821115610ec057610ec0610e7e565b604051601f8301601f19908116603f01168101908282118183101715610ee857610ee8610e7e565b81604052838152866020858801011115610f0157600080fd5b836020870160208301376000602085830101528094505050505092915050565b80356001600160a01b0381168114610f3857600080fd5b919050565b600080600080600060a08688031215610f5557600080fd5b853567ffffffffffffffff80821115610f6d57600080fd5b610f7989838a01610e94565b96506020880135915080821115610f8f57600080fd5b50610f9c88828901610e94565b945050610fab60408701610f21565b9250610fb960608701610f21565b949793965091946080013592915050565b60005b83811015610fe5578181015183820152602001610fcd565b50506000910152565b602081526000825180602084015261100d816040850160208701610fca565b601f01601f19169190910160400192915050565b60008151611033818560208601610fca565b9290920192915050565b6d7777772e73756761722e78797a2f60901b81526000835161106681600e850160208801610fca565b602f60f81b600e91840191820152835161108781600f840160208801610fca565b01600f01949350505050565b683d913730b6b2911d1160b91b815285516000906110b8816009850160208b01610fca565b7f222c226465736372697074696f6e223a22412066756c6c79206f6e636861696e600991840191820152750103837b9ba103cb7ba9031b0b7103932b0b21037b7160551b6029820152865161111481603f840160208b01610fca565b61088b60f21b603f9290910191820152691130baba3437b9111d1160b11b6041820152606086901b6bffffffffffffffffffffffff1916604b8201526111cb6111bd6111b76111a061119261118c611177605f880161088b60f21b815260020190565b681134b6b0b3b2911d1160b91b815260090190565b8a611021565b61088b60f21b815260020190565b6a1131b7b73a32b73a111d1160a91b8152600b0190565b86611021565b61227d60f01b815260020190565b98975050505050505050565b7f646174613a6170706c69636174696f6e2f6a736f6e3b6261736536342c00000081526000825161120f81601d850160208701610fca565b91909101601d0192915050565b634e487b7160e01b600052601160045260246000fd5b80820281158282048414176104c9576104c961121c565b818103818111156104c9576104c961121c565b60008261127957634e487b7160e01b600052601260045260246000fd5b500490565b808201808211156104c9576104c961121c565b7f3c73766720786d6c6e733d22687474703a2f2f7777772e77332e6f72672f323081526e181817b9bb3391103bb4b23a341e9160891b6020820152600087516112e181602f850160208c01610fca565b6911103432b4b3b43a1e9160b11b602f91840191820152875161130b816039840160208c01610fca565b6e011103b34b2bba137bc1e911810181608d1b60399290910191820152865161133b816048840160208b01610fca565b602f81830101915050600160fd1b60198201526114ae6114966111b761143861142761118c6113c4611381611373601a8a018f611021565b61111f60f11b815260020190565b7f3c726563742077696474683d223130302522206865696768743d223130302522815270103334b6361e9111b330b330b31c91179f60791b602082015260310190565b7f3c7374796c653e2e74657874207b2066696c6c3a20233030303b20666f6e742d81527f66616d696c793a20436f7572696572204e65772c206d6f6e6f73706163653b2060208201526a03337b73a16b9b4bd329d160ad1b6040820152604b0190565b6470783b207d60d81b815260050190565b7f2e666f6f746572207b2066696c6c3a20233030303b20666f6e742d66616d696c81527f793a20436f7572696572204e65772c206d6f6e6f73706163653b20666f6e742d602082015265039b4bd329d160d51b604082015260460190565b6b383c1dbe9e17b9ba3cb6329f60a11b8152600c0190565b9998505050505050505050565b634e487b7160e01b600052603260045260246000fd5b600085516114e3818460208a01610fca565b701e3a32bc3a103c1e911a981291103c9e9160791b9083019081528551611511816011840160208a01610fca565b7f2220636c6173733d22746578742220746578742d616e63686f723d226d69646460119290910191820152633632911f60e11b6031820152845161155c816035840160208901610fca565b7f3c2f746578743e3c7465787420783d223530252220793d22000000000000000060359290910191820152835161159a81604d840160208801610fca565b7f2220636c6173733d22666f6f7465722220746578742d616e63686f723d226d699101604d8101919091526532323632911f60d11b606d820152732932b0b21034ba1037b71039bab3b0b9173c3cbd60611b6073820152661e17ba32bc3a1f60c91b6087820152608e019695505050505050565b6000600182016116205761162061121c565b5060010190565b60008251611639818460208701610fca565b651e17b9bb339f60d11b920191825250600601919050565b7f646174613a696d6167652f7376672b786d6c3b6261736536342c00000000000081526000825161168981601a850160208701610fca565b91909101601a0192915050565b6000816116a5576116a561121c565b50600019019056fe4142434445464748494a4b4c4d4e4f505152535455565758595a6162636465666768696a6b6c6d6e6f707172737475767778797a303132333435363738392b2fa2646970667358221220d8185ca587053f9615609c0f4ae83dc4a759ef7e0ad2cba5df0d4f0b4a864dca64736f6c63430008140033",
  "linkReferences": {},
  "deployedLinkReferences": {}
}