{
  "_format": "hh-sol-artifact-1",
  "contractName": "ProfileRegistry",
  "sourceName": "contracts/MinimalProfileRegistry.sol",
  "abi": [
    {
      "inputs": [
        {
          "internalType": "address",
          "name": "target",
          "type": "address"
        }
      ],
      "name": "AddressEmptyCode",
      "type": "error"
    },
    {
      "inputs": [
        {
          "internalType": "address",
          "name": "implementation",
          "type": "address"
        }
      ],
      "name": "ERC1967InvalidImplementation",
      "type": "error"
    },
    {
      "inputs": [],
      "name": "ERC1967NonPayable",
      "type": "error"
    },
    {
      "inputs": [
        {
          "internalType": "address",
          "name": "sender",
          "type": "address"
        },
        {
          "internalType": "uint256",
          "name": "tokenId",
          "type": "uint256"
        },
        {
          "internalType": "address",
          "name": "owner",
          "type": "address"
        }
      ],
      "name": "ERC721IncorrectOwner",
      "type": "error"
    },
    {
      "inputs": [
        {
          "internalType": "address",
          "name": "operator",
          "type": "address"
        },
        {
          "internalType": "uint256",
          "name": "tokenId",
          "type": "uint256"
        }
      ],
      "name": "ERC721InsufficientApproval",
      "type": "error"
    },
    {
      "inputs": [
        {
          "internalType": "address",
          "name": "approver",
          "type": "address"
        }
      ],
      "name": "ERC721InvalidApprover",
      "type": "error"
    },
    {
      "inputs": [
        {
          "internalType": "address",
          "name": "operator",
          "type": "address"
        }
      ],
      "name": "ERC721InvalidOperator",
      "type": "error"
    },
    {
      "inputs": [
        {
          "internalType": "address",
          "name": "owner",
          "type": "address"
        }
      ],
      "name": "ERC721InvalidOwner",
      "type": "error"
    },
    {
      "inputs": [
        {
          "internalType": "address",
          "name": "receiver",
          "type": "address"
        }
      ],
      "name": "ERC721InvalidReceiver",
      "type": "error"
    },
    {
      "inputs": [
        {
          "internalType": "address",
          "name": "sender",
          "type": "address"
        }
      ],
      "name": "ERC721InvalidSender",
      "type": "error"
    },
    {
      "inputs": [
        {
          "internalType": "uint256",
          "name": "tokenId",
          "type": "uint256"
        }
      ],
      "name": "ERC721NonexistentToken",
      "type": "error"
    },
    {
      "inputs": [],
      "name": "EnforcedPause",
      "type": "error"
    },
    {
      "inputs": [],
      "name": "ExpectedPause",
      "type": "error"
    },
    {
      "inputs": [],
      "name": "FailedInnerCall",
      "type": "error"
    },
    {
      "inputs": [],
      "name": "InvalidInitialization",
      "type": "error"
    },
    {
      "inputs": [],
      "name": "NotInitializing",
      "type": "error"
    },
    {
      "inputs": [
        {
          "internalType": "address",
          "name": "owner",
          "type": "address"
        }
      ],
      "name": "OwnableInvalidOwner",
      "type": "error"
    },
    {
      "inputs": [
        {
          "internalType": "address",
          "name": "account",
          "type": "address"
        }
      ],
      "name": "OwnableUnauthorizedAccount",
      "type": "error"
    },
    {
      "inputs": [],
      "name": "UUPSUnauthorizedCallContext",
      "type": "error"
    },
    {
      "inputs": [
        {
          "internalType": "bytes32",
          "name": "slot",
          "type": "bytes32"
        }
      ],
      "name": "UUPSUnsupportedProxiableUUID",
      "type": "error"
    },
    {
      "anonymous": false,
      "inputs": [
        {
          "indexed": true,
          "internalType": "address",
          "name": "owner",
          "type": "address"
        },
        {
          "indexed": true,
          "internalType": "address",
          "name": "approved",
          "type": "address"
        },
        {
          "indexed": true,
          "internalType": "uint256",
          "name": "tokenId",
          "type": "uint256"
        }
      ],
      "name": "Approval",
      "type": "event"
    },
    {
      "anonymous": false,
      "inputs": [
        {
          "indexed": true,
          "internalType": "address",
          "name": "owner",
          "type": "address"
        },
        {
          "indexed": true,
          "internalType": "address",
          "name": "operator",
          "type": "address"
        },
        {
          "indexed": false,
          "internalType": "bool",
          "name": "approved",
          "type": "bool"
        }
      ],
      "name": "ApprovalForAll",
      "type": "event"
    },
    {
      "anonymous": false,
      "inputs": [
        {
          "indexed": false,
          "internalType": "uint64",
          "name": "version",
          "type": "uint64"
        }
      ],
      "name": "Initialized",
      "type": "event"
    },
    {
      "anonymous": false,
      "inputs": [
        {
          "indexed": false,
          "internalType": "address",
          "name": "account",
          "type": "address"
        },
        {
          "indexed": false,
          "internalType": "string",
          "name": "handle",
          "type": "string"
        },
        {
          "indexed": false,
          "internalType": "string",
          "name": "description",
          "type": "string"
        },
        {
          "indexed": false,
          "internalType": "string",
          "name": "metadataURI",
          "type": "string"
        }
      ],
      "name": "NewProfileCreated",
      "type": "event"
    },
    {
      "anonymous": false,
      "inputs": [
        {
          "indexed": true,
          "internalType": "address",
          "name": "previousOwner",
          "type": "address"
        },
        {
          "indexed": true,
          "internalType": "address",
          "name": "newOwner",
          "type": "address"
        }
      ],
      "name": "OwnershipTransferred",
      "type": "event"
    },
    {
      "anonymous": false,
      "inputs": [
        {
          "indexed": false,
          "internalType": "address",
          "name": "account",
          "type": "address"
        }
      ],
      "name": "Paused",
      "type": "event"
    },
    {
      "anonymous": false,
      "inputs": [
        {
          "indexed": true,
          "internalType": "uint256",
          "name": "profileId",
          "type": "uint256"
        },
        {
          "indexed": false,
          "internalType": "string",
          "name": "newDescription",
          "type": "string"
        }
      ],
      "name": "ProfileDescriptionUpdated",
      "type": "event"
    },
    {
      "anonymous": false,
      "inputs": [
        {
          "indexed": true,
          "internalType": "uint256",
          "name": "profileId",
          "type": "uint256"
        },
        {
          "indexed": false,
          "internalType": "string",
          "name": "newMetadataURI",
          "type": "string"
        }
      ],
      "name": "ProfileMetadataUpdated",
      "type": "event"
    },
    {
      "anonymous": false,
      "inputs": [
        {
          "indexed": true,
          "internalType": "address",
          "name": "from",
          "type": "address"
        },
        {
          "indexed": true,
          "internalType": "address",
          "name": "to",
          "type": "address"
        },
        {
          "indexed": true,
          "internalType": "uint256",
          "name": "tokenId",
          "type": "uint256"
        }
      ],
      "name": "Transfer",
      "type": "event"
    },
    {
      "anonymous": false,
      "inputs": [
        {
          "indexed": false,
          "internalType": "address",
          "name": "account",
          "type": "address"
        }
      ],
      "name": "Unpaused",
      "type": "event"
    },
    {
      "anonymous": false,
      "inputs": [
        {
          "indexed": true,
          "internalType": "address",
          "name": "implementation",
          "type": "address"
        }
      ],
      "name": "Upgraded",
      "type": "event"
    },
    {
      "inputs": [],
      "name": "UPGRADE_INTERFACE_VERSION",
      "outputs": [
        {
          "internalType": "string",
          "name": "",
          "type": "string"
        }
      ],
      "stateMutability": "view",
      "type": "function"
    },
    {
      "inputs": [
        {
          "internalType": "address",
          "name": "",
          "type": "address"
        }
      ],
      "name": "addressToProfileID",
      "outputs": [
        {
          "internalType": "uint256",
          "name": "",
          "type": "uint256"
        }
      ],
      "stateMutability": "view",
      "type": "function"
    },
    {
      "inputs": [
        {
          "internalType": "address",
          "name": "to",
          "type": "address"
        },
        {
          "internalType": "uint256",
          "name": "tokenId",
          "type": "uint256"
        }
      ],
      "name": "approve",
      "outputs": [],
      "stateMutability": "nonpayable",
      "type": "function"
    },
    {
      "inputs": [
        {
          "internalType": "address",
          "name": "owner",
          "type": "address"
        }
      ],
      "name": "balanceOf",
      "outputs": [
        {
          "internalType": "uint256",
          "name": "",
          "type": "uint256"
        }
      ],
      "stateMutability": "view",
      "type": "function"
    },
    {
      "inputs": [
        {
          "internalType": "uint256",
          "name": "tokenId",
          "type": "uint256"
        }
      ],
      "name": "getApproved",
      "outputs": [
        {
          "internalType": "address",
          "name": "",
          "type": "address"
        }
      ],
      "stateMutability": "view",
      "type": "function"
    },
    {
      "inputs": [
        {
          "internalType": "string",
          "name": "_handle",
          "type": "string"
        }
      ],
      "name": "getIdFromHandle",
      "outputs": [
        {
          "internalType": "uint256",
          "name": "",
          "type": "uint256"
        }
      ],
      "stateMutability": "view",
      "type": "function"
    },
    {
      "inputs": [
        {
          "internalType": "uint256",
          "name": "_id",
          "type": "uint256"
        }
      ],
      "name": "getProfileByID",
      "outputs": [
        {
          "components": [
            {
              "internalType": "string",
              "name": "handle",
              "type": "string"
            },
            {
              "internalType": "string",
              "name": "description",
              "type": "string"
            },
            {
              "internalType": "string",
              "name": "metadata",
              "type": "string"
            }
          ],
          "internalType": "struct ProfileRegistry.Profile",
          "name": "",
          "type": "tuple"
        }
      ],
      "stateMutability": "view",
      "type": "function"
    },
    {
      "inputs": [],
      "name": "getTokenId",
      "outputs": [
        {
          "internalType": "uint256",
          "name": "",
          "type": "uint256"
        }
      ],
      "stateMutability": "view",
      "type": "function"
    },
    {
      "inputs": [
        {
          "internalType": "address",
          "name": "_owner",
          "type": "address"
        }
      ],
      "name": "initialize",
      "outputs": [],
      "stateMutability": "nonpayable",
      "type": "function"
    },
    {
      "inputs": [
        {
          "internalType": "address",
          "name": "owner",
          "type": "address"
        },
        {
          "internalType": "address",
          "name": "operator",
          "type": "address"
        }
      ],
      "name": "isApprovedForAll",
      "outputs": [
        {
          "internalType": "bool",
          "name": "",
          "type": "bool"
        }
      ],
      "stateMutability": "view",
      "type": "function"
    },
    {
      "inputs": [],
      "name": "name",
      "outputs": [
        {
          "internalType": "string",
          "name": "",
          "type": "string"
        }
      ],
      "stateMutability": "view",
      "type": "function"
    },
    {
      "inputs": [],
      "name": "owner",
      "outputs": [
        {
          "internalType": "address",
          "name": "",
          "type": "address"
        }
      ],
      "stateMutability": "view",
      "type": "function"
    },
    {
      "inputs": [
        {
          "internalType": "uint256",
          "name": "tokenId",
          "type": "uint256"
        }
      ],
      "name": "ownerOf",
      "outputs": [
        {
          "internalType": "address",
          "name": "",
          "type": "address"
        }
      ],
      "stateMutability": "view",
      "type": "function"
    },
    {
      "inputs": [],
      "name": "pause",
      "outputs": [],
      "stateMutability": "nonpayable",
      "type": "function"
    },
    {
      "inputs": [],
      "name": "paused",
      "outputs": [
        {
          "internalType": "bool",
          "name": "",
          "type": "bool"
        }
      ],
      "stateMutability": "view",
      "type": "function"
    },
    {
      "inputs": [],
      "name": "proxiableUUID",
      "outputs": [
        {
          "internalType": "bytes32",
          "name": "",
          "type": "bytes32"
        }
      ],
      "stateMutability": "view",
      "type": "function"
    },
    {
      "inputs": [
        {
          "internalType": "address",
          "name": "recipient",
          "type": "address"
        },
        {
          "internalType": "string",
          "name": "_handle",
          "type": "string"
        },
        {
          "internalType": "string",
          "name": "_description",
          "type": "string"
        },
        {
          "internalType": "string",
          "name": "_metadataURI",
          "type": "string"
        }
      ],
      "name": "registerProfile",
      "outputs": [],
      "stateMutability": "nonpayable",
      "type": "function"
    },
    {
      "inputs": [],
      "name": "renounceOwnership",
      "outputs": [],
      "stateMutability": "nonpayable",
      "type": "function"
    },
    {
      "inputs": [
        {
          "internalType": "address",
          "name": "from",
          "type": "address"
        },
        {
          "internalType": "address",
          "name": "to",
          "type": "address"
        },
        {
          "internalType": "uint256",
          "name": "tokenId",
          "type": "uint256"
        }
      ],
      "name": "safeTransferFrom",
      "outputs": [],
      "stateMutability": "nonpayable",
      "type": "function"
    },
    {
      "inputs": [
        {
          "internalType": "address",
          "name": "from",
          "type": "address"
        },
        {
          "internalType": "address",
          "name": "to",
          "type": "address"
        },
        {
          "internalType": "uint256",
          "name": "tokenId",
          "type": "uint256"
        },
        {
          "internalType": "bytes",
          "name": "data",
          "type": "bytes"
        }
      ],
      "name": "safeTransferFrom",
      "outputs": [],
      "stateMutability": "nonpayable",
      "type": "function"
    },
    {
      "inputs": [
        {
          "internalType": "address",
          "name": "operator",
          "type": "address"
        },
        {
          "internalType": "bool",
          "name": "approved",
          "type": "bool"
        }
      ],
      "name": "setApprovalForAll",
      "outputs": [],
      "stateMutability": "nonpayable",
      "type": "function"
    },
    {
      "inputs": [
        {
          "internalType": "bytes4",
          "name": "interfaceId",
          "type": "bytes4"
        }
      ],
      "name": "supportsInterface",
      "outputs": [
        {
          "internalType": "bool",
          "name": "",
          "type": "bool"
        }
      ],
      "stateMutability": "view",
      "type": "function"
    },
    {
      "inputs": [],
      "name": "symbol",
      "outputs": [
        {
          "internalType": "string",
          "name": "",
          "type": "string"
        }
      ],
      "stateMutability": "view",
      "type": "function"
    },
    {
      "inputs": [
        {
          "internalType": "uint256",
          "name": "tokenId",
          "type": "uint256"
        }
      ],
      "name": "tokenURI",
      "outputs": [
        {
          "internalType": "string",
          "name": "",
          "type": "string"
        }
      ],
      "stateMutability": "view",
      "type": "function"
    },
    {
      "inputs": [
        {
          "internalType": "address",
          "name": "from",
          "type": "address"
        },
        {
          "internalType": "address",
          "name": "to",
          "type": "address"
        },
        {
          "internalType": "uint256",
          "name": "tokenId",
          "type": "uint256"
        }
      ],
      "name": "transferFrom",
      "outputs": [],
      "stateMutability": "nonpayable",
      "type": "function"
    },
    {
      "inputs": [
        {
          "internalType": "address",
          "name": "newOwner",
          "type": "address"
        }
      ],
      "name": "transferOwnership",
      "outputs": [],
      "stateMutability": "nonpayable",
      "type": "function"
    },
    {
      "inputs": [],
      "name": "unpause",
      "outputs": [],
      "stateMutability": "nonpayable",
      "type": "function"
    },
    {
      "inputs": [
        {
          "internalType": "uint256",
          "name": "_profileId",
          "type": "uint256"
        },
        {
          "internalType": "string",
          "name": "_description",
          "type": "string"
        }
      ],
      "name": "updateProfileDescription",
      "outputs": [],
      "stateMutability": "nonpayable",
      "type": "function"
    },
    {
      "inputs": [
        {
          "internalType": "uint256",
          "name": "_profileId",
          "type": "uint256"
        },
        {
          "internalType": "string",
          "name": "_metadataURI",
          "type": "string"
        }
      ],
      "name": "updateProfileMetadata",
      "outputs": [],
      "stateMutability": "nonpayable",
      "type": "function"
    },
    {
      "inputs": [
        {
          "internalType": "address",
          "name": "newImplementation",
          "type": "address"
        },
        {
          "internalType": "bytes",
          "name": "data",
          "type": "bytes"
        }
      ],
      "name": "upgradeToAndCall",
      "outputs": [],
      "stateMutability": "payable",
      "type": "function"
    }
  ],
  "bytecode": "0x60a06040523060805234801561001457600080fd5b50608051612a5461003e600039600081816114250152818161144e01526116f10152612a546000f3fe6080604052600436106101cd5760003560e01c8063841e2fb7116100f7578063b88d4fde11610095578063d18d4c6c11610064578063d18d4c6c1461054b578063dc7a937e1461056b578063e985e9c51461058b578063f2fde38b146105ab57600080fd5b8063b88d4fde146104be578063c009c111146104de578063c4d66de81461050b578063c87b56dd1461052b57600080fd5b80638da5cb5b116100d15780638da5cb5b1461041b57806395d89b4114610458578063a22cb4651461046d578063ad3cb1cc1461048d57600080fd5b8063841e2fb7146103b95780638456cb59146103d957806387ef6898146103ee57600080fd5b806342842e0e1161016f5780635c975abb1161013e5780635c975abb1461033f5780636352211e1461036457806370a0823114610384578063715018a6146103a457600080fd5b806342842e0e146102d75780634f1ef286146102f757806351c75f241461030a57806352d1902d1461032a57600080fd5b8063081812fc116101ab578063081812fc14610248578063095ea7b31461028057806323b872dd146102a25780633f4ba83a146102c257600080fd5b8063010a38f5146101d257806301ffc9a7146101f657806306fdde0314610226575b600080fd5b3480156101de57600080fd5b506000545b6040519081526020015b60405180910390f35b34801561020257600080fd5b506102166102113660046120f7565b6105cb565b60405190151581526020016101ed565b34801561023257600080fd5b5061023b61061d565b6040516101ed9190612164565b34801561025457600080fd5b50610268610263366004612177565b6106c1565b6040516001600160a01b0390911681526020016101ed565b34801561028c57600080fd5b506102a061029b3660046121ac565b6106d6565b005b3480156102ae57600080fd5b506102a06102bd3660046121d6565b6106e5565b3480156102ce57600080fd5b506102a0610775565b3480156102e357600080fd5b506102a06102f23660046121d6565b610787565b6102a06103053660046122b4565b6107a7565b34801561031657600080fd5b506101e3610325366004612349565b6107c2565b34801561033657600080fd5b506101e3610823565b34801561034b57600080fd5b506000805160206129ff8339815191525460ff16610216565b34801561037057600080fd5b5061026861037f366004612177565b610840565b34801561039057600080fd5b506101e361039f36600461238a565b61084b565b3480156103b057600080fd5b506102a06108a7565b3480156103c557600080fd5b506102a06103d43660046123a5565b6108b9565b3480156103e557600080fd5b506102a0610998565b3480156103fa57600080fd5b5061040e610409366004612177565b6109a8565b6040516101ed91906123f0565b34801561042757600080fd5b507f9016d09d72d40fdae2fd8ceac6b6234c7706214fd39c1cd1e609a0528c199300546001600160a01b0316610268565b34801561046457600080fd5b5061023b610ba1565b34801561047957600080fd5b506102a0610488366004612448565b610be0565b34801561049957600080fd5b5061023b604051806040016040528060058152602001640352e302e360dc1b81525081565b3480156104ca57600080fd5b506102a06104d9366004612484565b610beb565b3480156104ea57600080fd5b506101e36104f936600461238a565b60016020526000908152604090205481565b34801561051757600080fd5b506102a061052636600461238a565b610c02565b34801561053757600080fd5b5061023b610546366004612177565b610d90565b34801561055757600080fd5b506102a06105663660046124eb565b610e05565b34801561057757600080fd5b506102a06105863660046123a5565b61107b565b34801561059757600080fd5b506102166105a6366004612595565b61114b565b3480156105b757600080fd5b506102a06105c636600461238a565b611198565b60006001600160e01b031982166380ac58cd60e01b14806105fc57506001600160e01b03198216635b5e139f60e01b145b8061061757506301ffc9a760e01b6001600160e01b03198316145b92915050565b6000805160206129bf833981519152805460609190819061063d906125c8565b80601f0160208091040260200160405190810160405280929190818152602001828054610669906125c8565b80156106b65780601f1061068b576101008083540402835291602001916106b6565b820191906000526020600020905b81548152906001019060200180831161069957829003601f168201915b505050505091505090565b60006106cc826111d6565b506106178261120e565b6106e1828233611248565b5050565b6001600160a01b03821661071457604051633250574960e11b8152600060048201526024015b60405180910390fd5b6000610721838333611255565b9050836001600160a01b0316816001600160a01b03161461076f576040516364283d7b60e01b81526001600160a01b038086166004830152602482018490528216604482015260640161070b565b50505050565b61077d61135f565b6107856113ba565b565b6107a283838360405180602001604052806000815250610beb565b505050565b6107af61141a565b6107b8826114bf565b6106e182826114c7565b60008061080484848080601f01602080910402602001604051908101604052809392919081815260200183838082843760009201919091525061158492505050565b8051602091820120600090815260029091526040902054949350505050565b600061082d6116e6565b506000805160206129df83398151915290565b6000610617826111d6565b60006000805160206129bf8339815191526001600160a01b038316610886576040516322718ad960e21b81526000600482015260240161070b565b6001600160a01b039092166000908152600390920160205250604090205490565b6108af61135f565b610785600061172f565b6108c16117a0565b82600054811061090a5760405162461bcd60e51b8152602060048201526014602482015273546f6b656e20646f65736e27742065786973747360601b604482015260640161070b565b336000908152600160205260409020548490811461093a5760405162461bcd60e51b815260040161070b90612602565b600085815260036020526040902060020161095684868361268c565b50847f2e180a96d51cace5accd4b2bdbd998705f55cbdf59ee35654081155c50e6757f8585604051610989929190612774565b60405180910390a25050505050565b6109a061135f565b6107856117d1565b6109cc60405180606001604052806060815260200160608152602001606081525090565b600082815260036020526040908190208151606081019092528054829082906109f4906125c8565b80601f0160208091040260200160405190810160405280929190818152602001828054610a20906125c8565b8015610a6d5780601f10610a4257610100808354040283529160200191610a6d565b820191906000526020600020905b815481529060010190602001808311610a5057829003601f168201915b50505050508152602001600182018054610a86906125c8565b80601f0160208091040260200160405190810160405280929190818152602001828054610ab2906125c8565b8015610aff5780601f10610ad457610100808354040283529160200191610aff565b820191906000526020600020905b815481529060010190602001808311610ae257829003601f168201915b50505050508152602001600282018054610b18906125c8565b80601f0160208091040260200160405190810160405280929190818152602001828054610b44906125c8565b8015610b915780601f10610b6657610100808354040283529160200191610b91565b820191906000526020600020905b815481529060010190602001808311610b7457829003601f168201915b5050505050815250509050919050565b7f80bb2b638cc20bc4d0a60d66940f3ab4a00c1d7b313497ca82fb0b4ab007930180546060916000805160206129bf8339815191529161063d906125c8565b6106e133838361181a565b610bf68484846106e5565b61076f848484846118cb565b7ff0c57e16840df040f15088dc2f81fe391c3923bec73e23a9662efc9c229c6a008054600160401b810460ff1615906001600160401b0316600081158015610c475750825b90506000826001600160401b03166001148015610c635750303b155b905081158015610c71575080155b15610c8f5760405163f92ee8a960e01b815260040160405180910390fd5b845467ffffffffffffffff191660011785558315610cb957845460ff60401b1916600160401b1785555b600080549080610cc88361279e565b9190505550610cd6866119f4565b610cdf86611198565b610ce7611a05565b610cef611a0d565b610d4260405180604001604052806016815260200175566572736f2050726f66696c6520526567697374727960501b815250604051806040016040528060038152602001622b282960e91b815250611a2e565b8315610d8857845460ff60401b19168555604051600181527fc7f505b2f371ae2175ee4913f4499e1f2633a7b5936321eed1cdaeb6115181d29060200160405180910390a15b505050505050565b6060610d9b826111d6565b506000610db360408051602081019091526000815290565b90506000815111610dd35760405180602001604052806000815250610dfe565b80610ddd84611a40565b604051602001610dee9291906127b7565b6040516020818303038152906040525b9392505050565b610e0d6117a0565b6000610e4e87878080601f01602080910402602001604051908101604052809392919081815260200183838082843760009201919091525061158492505050565b80516020918201206001600160a01b038a166000908152600190925260409091205490915015610eb65760405162461bcd60e51b8152602060048201526013602482015272416c7265616479206861732070726f66696c6560681b604482015260640161070b565b85610efc5760405162461bcd60e51b815260206004820152601660248201527548616e646c652063616e6e6f7420626520656d70747960501b604482015260640161070b565b6014861115610f3f5760405162461bcd60e51b815260206004820152600f60248201526e48616e646c6520746f6f206c6f6e6760881b604482015260640161070b565b60008181526002602052604090205415610f925760405162461bcd60e51b81526020600482015260146024820152732430b73236329030b63932b0b23c903a30b5b2b760611b604482015260640161070b565b600080548180610fa18361279e565b909155506001600160a01b038a1660009081526001602090815260408083208490558583526002825280832084905583835260039091529020909150610fe8888a8361268c565b50600081815260036020526040902060010161100586888361268c565b50600081815260036020526040902060020161102284868361268c565b5061102d8982611ad2565b7f9bf8c17944983ee6fcf4d4f527f2e629bece3873a6d2337875835f4c87449d2e8989898989898960405161106897969594939291906127e6565b60405180910390a1505050505050505050565b6110836117a0565b8260005481106110cc5760405162461bcd60e51b8152602060048201526014602482015273546f6b656e20646f65736e27742065786973747360601b604482015260640161070b565b33600090815260016020526040902054849081146110fc5760405162461bcd60e51b815260040161070b90612602565b600085815260036020526040902060010161111884868361268c565b50847f3f056ad2c0e480870781affb4f9a210c31a4b25da7908f153981167121d359df8585604051610989929190612774565b6001600160a01b0391821660009081527f80bb2b638cc20bc4d0a60d66940f3ab4a00c1d7b313497ca82fb0b4ab00793056020908152604080832093909416825291909152205460ff1690565b6111a061135f565b6001600160a01b0381166111ca57604051631e4fbdf760e01b81526000600482015260240161070b565b6111d38161172f565b50565b6000806111e283611aec565b90506001600160a01b03811661061757604051637e27328960e01b81526004810184905260240161070b565b60009081527f80bb2b638cc20bc4d0a60d66940f3ab4a00c1d7b313497ca82fb0b4ab007930460205260409020546001600160a01b031690565b6107a28383836001611b26565b60006000805160206129bf8339815191528161127085611aec565b90506001600160a01b0384161561128c5761128c818587611c3c565b6001600160a01b038116156112cc576112a9600086600080611b26565b6001600160a01b0381166000908152600383016020526040902080546000190190555b6001600160a01b038616156112fd576001600160a01b03861660009081526003830160205260409020805460010190555b600085815260028301602052604080822080546001600160a01b0319166001600160a01b038a811691821790925591518893918516917fddf252ad1be2c89b69c2b068fc378daa952ba7f163c4a11628f55a4df523b3ef91a495945050505050565b336113917f9016d09d72d40fdae2fd8ceac6b6234c7706214fd39c1cd1e609a0528c199300546001600160a01b031690565b6001600160a01b0316146107855760405163118cdaa760e01b815233600482015260240161070b565b6113c2611ca0565b6000805160206129ff833981519152805460ff191681557f5db9ee0a495bf2e6ff9c91a7834c1ba4fdd244a5e8aa4e537bd38aeae4b073aa335b6040516001600160a01b03909116815260200160405180910390a150565b306001600160a01b037f00000000000000000000000000000000000000000000000000000000000000001614806114a157507f00000000000000000000000000000000000000000000000000000000000000006001600160a01b03166114956000805160206129df833981519152546001600160a01b031690565b6001600160a01b031614155b156107855760405163703e46dd60e11b815260040160405180910390fd5b6111d361135f565b816001600160a01b03166352d1902d6040518163ffffffff1660e01b8152600401602060405180830381865afa925050508015611521575060408051601f3d908101601f1916820190925261151e91810190612841565b60015b61154957604051634c9c8ce360e01b81526001600160a01b038316600482015260240161070b565b6000805160206129df833981519152811461157a57604051632a87526960e21b81526004810182905260240161070b565b6107a28383611cd0565b60606000829050600081516001600160401b038111156115a6576115a6612212565b6040519080825280601f01601f1916602001820160405280156115d0576020820181803683370190505b50905060005b82518110156116de5760418382815181106115f3576115f361285a565b016020015160f81c108015906116235750605a8382815181106116185761161861285a565b016020015160f81c11155b156116855782818151811061163a5761163a61285a565b602001015160f81c60f81b60f81c60206116549190612870565b60f81b8282815181106116695761166961285a565b60200101906001600160f81b031916908160001a9053506116cc565b8281815181106116975761169761285a565b602001015160f81c60f81b8282815181106116b4576116b461285a565b60200101906001600160f81b031916908160001a9053505b806116d68161279e565b9150506115d6565b509392505050565b306001600160a01b037f000000000000000000000000000000000000000000000000000000000000000016146107855760405163703e46dd60e11b815260040160405180910390fd5b7f9016d09d72d40fdae2fd8ceac6b6234c7706214fd39c1cd1e609a0528c19930080546001600160a01b031981166001600160a01b03848116918217845560405192169182907f8be0079c531659141344cd1fd0a4f28419497f9722a3daafe3b4186f6b6457e090600090a3505050565b6000805160206129ff8339815191525460ff16156107855760405163d93c066560e01b815260040160405180910390fd5b6117d96117a0565b6000805160206129ff833981519152805460ff191660011781557f62e78cea01bee320cd4e420270b5ea74000d11b0c9f74754ebdbfc544b05a258336113fc565b6000805160206129bf8339815191526001600160a01b03831661185b57604051630b61174360e31b81526001600160a01b038416600482015260240161070b565b6001600160a01b038481166000818152600584016020908152604080832094881680845294825291829020805460ff191687151590811790915591519182527f17307eab39ab6107e8899845ad3d59bd9653f200f220920489ca2b5937696c31910160405180910390a350505050565b6001600160a01b0383163b1561076f57604051630a85bd0160e11b81526001600160a01b0384169063150b7a029061190d903390889087908790600401612889565b6020604051808303816000875af1925050508015611948575060408051601f3d908101601f19168201909252611945918101906128c6565b60015b6119b1573d808015611976576040519150601f19603f3d011682016040523d82523d6000602084013e61197b565b606091505b5080516000036119a957604051633250574960e11b81526001600160a01b038516600482015260240161070b565b805181602001fd5b6001600160e01b03198116630a85bd0160e11b146119ed57604051633250574960e11b81526001600160a01b038516600482015260240161070b565b5050505050565b6119fc611d26565b6111d381611d6f565b610785611d26565b611a15611d26565b6000805160206129ff833981519152805460ff19169055565b611a36611d26565b6106e18282611d77565b60606000611a4d83611da8565b60010190506000816001600160401b03811115611a6c57611a6c612212565b6040519080825280601f01601f191660200182016040528015611a96576020820181803683370190505b5090508181016020015b600019016f181899199a1a9b1b9c1cb0b131b232b360811b600a86061a8153600a8504945084611aa057509392505050565b6106e1828260405180602001604052806000815250611e80565b60009081527f80bb2b638cc20bc4d0a60d66940f3ab4a00c1d7b313497ca82fb0b4ab007930260205260409020546001600160a01b031690565b6000805160206129bf8339815191528180611b4957506001600160a01b03831615155b15611c0b576000611b59856111d6565b90506001600160a01b03841615801590611b855750836001600160a01b0316816001600160a01b031614155b8015611b985750611b96818561114b565b155b15611bc15760405163a9fbf51f60e01b81526001600160a01b038516600482015260240161070b565b8215611c095784866001600160a01b0316826001600160a01b03167f8c5be1e5ebec7d5bd14f71427d1e84f3dd0314c0f7b2291e5b200ac8c7c3b92560405160405180910390a45b505b600093845260040160205250506040902080546001600160a01b0319166001600160a01b0392909216919091179055565b611c47838383611e97565b6107a2576001600160a01b038316611c7557604051637e27328960e01b81526004810182905260240161070b565b60405163177e802f60e01b81526001600160a01b03831660048201526024810182905260440161070b565b6000805160206129ff8339815191525460ff1661078557604051638dfc202b60e01b815260040160405180910390fd5b611cd982611efd565b6040516001600160a01b038316907fbc7cd75a20ee27fd9adebab32041f755214dbc6bffa90cc0225b39da2e5c2d3b90600090a2805115611d1e576107a28282611f62565b6106e1611fd8565b7ff0c57e16840df040f15088dc2f81fe391c3923bec73e23a9662efc9c229c6a0054600160401b900460ff1661078557604051631afcd79f60e31b815260040160405180910390fd5b6111a0611d26565b611d7f611d26565b6000805160206129bf83398151915280611d9984826128e3565b506001810161076f83826128e3565b60008072184f03e93ff9f4daa797ed6e38ed64bf6a1f0160401b8310611de75772184f03e93ff9f4daa797ed6e38ed64bf6a1f0160401b830492506040015b6d04ee2d6d415b85acef81000000008310611e13576d04ee2d6d415b85acef8100000000830492506020015b662386f26fc100008310611e3157662386f26fc10000830492506010015b6305f5e1008310611e49576305f5e100830492506008015b6127108310611e5d57612710830492506004015b60648310611e6f576064830492506002015b600a83106106175760010192915050565b611e8a8383611ff7565b6107a260008484846118cb565b60006001600160a01b03831615801590611ef55750826001600160a01b0316846001600160a01b03161480611ed15750611ed1848461114b565b80611ef55750826001600160a01b0316611eea8361120e565b6001600160a01b0316145b949350505050565b806001600160a01b03163b600003611f3357604051634c9c8ce360e01b81526001600160a01b038216600482015260240161070b565b6000805160206129df83398151915280546001600160a01b0319166001600160a01b0392909216919091179055565b6060600080846001600160a01b031684604051611f7f91906129a2565b600060405180830381855af49150503d8060008114611fba576040519150601f19603f3d011682016040523d82523d6000602084013e611fbf565b606091505b5091509150611fcf85838361205c565b95945050505050565b34156107855760405163b398979f60e01b815260040160405180910390fd5b6001600160a01b03821661202157604051633250574960e11b81526000600482015260240161070b565b600061202f83836000611255565b90506001600160a01b038116156107a2576040516339e3563760e11b81526000600482015260240161070b565b6060826120715761206c826120b8565b610dfe565b815115801561208857506001600160a01b0384163b155b156120b157604051639996b31560e01b81526001600160a01b038516600482015260240161070b565b5080610dfe565b8051156120c85780518082602001fd5b604051630a12f52160e11b815260040160405180910390fd5b6001600160e01b0319811681146111d357600080fd5b60006020828403121561210957600080fd5b8135610dfe816120e1565b60005b8381101561212f578181015183820152602001612117565b50506000910152565b60008151808452612150816020860160208601612114565b601f01601f19169290920160200192915050565b602081526000610dfe6020830184612138565b60006020828403121561218957600080fd5b5035919050565b80356001600160a01b03811681146121a757600080fd5b919050565b600080604083850312156121bf57600080fd5b6121c883612190565b946020939093013593505050565b6000806000606084860312156121eb57600080fd5b6121f484612190565b925061220260208501612190565b9150604084013590509250925092565b634e487b7160e01b600052604160045260246000fd5b600082601f83011261223957600080fd5b81356001600160401b038082111561225357612253612212565b604051601f8301601f19908116603f0116810190828211818310171561227b5761227b612212565b8160405283815286602085880101111561229457600080fd5b836020870160208301376000602085830101528094505050505092915050565b600080604083850312156122c757600080fd5b6122d083612190565b915060208301356001600160401b038111156122eb57600080fd5b6122f785828601612228565b9150509250929050565b60008083601f84011261231357600080fd5b5081356001600160401b0381111561232a57600080fd5b60208301915083602082850101111561234257600080fd5b9250929050565b6000806020838503121561235c57600080fd5b82356001600160401b0381111561237257600080fd5b61237e85828601612301565b90969095509350505050565b60006020828403121561239c57600080fd5b610dfe82612190565b6000806000604084860312156123ba57600080fd5b8335925060208401356001600160401b038111156123d757600080fd5b6123e386828701612301565b9497909650939450505050565b60208152600082516060602084015261240c6080840182612138565b90506020840151601f198085840301604086015261242a8383612138565b9250604086015191508085840301606086015250611fcf8282612138565b6000806040838503121561245b57600080fd5b61246483612190565b91506020830135801515811461247957600080fd5b809150509250929050565b6000806000806080858703121561249a57600080fd5b6124a385612190565b93506124b160208601612190565b92506040850135915060608501356001600160401b038111156124d357600080fd5b6124df87828801612228565b91505092959194509250565b60008060008060008060006080888a03121561250657600080fd5b61250f88612190565b965060208801356001600160401b038082111561252b57600080fd5b6125378b838c01612301565b909850965060408a013591508082111561255057600080fd5b61255c8b838c01612301565b909650945060608a013591508082111561257557600080fd5b506125828a828b01612301565b989b979a50959850939692959293505050565b600080604083850312156125a857600080fd5b6125b183612190565b91506125bf60208401612190565b90509250929050565b600181811c908216806125dc57607f821691505b6020821081036125fc57634e487b7160e01b600052602260045260246000fd5b50919050565b60208082526024908201527f43616e2774206368616e676520736f6d656f6e6520656c73652773206d6574616040820152636461746160e01b606082015260800190565b601f8211156107a257600081815260208120601f850160051c8101602086101561266d5750805b601f850160051c820191505b81811015610d8857828155600101612679565b6001600160401b038311156126a3576126a3612212565b6126b7836126b183546125c8565b83612646565b6000601f8411600181146126eb57600085156126d35750838201355b600019600387901b1c1916600186901b1783556119ed565b600083815260209020601f19861690835b8281101561271c57868501358255602094850194600190920191016126fc565b50868210156127395760001960f88860031b161c19848701351681555b505060018560011b0183555050505050565b81835281816020850137506000828201602090810191909152601f909101601f19169091010190565b602081526000611ef560208301848661274b565b634e487b7160e01b600052601160045260246000fd5b6000600182016127b0576127b0612788565b5060010190565b600083516127c9818460208801612114565b8351908301906127dd818360208801612114565b01949350505050565b6001600160a01b038816815260806020820181905260009061280b908301888a61274b565b828103604084015261281e81878961274b565b9050828103606084015261283381858761274b565b9a9950505050505050505050565b60006020828403121561285357600080fd5b5051919050565b634e487b7160e01b600052603260045260246000fd5b60ff818116838216019081111561061757610617612788565b6001600160a01b03858116825284166020820152604081018390526080606082018190526000906128bc90830184612138565b9695505050505050565b6000602082840312156128d857600080fd5b8151610dfe816120e1565b81516001600160401b038111156128fc576128fc612212565b6129108161290a84546125c8565b84612646565b602080601f831160018114612945576000841561292d5750858301515b600019600386901b1c1916600185901b178555610d88565b600085815260208120601f198616915b8281101561297457888601518255948401946001909101908401612955565b50858210156129925787850151600019600388901b60f8161c191681555b5050505050600190811b01905550565b600082516129b4818460208701612114565b919091019291505056fe80bb2b638cc20bc4d0a60d66940f3ab4a00c1d7b313497ca82fb0b4ab0079300360894a13ba1a3210667c828492db98dca3e2076cc3735a920a3ca505d382bbccd5ed15c6e187e77e9aee88184c21f4f2182ab5827cb3b7e07fbedcd63f03300a2646970667358221220f19980b4dee89c7c137fface855483bad4532d5fd2a829178159a78ee749367464736f6c63430008140033",
  "linkReferences": {},
  "deployedLinkReferences": {}
}