{
  "_format": "hh-sol-artifact-1",
  "contractName": "MinimalMarket",
  "sourceName": "contracts/MinimalMarket.sol",
  "abi": [
    {
      "inputs": [
        {
          "internalType": "address",
          "name": "target",
          "type": "address"
        }
      ],
      "name": "AddressEmptyCode",
      "type": "error"
    },
    {
      "inputs": [
        {
          "internalType": "address",
          "name": "implementation",
          "type": "address"
        }
      ],
      "name": "ERC1967InvalidImplementation",
      "type": "error"
    },
    {
      "inputs": [],
      "name": "ERC1967NonPayable",
      "type": "error"
    },
    {
      "inputs": [],
      "name": "EnforcedPause",
      "type": "error"
    },
    {
      "inputs": [],
      "name": "ExpectedPause",
      "type": "error"
    },
    {
      "inputs": [],
      "name": "FailedInnerCall",
      "type": "error"
    },
    {
      "inputs": [],
      "name": "InvalidInitialization",
      "type": "error"
    },
    {
      "inputs": [],
      "name": "NotInitializing",
      "type": "error"
    },
    {
      "inputs": [
        {
          "internalType": "address",
          "name": "owner",
          "type": "address"
        }
      ],
      "name": "OwnableInvalidOwner",
      "type": "error"
    },
    {
      "inputs": [
        {
          "internalType": "address",
          "name": "account",
          "type": "address"
        }
      ],
      "name": "OwnableUnauthorizedAccount",
      "type": "error"
    },
    {
      "inputs": [],
      "name": "UUPSUnauthorizedCallContext",
      "type": "error"
    },
    {
      "inputs": [
        {
          "internalType": "bytes32",
          "name": "slot",
          "type": "bytes32"
        }
      ],
      "name": "UUPSUnsupportedProxiableUUID",
      "type": "error"
    },
    {
      "anonymous": false,
      "inputs": [
        {
          "indexed": false,
          "internalType": "uint64",
          "name": "version",
          "type": "uint64"
        }
      ],
      "name": "Initialized",
      "type": "event"
    },
    {
      "anonymous": false,
      "inputs": [
        {
          "indexed": true,
          "internalType": "address",
          "name": "previousOwner",
          "type": "address"
        },
        {
          "indexed": true,
          "internalType": "address",
          "name": "newOwner",
          "type": "address"
        }
      ],
      "name": "OwnershipTransferred",
      "type": "event"
    },
    {
      "anonymous": false,
      "inputs": [
        {
          "indexed": false,
          "internalType": "address",
          "name": "account",
          "type": "address"
        }
      ],
      "name": "Paused",
      "type": "event"
    },
    {
      "anonymous": false,
      "inputs": [
        {
          "indexed": false,
          "internalType": "address",
          "name": "account",
          "type": "address"
        }
      ],
      "name": "Unpaused",
      "type": "event"
    },
    {
      "anonymous": false,
      "inputs": [
        {
          "indexed": true,
          "internalType": "address",
          "name": "implementation",
          "type": "address"
        }
      ],
      "name": "Upgraded",
      "type": "event"
    },
    {
      "inputs": [],
      "name": "UPGRADE_INTERFACE_VERSION",
      "outputs": [
        {
          "internalType": "string",
          "name": "",
          "type": "string"
        }
      ],
      "stateMutability": "view",
      "type": "function"
    },
    {
      "inputs": [],
      "name": "basePrice",
      "outputs": [
        {
          "internalType": "uint256",
          "name": "",
          "type": "uint256"
        }
      ],
      "stateMutability": "view",
      "type": "function"
    },
    {
      "inputs": [
        {
          "internalType": "uint256",
          "name": "_amount",
          "type": "uint256"
        },
        {
          "internalType": "address",
          "name": "_referer",
          "type": "address"
        },
        {
          "internalType": "address",
          "name": "_creator",
          "type": "address"
        }
      ],
      "name": "executeBuy",
      "outputs": [],
      "stateMutability": "payable",
      "type": "function"
    },
    {
      "inputs": [
        {
          "internalType": "address",
          "name": "_owner",
          "type": "address"
        },
        {
          "internalType": "address",
          "name": "_feeDestination",
          "type": "address"
        }
      ],
      "name": "initialize",
      "outputs": [],
      "stateMutability": "nonpayable",
      "type": "function"
    },
    {
      "inputs": [],
      "name": "owner",
      "outputs": [
        {
          "internalType": "address",
          "name": "",
          "type": "address"
        }
      ],
      "stateMutability": "view",
      "type": "function"
    },
    {
      "inputs": [],
      "name": "pause",
      "outputs": [],
      "stateMutability": "nonpayable",
      "type": "function"
    },
    {
      "inputs": [],
      "name": "paused",
      "outputs": [
        {
          "internalType": "bool",
          "name": "",
          "type": "bool"
        }
      ],
      "stateMutability": "view",
      "type": "function"
    },
    {
      "inputs": [],
      "name": "protocolFeeDestination",
      "outputs": [
        {
          "internalType": "address",
          "name": "",
          "type": "address"
        }
      ],
      "stateMutability": "view",
      "type": "function"
    },
    {
      "inputs": [],
      "name": "protocolFeeDivider",
      "outputs": [
        {
          "internalType": "uint256",
          "name": "",
          "type": "uint256"
        }
      ],
      "stateMutability": "view",
      "type": "function"
    },
    {
      "inputs": [],
      "name": "proxiableUUID",
      "outputs": [
        {
          "internalType": "bytes32",
          "name": "",
          "type": "bytes32"
        }
      ],
      "stateMutability": "view",
      "type": "function"
    },
    {
      "inputs": [],
      "name": "renounceOwnership",
      "outputs": [],
      "stateMutability": "nonpayable",
      "type": "function"
    },
    {
      "inputs": [
        {
          "internalType": "address",
          "name": "_feeDestination",
          "type": "address"
        }
      ],
      "name": "setFeeDestination",
      "outputs": [],
      "stateMutability": "nonpayable",
      "type": "function"
    },
    {
      "inputs": [
        {
          "internalType": "uint256",
          "name": "_feeDivider",
          "type": "uint256"
        }
      ],
      "name": "setProtocolFeePercent",
      "outputs": [],
      "stateMutability": "nonpayable",
      "type": "function"
    },
    {
      "inputs": [
        {
          "internalType": "address",
          "name": "newOwner",
          "type": "address"
        }
      ],
      "name": "transferOwnership",
      "outputs": [],
      "stateMutability": "nonpayable",
      "type": "function"
    },
    {
      "inputs": [],
      "name": "unpause",
      "outputs": [],
      "stateMutability": "nonpayable",
      "type": "function"
    },
    {
      "inputs": [
        {
          "internalType": "address",
          "name": "newImplementation",
          "type": "address"
        },
        {
          "internalType": "bytes",
          "name": "data",
          "type": "bytes"
        }
      ],
      "name": "upgradeToAndCall",
      "outputs": [],
      "stateMutability": "payable",
      "type": "function"
    }
  ],
  "bytecode": "0x60a06040523060805234801561001457600080fd5b5060805161104a61003e60003960008181610892015281816108bb01526109fc015261104a6000f3fe6080604052600436106100f35760003560e01c80638456cb591161008a578063c7876ea411610059578063c7876ea4146102aa578063f2fde38b146102c0578063fbe53234146102e0578063fd6155581461030057600080fd5b80638456cb59146101fa5780638da5cb5b1461020f578063a49834211461024c578063ad3cb1cc1461026c57600080fd5b80634f1ef286116100c65780634f1ef2861461017f57806352d1902d146101925780635c975abb146101b5578063715018a6146101e557600080fd5b80633bb81cf0146100f85780633f4ba83a1461010d578063485cc955146101225780634ce7957c14610142575b600080fd5b61010b610106366004610d6b565b610316565b005b34801561011957600080fd5b5061010b61032e565b34801561012e57600080fd5b5061010b61013d366004610da7565b610340565b34801561014e57600080fd5b50600054610162906001600160a01b031681565b6040516001600160a01b0390911681526020015b60405180910390f35b61010b61018d366004610df0565b61048c565b34801561019e57600080fd5b506101a76104ab565b604051908152602001610176565b3480156101c157600080fd5b50600080516020610ff58339815191525460ff166040519015158152602001610176565b3480156101f157600080fd5b5061010b6104c8565b34801561020657600080fd5b5061010b6104da565b34801561021b57600080fd5b507f9016d09d72d40fdae2fd8ceac6b6234c7706214fd39c1cd1e609a0528c199300546001600160a01b0316610162565b34801561025857600080fd5b5061010b610267366004610eb2565b6104ea565b34801561027857600080fd5b5061029d604051806040016040528060058152602001640352e302e360dc1b81525081565b6040516101769190610eef565b3480156102b657600080fd5b506101a760025481565b3480156102cc57600080fd5b5061010b6102db366004610f22565b6104f7565b3480156102ec57600080fd5b5061010b6102fb366004610f22565b61053a565b34801561030c57600080fd5b506101a760015481565b61031e610564565b610329828285610595565b505050565b610336610792565b61033e6107ed565b565b7ff0c57e16840df040f15088dc2f81fe391c3923bec73e23a9662efc9c229c6a008054600160401b810460ff16159067ffffffffffffffff166000811580156103865750825b905060008267ffffffffffffffff1660011480156103a35750303b155b9050811580156103b1575080155b156103cf5760405163f92ee8a960e01b815260040160405180910390fd5b845467ffffffffffffffff1916600117855583156103f957845460ff60401b1916600160401b1785555b6104028761084d565b61040a61085e565b610412610866565b600080546001600160a01b0319166001600160a01b038816179055600a60015566017dfcdece4000600255831561048357845460ff60401b19168555604051600181527fc7f505b2f371ae2175ee4913f4499e1f2633a7b5936321eed1cdaeb6115181d29060200160405180910390a15b50505050505050565b610494610887565b61049d8261092c565b6104a78282610934565b5050565b60006104b56109f1565b50600080516020610fd583398151915290565b6104d0610792565b61033e6000610a3a565b6104e2610792565b61033e610aab565b6104f2610792565b600155565b6104ff610792565b6001600160a01b03811661052e57604051631e4fbdf760e01b8152600060048201526024015b60405180910390fd5b61053781610a3a565b50565b610542610792565b600080546001600160a01b0319166001600160a01b0392909216919091179055565b600080516020610ff58339815191525460ff161561033e5760405163d93c066560e01b815260040160405180910390fd5b6000816002546105a59190610f53565b90508034116105eb5760405162461bcd60e51b8152602060048201526012602482015271496e73756666696369656e742066756e647360701b6044820152606401610525565b60006105f8600a83610f6a565b90506000610607600a84610f6a565b90506000816106168486610f8c565b6106209190610f8c565b6000805460405192935090916001600160a01b039091169085908381818185875af1925050503d8060008114610672576040519150601f19603f3d011682016040523d82523d6000602084013e610677565b606091505b505090506000876001600160a01b03168360405160006040518083038185875af1925050503d80600081146106c8576040519150601f19603f3d011682016040523d82523d6000602084013e6106cd565b606091505b505090506000896001600160a01b03168560405160006040518083038185875af1925050503d806000811461071e576040519150601f19603f3d011682016040523d82523d6000602084013e610723565b606091505b505090508280156107315750815b801561073a5750805b6107865760405162461bcd60e51b815260206004820152601b60248201527f4572726f7220657865637574696e6720726567756c61722062757900000000006044820152606401610525565b50505050505050505050565b336107c47f9016d09d72d40fdae2fd8ceac6b6234c7706214fd39c1cd1e609a0528c199300546001600160a01b031690565b6001600160a01b03161461033e5760405163118cdaa760e01b8152336004820152602401610525565b6107f5610af4565b600080516020610ff5833981519152805460ff191681557f5db9ee0a495bf2e6ff9c91a7834c1ba4fdd244a5e8aa4e537bd38aeae4b073aa335b6040516001600160a01b03909116815260200160405180910390a150565b610855610b24565b61053781610b6d565b61033e610b24565b61086e610b24565b600080516020610ff5833981519152805460ff19169055565b306001600160a01b037f000000000000000000000000000000000000000000000000000000000000000016148061090e57507f00000000000000000000000000000000000000000000000000000000000000006001600160a01b0316610902600080516020610fd5833981519152546001600160a01b031690565b6001600160a01b031614155b1561033e5760405163703e46dd60e11b815260040160405180910390fd5b610537610792565b816001600160a01b03166352d1902d6040518163ffffffff1660e01b8152600401602060405180830381865afa92505050801561098e575060408051601f3d908101601f1916820190925261098b91810190610f9f565b60015b6109b657604051634c9c8ce360e01b81526001600160a01b0383166004820152602401610525565b600080516020610fd583398151915281146109e757604051632a87526960e21b815260048101829052602401610525565b6103298383610b75565b306001600160a01b037f0000000000000000000000000000000000000000000000000000000000000000161461033e5760405163703e46dd60e11b815260040160405180910390fd5b7f9016d09d72d40fdae2fd8ceac6b6234c7706214fd39c1cd1e609a0528c19930080546001600160a01b031981166001600160a01b03848116918217845560405192169182907f8be0079c531659141344cd1fd0a4f28419497f9722a3daafe3b4186f6b6457e090600090a3505050565b610ab3610564565b600080516020610ff5833981519152805460ff191660011781557f62e78cea01bee320cd4e420270b5ea74000d11b0c9f74754ebdbfc544b05a2583361082f565b600080516020610ff58339815191525460ff1661033e57604051638dfc202b60e01b815260040160405180910390fd5b7ff0c57e16840df040f15088dc2f81fe391c3923bec73e23a9662efc9c229c6a0054600160401b900460ff1661033e57604051631afcd79f60e31b815260040160405180910390fd5b6104ff610b24565b610b7e82610bcb565b6040516001600160a01b038316907fbc7cd75a20ee27fd9adebab32041f755214dbc6bffa90cc0225b39da2e5c2d3b90600090a2805115610bc3576103298282610c30565b6104a7610ca8565b806001600160a01b03163b600003610c0157604051634c9c8ce360e01b81526001600160a01b0382166004820152602401610525565b600080516020610fd583398151915280546001600160a01b0319166001600160a01b0392909216919091179055565b6060600080846001600160a01b031684604051610c4d9190610fb8565b600060405180830381855af49150503d8060008114610c88576040519150601f19603f3d011682016040523d82523d6000602084013e610c8d565b606091505b5091509150610c9d858383610cc7565b925050505b92915050565b341561033e5760405163b398979f60e01b815260040160405180910390fd5b606082610cdc57610cd782610d26565b610d1f565b8151158015610cf357506001600160a01b0384163b155b15610d1c57604051639996b31560e01b81526001600160a01b0385166004820152602401610525565b50805b9392505050565b805115610d365780518082602001fd5b604051630a12f52160e11b815260040160405180910390fd5b80356001600160a01b0381168114610d6657600080fd5b919050565b600080600060608486031215610d8057600080fd5b83359250610d9060208501610d4f565b9150610d9e60408501610d4f565b90509250925092565b60008060408385031215610dba57600080fd5b610dc383610d4f565b9150610dd160208401610d4f565b90509250929050565b634e487b7160e01b600052604160045260246000fd5b60008060408385031215610e0357600080fd5b610e0c83610d4f565b9150602083013567ffffffffffffffff80821115610e2957600080fd5b818501915085601f830112610e3d57600080fd5b813581811115610e4f57610e4f610dda565b604051601f8201601f19908116603f01168101908382118183101715610e7757610e77610dda565b81604052828152886020848701011115610e9057600080fd5b8260208601602083013760006020848301015280955050505050509250929050565b600060208284031215610ec457600080fd5b5035919050565b60005b83811015610ee6578181015183820152602001610ece565b50506000910152565b6020815260008251806020840152610f0e816040850160208701610ecb565b601f01601f19169190910160400192915050565b600060208284031215610f3457600080fd5b610d1f82610d4f565b634e487b7160e01b600052601160045260246000fd5b8082028115828204841417610ca257610ca2610f3d565b600082610f8757634e487b7160e01b600052601260045260246000fd5b500490565b81810381811115610ca257610ca2610f3d565b600060208284031215610fb157600080fd5b5051919050565b60008251610fca818460208701610ecb565b919091019291505056fe360894a13ba1a3210667c828492db98dca3e2076cc3735a920a3ca505d382bbccd5ed15c6e187e77e9aee88184c21f4f2182ab5827cb3b7e07fbedcd63f03300a26469706673582212204bfea5f649318359b1e60e96c25ef7456fdb86f0d3df14b8f35c4f4374b6b77a64736f6c63430008140033",
  "linkReferences": {},
  "deployedLinkReferences": {}
}