{
  "_format": "hh-sol-artifact-1",
  "contractName": "CollectionFactory",
  "sourceName": "contracts/MinimalFactory.sol",
  "abi": [
    {
      "inputs": [
        {
          "internalType": "address",
          "name": "_collectionImplementation",
          "type": "address"
        },
        {
          "internalType": "address",
          "name": "_profileRegistry",
          "type": "address"
        }
      ],
      "stateMutability": "nonpayable",
      "type": "constructor"
    },
    {
      "inputs": [],
      "name": "ERC1167FailedCreateClone",
      "type": "error"
    },
    {
      "inputs": [
        {
          "internalType": "address",
          "name": "owner",
          "type": "address"
        }
      ],
      "name": "OwnableInvalidOwner",
      "type": "error"
    },
    {
      "inputs": [
        {
          "internalType": "address",
          "name": "account",
          "type": "address"
        }
      ],
      "name": "OwnableUnauthorizedAccount",
      "type": "error"
    },
    {
      "anonymous": false,
      "inputs": [
        {
          "indexed": true,
          "internalType": "address",
          "name": "owner",
          "type": "address"
        },
        {
          "indexed": false,
          "internalType": "address",
          "name": "collection",
          "type": "address"
        }
      ],
      "name": "CollectionCreated",
      "type": "event"
    },
    {
      "anonymous": false,
      "inputs": [
        {
          "indexed": true,
          "internalType": "address",
          "name": "owner",
          "type": "address"
        },
        {
          "indexed": false,
          "internalType": "address",
          "name": "collection",
          "type": "address"
        },
        {
          "indexed": false,
          "internalType": "uint256",
          "name": "postId",
          "type": "uint256"
        }
      ],
      "name": "CollectionCreatedWithPost",
      "type": "event"
    },
    {
      "anonymous": false,
      "inputs": [
        {
          "indexed": true,
          "internalType": "address",
          "name": "previousOwner",
          "type": "address"
        },
        {
          "indexed": true,
          "internalType": "address",
          "name": "newOwner",
          "type": "address"
        }
      ],
      "name": "OwnershipTransferred",
      "type": "event"
    },
    {
      "anonymous": false,
      "inputs": [
        {
          "indexed": true,
          "internalType": "address",
          "name": "owner",
          "type": "address"
        },
        {
          "indexed": false,
          "internalType": "address",
          "name": "collection",
          "type": "address"
        },
        {
          "indexed": false,
          "internalType": "uint256",
          "name": "postId",
          "type": "uint256"
        }
      ],
      "name": "ProfileAndCollectionCreated",
      "type": "event"
    },
    {
      "inputs": [],
      "name": "collectionImplementation",
      "outputs": [
        {
          "internalType": "address",
          "name": "",
          "type": "address"
        }
      ],
      "stateMutability": "view",
      "type": "function"
    },
    {
      "inputs": [
        {
          "internalType": "string",
          "name": "_name",
          "type": "string"
        },
        {
          "internalType": "string",
          "name": "_contractURI",
          "type": "string"
        }
      ],
      "name": "createCollection",
      "outputs": [
        {
          "internalType": "address",
          "name": "",
          "type": "address"
        }
      ],
      "stateMutability": "nonpayable",
      "type": "function"
    },
    {
      "inputs": [
        {
          "internalType": "string",
          "name": "_name",
          "type": "string"
        },
        {
          "internalType": "string",
          "name": "_contractURI",
          "type": "string"
        },
        {
          "internalType": "string",
          "name": "_title",
          "type": "string"
        },
        {
          "internalType": "string",
          "name": "_content",
          "type": "string"
        },
        {
          "internalType": "bool",
          "name": "_isGated",
          "type": "bool"
        }
      ],
      "name": "createCollectionAndPost",
      "outputs": [
        {
          "internalType": "address",
          "name": "",
          "type": "address"
        }
      ],
      "stateMutability": "nonpayable",
      "type": "function"
    },
    {
      "inputs": [
        {
          "internalType": "string",
          "name": "_handle",
          "type": "string"
        },
        {
          "internalType": "string",
          "name": "_description",
          "type": "string"
        },
        {
          "internalType": "string",
          "name": "_profileMetadataURI",
          "type": "string"
        },
        {
          "internalType": "string",
          "name": "_collectionName",
          "type": "string"
        },
        {
          "internalType": "string",
          "name": "_collectionURI",
          "type": "string"
        },
        {
          "internalType": "string",
          "name": "_postTitle",
          "type": "string"
        },
        {
          "internalType": "string",
          "name": "_postContent",
          "type": "string"
        },
        {
          "internalType": "bool",
          "name": "_isGated",
          "type": "bool"
        }
      ],
      "name": "createProfileCollectionAndPost",
      "outputs": [
        {
          "internalType": "address",
          "name": "",
          "type": "address"
        }
      ],
      "stateMutability": "nonpayable",
      "type": "function"
    },
    {
      "inputs": [],
      "name": "owner",
      "outputs": [
        {
          "internalType": "address",
          "name": "",
          "type": "address"
        }
      ],
      "stateMutability": "view",
      "type": "function"
    },
    {
      "inputs": [],
      "name": "profileRegistry",
      "outputs": [
        {
          "internalType": "address",
          "name": "",
          "type": "address"
        }
      ],
      "stateMutability": "view",
      "type": "function"
    },
    {
      "inputs": [],
      "name": "renounceOwnership",
      "outputs": [],
      "stateMutability": "nonpayable",
      "type": "function"
    },
    {
      "inputs": [
        {
          "internalType": "address",
          "name": "newOwner",
          "type": "address"
        }
      ],
      "name": "transferOwnership",
      "outputs": [],
      "stateMutability": "nonpayable",
      "type": "function"
    }
  ],
  "bytecode": "0x60c060405234801561001057600080fd5b50604051610c65380380610c6583398101604081905261002f916100e2565b338061005557604051631e4fbdf760e01b81526000600482015260240160405180910390fd5b61005e81610076565b506001600160a01b039182166080521660a052610115565b600080546001600160a01b038381166001600160a01b0319831681178455604051919092169283917f8be0079c531659141344cd1fd0a4f28419497f9722a3daafe3b4186f6b6457e09190a35050565b80516001600160a01b03811681146100dd57600080fd5b919050565b600080604083850312156100f557600080fd5b6100fe836100c6565b915061010c602084016100c6565b90509250929050565b60805160a051610b106101556000396000818161011601526103a50152600081816092015281816101660152818161025001526104190152610b106000f3fe608060405234801561001057600080fd5b50600436106100885760003560e01c8063929134641161005b57806392913464146100fe578063c9bb1a4814610111578063dbf436d914610138578063f2fde38b1461014b57600080fd5b80630f3b901f1461008d578063176b9b75146100d0578063715018a6146100e35780638da5cb5b146100ed575b600080fd5b6100b47f000000000000000000000000000000000000000000000000000000000000000081565b6040516001600160a01b03909116815260200160405180910390f35b6100b46100de36600461072c565b61015e565b6100eb610234565b005b6000546001600160a01b03166100b4565b6100b461010c3660046107a0565b610248565b6100b47f000000000000000000000000000000000000000000000000000000000000000081565b6100b461014636600461085e565b61038b565b6100eb61015936600461098a565b610557565b60008061018a7f000000000000000000000000000000000000000000000000000000000000000061059a565b6040516303bf912560e11b81529091506001600160a01b0382169063077f224a906101bd90879087903390600401610a00565b600060405180830381600087803b1580156101d757600080fd5b505af11580156101eb573d6000803e3d6000fd5b50506040516001600160a01b03841681523392507f5d0de243db1669e3a7056744cd715c625f0c1c348736c2c2d53d0ddebff1a6c7915060200160405180910390a29392505050565b61023c61060c565b6102466000610639565b565b6000806102747f000000000000000000000000000000000000000000000000000000000000000061059a565b6040516303bf912560e11b81529091506001600160a01b0382169063077f224a906102a7908a908a903390600401610a00565b600060405180830381600087803b1580156102c157600080fd5b505af11580156102d5573d6000803e3d6000fd5b505060405163da2277c360e01b81526001600160a01b038416925063da2277c3915061030b908890889033908990600401610a3e565b600060405180830381600087803b15801561032557600080fd5b505af1158015610339573d6000803e3d6000fd5b5050604080516001600160a01b0385168152600160208201523393507f8ea4b388f0090cb7e057deabfbad764fb3aaf24513a5a881d5fa9adae5fd0c5892500160405180910390a29695505050505050565b604051633463531b60e21b81526000906001600160a01b037f0000000000000000000000000000000000000000000000000000000000000000169063d18d4c6c906103e09033908d908d908d90600401610a85565b600060405180830381600087803b1580156103fa57600080fd5b505af115801561040e573d6000803e3d6000fd5b50505050600061043d7f000000000000000000000000000000000000000000000000000000000000000061059a565b6040516303bf912560e11b81529091506001600160a01b0382169063077f224a90610470908a908a903390600401610a00565b600060405180830381600087803b15801561048a57600080fd5b505af115801561049e573d6000803e3d6000fd5b505060405163da2277c360e01b81526001600160a01b038416925063da2277c391506104d4908890889033908990600401610a3e565b600060405180830381600087803b1580156104ee57600080fd5b505af1158015610502573d6000803e3d6000fd5b5050604080516001600160a01b0385168152600160208201523393507fa0bcc4f0d1b3f9f4d60d81587f30f7c26af0198e8f492361accd30c9091aa27f92500160405180910390a29998505050505050505050565b61055f61060c565b6001600160a01b03811661058e57604051631e4fbdf760e01b8152600060048201526024015b60405180910390fd5b61059781610639565b50565b6000763d602d80600a3d3981f3363d3d373d3d3d363d730000008260601b60e81c176000526e5af43d82803e903d91602b57fd5bf38260781b17602052603760096000f090506001600160a01b038116610607576040516330be1a3d60e21b815260040160405180910390fd5b919050565b6000546001600160a01b031633146102465760405163118cdaa760e01b8152336004820152602401610585565b600080546001600160a01b038381166001600160a01b0319831681178455604051919092169283917f8be0079c531659141344cd1fd0a4f28419497f9722a3daafe3b4186f6b6457e09190a35050565b634e487b7160e01b600052604160045260246000fd5b600082601f8301126106b057600080fd5b813567ffffffffffffffff808211156106cb576106cb610689565b604051601f8301601f19908116603f011681019082821181831017156106f3576106f3610689565b8160405283815286602085880101111561070c57600080fd5b836020870160208301376000602085830101528094505050505092915050565b6000806040838503121561073f57600080fd5b823567ffffffffffffffff8082111561075757600080fd5b6107638683870161069f565b9350602085013591508082111561077957600080fd5b506107868582860161069f565b9150509250929050565b8035801515811461060757600080fd5b600080600080600060a086880312156107b857600080fd5b853567ffffffffffffffff808211156107d057600080fd5b6107dc89838a0161069f565b965060208801359150808211156107f257600080fd5b6107fe89838a0161069f565b9550604088013591508082111561081457600080fd5b61082089838a0161069f565b9450606088013591508082111561083657600080fd5b506108438882890161069f565b92505061085260808701610790565b90509295509295909350565b600080600080600080600080610100898b03121561087b57600080fd5b883567ffffffffffffffff8082111561089357600080fd5b61089f8c838d0161069f565b995060208b01359150808211156108b557600080fd5b6108c18c838d0161069f565b985060408b01359150808211156108d757600080fd5b6108e38c838d0161069f565b975060608b01359150808211156108f957600080fd5b6109058c838d0161069f565b965060808b013591508082111561091b57600080fd5b6109278c838d0161069f565b955060a08b013591508082111561093d57600080fd5b6109498c838d0161069f565b945060c08b013591508082111561095f57600080fd5b5061096c8b828c0161069f565b92505061097b60e08a01610790565b90509295985092959890939650565b60006020828403121561099c57600080fd5b81356001600160a01b03811681146109b357600080fd5b9392505050565b6000815180845260005b818110156109e0576020818501810151868301820152016109c4565b506000602082860101526020601f19601f83011685010191505092915050565b606081526000610a1360608301866109ba565b8281036020840152610a2581866109ba565b91505060018060a01b0383166040830152949350505050565b608081526000610a5160808301876109ba565b8281036020840152610a6381876109ba565b6001600160a01b03959095166040840152505090151560609091015292915050565b6001600160a01b0385168152608060208201819052600090610aa9908301866109ba565b8281036040840152610abb81866109ba565b90508281036060840152610acf81856109ba565b97965050505050505056fea264697066735822122073347f99cce1a59c8a1c0abd1b269d1dd3075e02029f1049b72af59c37c273ba64736f6c63430008140033",
  "linkReferences": {},
  "deployedLinkReferences": {}
}